{
  "contractName": "SupplyChain",
  "abi": [
    {
      "inputs": [],
      "stateMutability": "nonpayable",
      "type": "constructor"
    },
    {
      "anonymous": false,
      "inputs": [
        {
          "indexed": false,
          "internalType": "uint256",
          "name": "medicineId",
          "type": "uint256"
        },
        {
          "indexed": false,
          "internalType": "string",
          "name": "medicineDescription",
          "type": "string"
        },
        {
          "indexed": false,
          "internalType": "uint256",
          "name": "quantityProduced",
          "type": "uint256"
        },
        {
          "indexed": false,
          "internalType": "uint256",
          "name": "rawMaterialId",
          "type": "uint256"
        },
        {
          "indexed": false,
          "internalType": "string",
          "name": "rawMaterialDescription",
          "type": "string"
        },
        {
          "indexed": false,
          "internalType": "string",
          "name": "qualityAssuranceReports",
          "type": "string"
        },
        {
          "indexed": false,
          "internalType": "string",
          "name": "testResults",
          "type": "string"
        },
        {
          "indexed": false,
          "internalType": "string",
          "name": "manufacturerInfo",
          "type": "string"
        },
        {
          "indexed": false,
          "internalType": "string",
          "name": "transactionLogs",
          "type": "string"
        }
      ],
      "name": "MedicineProductionLogged",
      "type": "event"
    },
    {
      "anonymous": false,
      "inputs": [
        {
          "indexed": true,
          "internalType": "address",
          "name": "PatientAddress",
          "type": "address"
        },
        {
          "indexed": true,
          "internalType": "uint256",
          "name": "MedicineId",
          "type": "uint256"
        },
        {
          "indexed": false,
          "internalType": "uint256",
          "name": "Age",
          "type": "uint256"
        },
        {
          "indexed": false,
          "internalType": "string",
          "name": "Gender",
          "type": "string"
        },
        {
          "indexed": false,
          "internalType": "string",
          "name": "Location",
          "type": "string"
        },
        {
          "indexed": false,
          "internalType": "string",
          "name": "SideEffectsDescription",
          "type": "string"
        },
        {
          "indexed": false,
          "internalType": "string",
          "name": "PastDiseases",
          "type": "string"
        }
      ],
      "name": "SideEffectsReported",
      "type": "event"
    },
    {
      "anonymous": false,
      "inputs": [
        {
          "indexed": true,
          "internalType": "address",
          "name": "_address",
          "type": "address"
        },
        {
          "indexed": false,
          "internalType": "bytes32",
          "name": "name",
          "type": "bytes32"
        }
      ],
      "name": "UserRegister",
      "type": "event"
    },
    {
      "anonymous": false,
      "inputs": [
        {
          "indexed": false,
          "internalType": "address",
          "name": "buyer",
          "type": "address"
        },
        {
          "indexed": true,
          "internalType": "address",
          "name": "seller",
          "type": "address"
        },
        {
          "indexed": false,
          "internalType": "address",
          "name": "packageAddr",
          "type": "address"
        },
        {
          "indexed": false,
          "internalType": "bytes",
          "name": "signature",
          "type": "bytes"
        },
        {
          "indexed": true,
          "internalType": "uint256",
          "name": "timestamp",
          "type": "uint256"
        }
      ],
      "name": "buyEvent",
      "type": "event"
    },
    {
      "anonymous": false,
      "inputs": [
        {
          "indexed": true,
          "internalType": "address",
          "name": "buyer",
          "type": "address"
        },
        {
          "indexed": false,
          "internalType": "address",
          "name": "seller",
          "type": "address"
        },
        {
          "indexed": false,
          "internalType": "address",
          "name": "packageAddr",
          "type": "address"
        },
        {
          "indexed": false,
          "internalType": "bytes",
          "name": "signature",
          "type": "bytes"
        },
        {
          "indexed": true,
          "internalType": "uint256",
          "name": "timestamp",
          "type": "uint256"
        }
      ],
      "name": "receivedEvent",
      "type": "event"
    },
    {
      "anonymous": false,
      "inputs": [
        {
          "indexed": true,
          "internalType": "address",
          "name": "buyer",
          "type": "address"
        },
        {
          "indexed": false,
          "internalType": "address",
          "name": "seller",
          "type": "address"
        },
        {
          "indexed": false,
          "internalType": "address",
          "name": "packageAddr",
          "type": "address"
        },
        {
          "indexed": false,
          "internalType": "bytes",
          "name": "signature",
          "type": "bytes"
        },
        {
          "indexed": true,
          "internalType": "uint256",
          "name": "timestamp",
          "type": "uint256"
        }
      ],
      "name": "respondEvent",
      "type": "event"
    },
    {
      "anonymous": false,
      "inputs": [
        {
          "indexed": false,
          "internalType": "address",
          "name": "seller",
          "type": "address"
        },
        {
          "indexed": false,
          "internalType": "address",
          "name": "buyer",
          "type": "address"
        },
        {
          "indexed": true,
          "internalType": "address",
          "name": "packageAddr",
          "type": "address"
        },
        {
          "indexed": false,
          "internalType": "bytes",
          "name": "signature",
          "type": "bytes"
        },
        {
          "indexed": true,
          "internalType": "uint256",
          "name": "timestamp",
          "type": "uint256"
        }
      ],
      "name": "sendEvent",
      "type": "event"
    },
    {
      "inputs": [
        {
          "internalType": "address",
          "name": "",
          "type": "address"
        },
        {
          "internalType": "uint256",
          "name": "",
          "type": "uint256"
        }
      ],
      "name": "MedicineDtoC",
      "outputs": [
        {
          "internalType": "address",
          "name": "",
          "type": "address"
        }
      ],
      "stateMutability": "view",
      "type": "function",
      "constant": true
    },
    {
      "inputs": [
        {
          "internalType": "address",
          "name": "",
          "type": "address"
        }
      ],
      "name": "MedicineDtoCTxContract",
      "outputs": [
        {
          "internalType": "address",
          "name": "",
          "type": "address"
        }
      ],
      "stateMutability": "view",
      "type": "function",
      "constant": true
    },
    {
      "inputs": [
        {
          "internalType": "address",
          "name": "",
          "type": "address"
        },
        {
          "internalType": "uint256",
          "name": "",
          "type": "uint256"
        }
      ],
      "name": "MedicineWtoD",
      "outputs": [
        {
          "internalType": "address",
          "name": "",
          "type": "address"
        }
      ],
      "stateMutability": "view",
      "type": "function",
      "constant": true
    },
    {
      "inputs": [
        {
          "internalType": "address",
          "name": "",
          "type": "address"
        }
      ],
      "name": "MedicineWtoDTxContract",
      "outputs": [
        {
          "internalType": "address",
          "name": "",
          "type": "address"
        }
      ],
      "stateMutability": "view",
      "type": "function",
      "constant": true
    },
    {
      "inputs": [
        {
          "internalType": "address",
          "name": "",
          "type": "address"
        },
        {
          "internalType": "uint256",
          "name": "",
          "type": "uint256"
        }
      ],
      "name": "MedicinesAtDistributor",
      "outputs": [
        {
          "internalType": "address",
          "name": "",
          "type": "address"
        }
      ],
      "stateMutability": "view",
      "type": "function",
      "constant": true
    },
    {
      "inputs": [
        {
          "internalType": "address",
          "name": "",
          "type": "address"
        },
        {
          "internalType": "uint256",
          "name": "",
          "type": "uint256"
        }
      ],
      "name": "MedicinesAtWholesaler",
      "outputs": [
        {
          "internalType": "address",
          "name": "",
          "type": "address"
        }
      ],
      "stateMutability": "view",
      "type": "function",
      "constant": true
    },
    {
      "inputs": [
        {
          "internalType": "address",
          "name": "",
          "type": "address"
        },
        {
          "internalType": "uint256",
          "name": "",
          "type": "uint256"
        }
      ],
      "name": "manufacturerMedicines",
      "outputs": [
        {
          "internalType": "address",
          "name": "",
          "type": "address"
        }
      ],
      "stateMutability": "view",
      "type": "function",
      "constant": true
    },
    {
      "inputs": [
        {
          "internalType": "address",
          "name": "",
          "type": "address"
        },
        {
          "internalType": "uint256",
          "name": "",
          "type": "uint256"
        }
      ],
      "name": "manufacturerRawMaterials",
      "outputs": [
        {
          "internalType": "address",
          "name": "",
          "type": "address"
        }
      ],
      "stateMutability": "view",
      "type": "function",
      "constant": true
    },
    {
      "inputs": [
        {
          "internalType": "uint256",
          "name": "",
          "type": "uint256"
        }
      ],
      "name": "medicineProductionLogs",
      "outputs": [
        {
          "internalType": "uint256",
          "name": "medicineId",
          "type": "uint256"
        },
        {
          "internalType": "string",
          "name": "medicineDescription",
          "type": "string"
        },
        {
          "internalType": "uint256",
          "name": "quantityProduced",
          "type": "uint256"
        },
        {
          "internalType": "uint256",
          "name": "rawMaterialId",
          "type": "uint256"
        },
        {
          "internalType": "string",
          "name": "rawMaterialDescription",
          "type": "string"
        },
        {
          "internalType": "string",
          "name": "qualityAssuranceReports",
          "type": "string"
        },
        {
          "internalType": "string",
          "name": "testResults",
          "type": "string"
        },
        {
          "internalType": "string",
          "name": "manufacturerInfo",
          "type": "string"
        },
        {
          "internalType": "string",
          "name": "transactionLogs",
          "type": "string"
        }
      ],
      "stateMutability": "view",
      "type": "function",
      "constant": true
    },
    {
      "inputs": [
        {
          "internalType": "address",
          "name": "",
          "type": "address"
        },
        {
          "internalType": "uint256",
          "name": "",
          "type": "uint256"
        }
      ],
      "name": "supplierRawMaterials",
      "outputs": [
        {
          "internalType": "address",
          "name": "",
          "type": "address"
        }
      ],
      "stateMutability": "view",
      "type": "function",
      "constant": true
    },
    {
      "inputs": [],
      "name": "totalProductionLogs",
      "outputs": [
        {
          "internalType": "uint256",
          "name": "",
          "type": "uint256"
        }
      ],
      "stateMutability": "view",
      "type": "function",
      "constant": true
    },
    {
      "inputs": [
        {
          "internalType": "address",
          "name": "",
          "type": "address"
        }
      ],
      "name": "userInfo",
      "outputs": [
        {
          "internalType": "bytes32",
          "name": "name",
          "type": "bytes32"
        },
        {
          "internalType": "enum SupplyChain.roles",
          "name": "role",
          "type": "uint8"
        },
        {
          "internalType": "address",
          "name": "userAddr",
          "type": "address"
        }
      ],
      "stateMutability": "view",
      "type": "function",
      "constant": true
    },
    {
      "inputs": [
        {
          "internalType": "address",
          "name": "buyer",
          "type": "address"
        },
        {
          "internalType": "address",
          "name": "seller",
          "type": "address"
        },
        {
          "internalType": "address",
          "name": "packageAddr",
          "type": "address"
        },
        {
          "internalType": "bytes",
          "name": "signature",
          "type": "bytes"
        }
      ],
      "name": "requestProduct",
      "outputs": [],
      "stateMutability": "nonpayable",
      "type": "function"
    },
    {
      "inputs": [
        {
          "internalType": "address",
          "name": "buyer",
          "type": "address"
        },
        {
          "internalType": "address",
          "name": "seller",
          "type": "address"
        },
        {
          "internalType": "address",
          "name": "packageAddr",
          "type": "address"
        },
        {
          "internalType": "bytes",
          "name": "signature",
          "type": "bytes"
        }
      ],
      "name": "respondToEntity",
      "outputs": [],
      "stateMutability": "nonpayable",
      "type": "function"
    },
    {
      "inputs": [
        {
          "internalType": "address",
          "name": "buyer",
          "type": "address"
        },
        {
          "internalType": "address",
          "name": "seller",
          "type": "address"
        },
        {
          "internalType": "address",
          "name": "packageAddr",
          "type": "address"
        },
        {
          "internalType": "bytes",
          "name": "signature",
          "type": "bytes"
        }
      ],
      "name": "sendPackageToEntity",
      "outputs": [],
      "stateMutability": "nonpayable",
      "type": "function"
    },
    {
      "inputs": [
        {
          "internalType": "bytes32",
          "name": "name",
          "type": "bytes32"
        },
        {
          "internalType": "string[]",
          "name": "loc",
          "type": "string[]"
        },
        {
          "internalType": "uint256",
          "name": "role",
          "type": "uint256"
        },
        {
          "internalType": "address",
          "name": "_userAddr",
          "type": "address"
        }
      ],
      "name": "registerUser",
      "outputs": [],
      "stateMutability": "nonpayable",
      "type": "function"
    },
    {
      "inputs": [
        {
          "internalType": "address",
          "name": "_address",
          "type": "address"
        }
      ],
      "name": "getUserInfo",
      "outputs": [
        {
          "components": [
            {
              "internalType": "bytes32",
              "name": "name",
              "type": "bytes32"
            },
            {
              "internalType": "string[]",
              "name": "userLoc",
              "type": "string[]"
            },
            {
              "internalType": "enum SupplyChain.roles",
              "name": "role",
              "type": "uint8"
            },
            {
              "internalType": "address",
              "name": "userAddr",
              "type": "address"
            }
          ],
          "internalType": "struct SupplyChain.userData",
          "name": "",
          "type": "tuple"
        }
      ],
      "stateMutability": "view",
      "type": "function",
      "constant": true
    },
    {
      "inputs": [
        {
          "internalType": "bytes32",
          "name": "_description",
          "type": "bytes32"
        },
        {
          "internalType": "uint256",
          "name": "_quantity",
          "type": "uint256"
        },
        {
          "internalType": "address",
          "name": "_transporterAddr",
          "type": "address"
        },
        {
          "internalType": "address",
          "name": "_manufacturerAddr",
          "type": "address"
        }
      ],
      "name": "createRawMaterialPackage",
      "outputs": [
        {
          "internalType": "address",
          "name": "",
          "type": "address"
        }
      ],
      "stateMutability": "nonpayable",
      "type": "function"
    },
    {
      "inputs": [],
      "name": "getNoOfPackagesOfSupplier",
      "outputs": [
        {
          "internalType": "uint256",
          "name": "",
          "type": "uint256"
        }
      ],
      "stateMutability": "view",
      "type": "function",
      "constant": true
    },
    {
      "inputs": [],
      "name": "getAllPackages",
      "outputs": [
        {
          "internalType": "address[]",
          "name": "",
          "type": "address[]"
        }
      ],
      "stateMutability": "view",
      "type": "function",
      "constant": true
    },
    {
      "inputs": [
        {
          "internalType": "address",
          "name": "_addr",
          "type": "address"
        },
        {
          "internalType": "uint256",
          "name": "transportertype",
          "type": "uint256"
        },
        {
          "internalType": "address",
          "name": "cid",
          "type": "address"
        }
      ],
      "name": "transporterHandlePackage",
      "outputs": [],
      "stateMutability": "nonpayable",
      "type": "function"
    },
    {
      "inputs": [
        {
          "internalType": "address",
          "name": "_addr",
          "type": "address"
        },
        {
          "internalType": "address",
          "name": "_manufacturerAddress",
          "type": "address"
        },
        {
          "internalType": "address",
          "name": "_sellerAddr",
          "type": "address"
        },
        {
          "internalType": "bytes",
          "name": "signature",
          "type": "bytes"
        }
      ],
      "name": "manufacturerReceivedPackage",
      "outputs": [],
      "stateMutability": "nonpayable",
      "type": "function"
    },
    {
      "inputs": [],
      "name": "getAllRawMaterials",
      "outputs": [
        {
          "internalType": "address[]",
          "name": "",
          "type": "address[]"
        }
      ],
      "stateMutability": "view",
      "type": "function",
      "constant": true
    },
    {
      "inputs": [
        {
          "internalType": "address",
          "name": "_manufacturerAddr",
          "type": "address"
        },
        {
          "internalType": "bytes32",
          "name": "_description",
          "type": "bytes32"
        },
        {
          "internalType": "address[]",
          "name": "_rawAddr",
          "type": "address[]"
        },
        {
          "internalType": "uint256",
          "name": "_quantity",
          "type": "uint256"
        },
        {
          "internalType": "address[]",
          "name": "_transporterAddr",
          "type": "address[]"
        }
      ],
      "name": "manufacturerCreatesMedicine",
      "outputs": [],
      "stateMutability": "nonpayable",
      "type": "function"
    },
    {
      "inputs": [],
      "name": "getAllCreatedMedicines",
      "outputs": [
        {
          "internalType": "address[]",
          "name": "",
          "type": "address[]"
        }
      ],
      "stateMutability": "view",
      "type": "function",
      "constant": true
    },
    {
      "inputs": [
        {
          "internalType": "address",
          "name": "_address",
          "type": "address"
        },
        {
          "internalType": "address",
          "name": "_sellerAddr",
          "type": "address"
        },
        {
          "internalType": "bytes",
          "name": "signature",
          "type": "bytes"
        }
      ],
      "name": "wholesalerReceivedMedicine",
      "outputs": [],
      "stateMutability": "nonpayable",
      "type": "function"
    },
    {
      "inputs": [
        {
          "internalType": "address",
          "name": "_address",
          "type": "address"
        },
        {
          "internalType": "address",
          "name": "transporter",
          "type": "address"
        },
        {
          "internalType": "address",
          "name": "receiver",
          "type": "address"
        }
      ],
      "name": "transferMedicineWtoD",
      "outputs": [],
      "stateMutability": "nonpayable",
      "type": "function"
    },
    {
      "inputs": [
        {
          "internalType": "address",
          "name": "_address",
          "type": "address"
        }
      ],
      "name": "getSubContractWD",
      "outputs": [
        {
          "internalType": "address",
          "name": "SubContractWD",
          "type": "address"
        }
      ],
      "stateMutability": "view",
      "type": "function",
      "constant": true
    },
    {
      "inputs": [],
      "name": "getAllMedicinesAtWholesaler",
      "outputs": [
        {
          "internalType": "address[]",
          "name": "",
          "type": "address[]"
        }
      ],
      "stateMutability": "view",
      "type": "function",
      "constant": true
    },
    {
      "inputs": [
        {
          "internalType": "address",
          "name": "_address",
          "type": "address"
        },
        {
          "internalType": "address",
          "name": "cid",
          "type": "address"
        },
        {
          "internalType": "address",
          "name": "_sellerAddr",
          "type": "address"
        },
        {
          "internalType": "bytes",
          "name": "signature",
          "type": "bytes"
        }
      ],
      "name": "distributorReceivedMedicine",
      "outputs": [],
      "stateMutability": "nonpayable",
      "type": "function"
    },
    {
      "inputs": [
        {
          "internalType": "address",
          "name": "_address",
          "type": "address"
        },
        {
          "internalType": "address",
          "name": "transporter",
          "type": "address"
        },
        {
          "internalType": "address",
          "name": "receiver",
          "type": "address"
        }
      ],
      "name": "distributorTransferMedicinetoCustomer",
      "outputs": [],
      "stateMutability": "nonpayable",
      "type": "function"
    },
    {
      "inputs": [],
      "name": "getBatchesCountDC",
      "outputs": [
        {
          "internalType": "uint256",
          "name": "count",
          "type": "uint256"
        }
      ],
      "stateMutability": "view",
      "type": "function",
      "constant": true
    },
    {
      "inputs": [
        {
          "internalType": "uint256",
          "name": "index",
          "type": "uint256"
        }
      ],
      "name": "getBatchIdByIndexDC",
      "outputs": [
        {
          "internalType": "address",
          "name": "packageID",
          "type": "address"
        }
      ],
      "stateMutability": "view",
      "type": "function",
      "constant": true
    },
    {
      "inputs": [
        {
          "internalType": "address",
          "name": "_address",
          "type": "address"
        }
      ],
      "name": "getSubContractDC",
      "outputs": [
        {
          "internalType": "address",
          "name": "SubContractDP",
          "type": "address"
        }
      ],
      "stateMutability": "view",
      "type": "function",
      "constant": true
    },
    {
      "inputs": [],
      "name": "getAllMedicinesAtDistributor",
      "outputs": [
        {
          "internalType": "address[]",
          "name": "",
          "type": "address[]"
        }
      ],
      "stateMutability": "view",
      "type": "function",
      "constant": true
    },
    {
      "inputs": [
        {
          "internalType": "address",
          "name": "p",
          "type": "address"
        },
        {
          "internalType": "bytes32",
          "name": "hash",
          "type": "bytes32"
        },
        {
          "internalType": "uint8",
          "name": "v",
          "type": "uint8"
        },
        {
          "internalType": "bytes32",
          "name": "r",
          "type": "bytes32"
        },
        {
          "internalType": "bytes32",
          "name": "s",
          "type": "bytes32"
        }
      ],
      "name": "verify",
      "outputs": [
        {
          "internalType": "bool",
          "name": "",
          "type": "bool"
        }
      ],
      "stateMutability": "pure",
      "type": "function",
      "constant": true
    }
  ],
  "bytecode": "0x608060405234801561001057600080fd5b50600080546001600160a01b03191633179055615f64806100326000396000f3fe60806040523480156200001157600080fd5b5060043610620002085760003560e01c80638dfa742d116200011d578063d06f7b5511620000ab578063d06f7b5514620004b7578063e0cf92fe14620004ce578063e3938b7014620004e5578063f06822d814620004ef578063fac0992d1462000506578063fb238b111462000510578063fc7e01f3146200051a578063fd302c351462000531578063ff2b065a14620005485762000208565b80638dfa742d1462000400578063965980381462000417578063a205a123146200042e578063a999cca11462000438578063b0fc028d146200044f578063b8b16ca31462000466578063be7ef9c0146200047d578063c22470ea1462000494578063cd55152e14620004ad5762000208565b8063381cb0dc116200019b578063381cb0dc14620002fc578063412afbaf1462000313578063506535f3146200032a57806362c1fe3914620003505780636386c1c71462000367578063798a826f146200038d5780637a0689f014620003a45780638826327014620003bb5780638ccc8db714620003e95762000208565b8063050e70db146200020d57806306db8324146200023c5780630a421f0f1462000253578063164bcd5b146200026c5780631959a00214620002835780631f90ddaf14620002ab57806327ddcd2514620002c45780633475901614620002db5780633668669a14620002f2575b600080fd5b620002246200021e3660046200223b565b6200055f565b60405162000233919062002529565b60405180910390f35b620002246200024d3660046200223b565b62000595565b6200025d620005af565b60405162000233919062002642565b620002246200027d36600462002441565b62000684565b6200029a6200029436600462001ff8565b6200070a565b60405162000233939291906200266b565b620002c2620002bc36600462002336565b62000736565b005b620002c2620002d536600462002152565b6200083b565b62000224620002ec36600462001ff8565b620008c2565b6200025d620008e0565b620002c26200030d366004620020eb565b620009ad565b62000224620003243660046200223b565b62000ae9565b620003416200033b366004620021e1565b62000b03565b60405162000233919062002657565b620002246200036136600462001ff8565b62000b76565b6200037e6200037836600462001ff8565b62000b94565b6040516200023391906200282f565b620002246200039e36600462001ff8565b62000ce9565b620002c2620003b53660046200206f565b62000d04565b620003d2620003cc36600462002441565b62000fcb565b6040516200023399989796959493929190620028d1565b62000224620003fa3660046200223b565b62001374565b62000224620004113660046200223b565b6200138e565b620002c2620004283660046200206f565b620013a8565b6200025d62001473565b62000224620004493660046200223b565b62001540565b620002246200046036600462001ff8565b6200155a565b620002c2620004773660046200206f565b62001575565b620002c26200048e36600462002269565b620015b5565b6200049e62001774565b60405162000233919062002662565b6200049e62001787565b620002c2620004c83660046200206f565b620017e1565b620002c2620004df3660046200206f565b62001821565b6200025d62001861565b620002c2620005003660046200201e565b6200192e565b6200025d620019c9565b6200049e62001a96565b620002246200052b366004620023f3565b62001a9c565b62000224620005423660046200223b565b62001b9c565b620002c2620005593660046200201e565b62001bb6565b600860205281600052604060002081815481106200057957fe5b6000918252602090912001546001600160a01b03169150829050565b600260205281600052604060002081815481106200057957fe5b3360009081526002602052604090205460609081816001600160401b0381118015620005da57600080fd5b5060405190808252806020026020018201604052801562000605578160200160208202803683370190505b50905060005b828110156200067c573360009081526002602052604090208054829081106200063057fe5b9060005260206000200160009054906101000a90046001600160a01b03168282815181106200065b57fe5b6001600160a01b03909216602092830291909101909101526001016200060b565b509150505b90565b600060053360009081526001602052604090206002015460ff166007811115620006aa57fe5b14620006d35760405162461bcd60e51b8152600401620006ca9062002723565b60405180910390fd5b336000908152600b60205260409020805483908110620006ef57fe5b6000918252602090912001546001600160a01b031692915050565b6001602052600090815260409020805460029091015460ff81169061010090046001600160a01b031683565b6000546001600160a01b031633146200074e57600080fd5b6001600160a01b03811660009081526001602081815260409092208681558551620007829391909201919086019062001d22565b508160078111156200079057fe5b6001600160a01b03821660009081526001602081905260409091206002018054909160ff1990911690836007811115620007c657fe5b02179055506001600160a01b038116600081815260016020526040908190206002018054610100600160a81b0319166101008402179055517f33a7170f028b1e4f5ba321064a00ed820856a920c7f9c6636fbcf385427b1b0f906200082d90879062002662565b60405180910390a250505050565b60008585858585604051620008509062001d86565b62000860959493929190620025f3565b604051809103906000f0801580156200087d573d6000803e3d6000fd5b506001600160a01b0396871660009081526004602090815260408220805460018101825590835291200180546001600160a01b03191691909716179095555050505050565b6001600160a01b039081166000908152600960205260409020541690565b3360009081526007602052604090205460609081816001600160401b03811180156200090b57600080fd5b5060405190808252806020026020018201604052801562000936578160200160208202803683370190505b50905060005b828110156200067c573360009081526007602052604090208054829081106200096157fe5b9060005260206000200160009054906101000a90046001600160a01b03168282815181106200098c57fe5b6001600160a01b03909216602092830291909101909101526001016200093c565b60043360009081526001602052604090206002015460ff166007811115620009d157fe5b14620009f15760405162461bcd60e51b8152600401620006ca906200276b565b6040516307fb74db60e21b81526000906001600160a01b03851690631fedd36c9062000a2290339060040162002529565b602060405180830381600087803b15801562000a3d57600080fd5b505af115801562000a52573d6000803e3d6000fd5b505050506040513d601f19601f8201168201806040525081019062000a7891906200231d565b3360008181526007602090815260408083208054600181018255908452919092200180546001600160a01b0319166001600160a01b03891617905551919250429160008051602062005f0f8339815191529062000adb90879089908890620025bc565b60405180910390a350505050565b600760205281600052604060002081815481106200057957fe5b6000856001600160a01b03166001868686866040516000815260200160405260405162000b3494939291906200269c565b6020604051602081039080840390855afa15801562000b57573d6000803e3d6000fd5b505050602060405103516001600160a01b031614905095945050505050565b6001600160a01b039081166000908152600c60205260409020541690565b62000b9e62001d94565b6001600160a01b0382166000908152600160208181526040808420815160808101835281548152938101805483518186028101860190945280845294959194868501949192909184015b8282101562000c995760008481526020908190208301805460408051601f600260001961010060018716150201909416939093049283018590048502810185019091528181529283018282801562000c845780601f1062000c585761010080835404028352916020019162000c84565b820191906000526020600020905b81548152906001019060200180831162000c6657829003601f168201915b50505050508152602001906001019062000be8565b50505090825250600282015460209091019060ff16600781111562000cba57fe5b600781111562000cc657fe5b81526002919091015461010090046001600160a01b031660209091015292915050565b600c602052600090815260409020546001600160a01b031681565b60053360009081526001602052604090206002015460ff16600781111562000d2857fe5b14801562000db65750836001600160a01b031663abb428a66040518163ffffffff1660e01b815260040160606040518083038186803b15801562000d6b57600080fd5b505afa15801562000d80573d6000803e3d6000fd5b505050506040513d601f19601f8201168201806040525081019062000da69190620022a4565b602001516001600160a01b031633145b62000dd55760405162461bcd60e51b8152600401620006ca90620026ba565b6040516307fb74db60e21b81526000906001600160a01b03861690631fedd36c9062000e0690339060040162002529565b602060405180830381600087803b15801562000e2157600080fd5b505af115801562000e36573d6000803e3d6000fd5b505050506040513d601f19601f8201168201806040525081019062000e5c91906200231d565b9050806002141562000f8d57336000908152600a60209081526040808320805460018101825590845291832090910180546001600160a01b0319166001600160a01b03891690811790915581516355da145360e11b81529151909163abb428a6916004808301926060929190829003018186803b15801562000edd57600080fd5b505afa15801562000ef2573d6000803e3d6000fd5b505050506040513d601f19601f8201168201806040525081019062000f189190620022a4565b516001600160a01b03161462000f8d5760405163d7dcbe3b60e01b81526001600160a01b0385169063d7dcbe3b9062000f58908890339060040162002577565b600060405180830381600087803b15801562000f7357600080fd5b505af115801562000f88573d6000803e3d6000fd5b505050505b42336001600160a01b031660008051602062005f0f83398151915285888660405162000fbc93929190620025bc565b60405180910390a35050505050565b6005602090815260009182526040918290208054600180830180548651600293821615610100026000190190911692909204601f8101869004860283018601909652858252919492939092908301828280156200106c5780601f1062001040576101008083540402835291602001916200106c565b820191906000526020600020905b8154815290600101906020018083116200104e57829003601f168201915b505050505090806002015490806003015490806004018054600181600116156101000203166002900480601f0160208091040260200160405190810160405280929190818152602001828054600181600116156101000203166002900480156200111a5780601f10620010ee576101008083540402835291602001916200111a565b820191906000526020600020905b815481529060010190602001808311620010fc57829003601f168201915b5050505060058301805460408051602060026001851615610100026000190190941693909304601f8101849004840282018401909252818152949594935090830182828015620011ae5780601f106200118257610100808354040283529160200191620011ae565b820191906000526020600020905b8154815290600101906020018083116200119057829003601f168201915b5050505060068301805460408051602060026001851615610100026000190190941693909304601f8101849004840282018401909252818152949594935090830182828015620012425780601f10620012165761010080835404028352916020019162001242565b820191906000526020600020905b8154815290600101906020018083116200122457829003601f168201915b5050505060078301805460408051602060026001851615610100026000190190941693909304601f8101849004840282018401909252818152949594935090830182828015620012d65780601f10620012aa57610100808354040283529160200191620012d6565b820191906000526020600020905b815481529060010190602001808311620012b857829003601f168201915b5050505060088301805460408051602060026001851615610100026000190190941693909304601f81018490048402820184019092528181529495949350908301828280156200136a5780601f106200133e576101008083540402835291602001916200136a565b820191906000526020600020905b8154815290600101906020018083116200134c57829003601f168201915b5050505050905089565b600360205281600052604060002081815481106200057957fe5b600a60205281600052604060002081815481106200057957fe5b604051630a57332d60e31b81526001600160a01b038516906352b9996890620013d690869060040162002529565b600060405180830381600087803b158015620013f157600080fd5b505af115801562001406573d6000803e3d6000fd5b505050506001600160a01b0383811660009081526003602090815260408083208054600181018255908452919092200180546001600160a01b03191692871692909217909155514290339060008051602062005f0f8339815191529062000adb90869089908790620025bc565b3360009081526004602052604090205460609081816001600160401b03811180156200149e57600080fd5b50604051908082528060200260200182016040528015620014c9578160200160208202803683370190505b50905060005b828110156200067c57336000908152600460205260409020805482908110620014f457fe5b9060005260206000200160009054906101000a90046001600160a01b03168282815181106200151f57fe5b6001600160a01b0390921660209283029190910190910152600101620014cf565b600460205281600052604060002081815481106200057957fe5b6009602052600090815260409020546001600160a01b031681565b42836001600160a01b03167f22561ca0666e99052dd8231a6c5c337204ed5658c357aa6afcd53c207acfac6786858560405162000adb93929190620025bc565b60023360009081526001602052604090206002015460ff166007811115620015d957fe5b14620015f95760405162461bcd60e51b8152600401620006ca90620027b1565b600082116200161c5760405162461bcd60e51b8152600401620006ca90620027f8565b81600114156200168e5760405163638e9a3d60e01b81526001600160a01b0384169063638e9a3d906200165490339060040162002529565b600060405180830381600087803b1580156200166f57600080fd5b505af115801562001684573d6000803e3d6000fd5b505050506200176f565b8160021415620016c65760405163ac42a41560e01b81526001600160a01b0384169063ac42a415906200165490339060040162002529565b81600314156200170057604051630887851b60e31b81526001600160a01b0382169063443c28d89062001654908690339060040162002577565b81600414156200176f5760405163298abd8d60e11b81526001600160a01b038216906353157b1a906200173a908690339060040162002577565b600060405180830381600087803b1580156200175557600080fd5b505af11580156200176a573d6000803e3d6000fd5b505050505b505050565b3360009081526002602052604090205490565b600060053360009081526001602052604090206002015460ff166007811115620017ad57fe5b14620017cd5760405162461bcd60e51b8152600401620006ca9062002723565b50336000908152600b602052604090205490565b42826001600160a01b03167f31f87de04fd141167b8131be7a8ccb2bac63361a15671c96d90c39ddc9ef909d85878560405162000adb93929190620025bc565b42846001600160a01b03167f9151271dfe612a18bf915ee1609e6f94f62fd775c704a0ae2ef091519f0c9b3985858560405162000adb93929190620025bc565b336000908152600a602052604090205460609081816001600160401b03811180156200188c57600080fd5b50604051908082528060200260200182016040528015620018b7578160200160208202803683370190505b50905060005b828110156200067c57336000908152600a60205260409020805482908110620018e257fe5b9060005260206000200160009054906101000a90046001600160a01b03168282815181106200190d57fe5b6001600160a01b0390921660209283029190910190910152600101620018bd565b600083338484604051620019429062001dbc565b62001951949392919062002591565b604051809103906000f0801580156200196e573d6000803e3d6000fd5b5033600090815260086020908152604080832080546001810182559084528284200180546001600160a01b039586166001600160a01b0319918216811790925598909416835260099091529020805490951617909355505050565b3360009081526003602052604090205460609081816001600160401b0381118015620019f457600080fd5b5060405190808252806020026020018201604052801562001a1f578160200160208202803683370190505b50905060005b828110156200067c5733600090815260036020526040902080548290811062001a4a57fe5b9060005260206000200160009054906101000a90046001600160a01b031682828151811062001a7557fe5b6001600160a01b039092166020928302919091019091015260010162001a25565b60065481565b600080336002334260405160200162001ab7929190620024e9565b60408051601f198184030181529082905262001ad3916200250b565b602060405180830381855afa15801562001af1573d6000803e3d6000fd5b5050506040513d601f19601f8201168201806040525081019062001b1691906200231d565b60601c8787878760405162001b2b9062001dca565b62001b3c969594939291906200253d565b604051809103906000f08015801562001b59573d6000803e3d6000fd5b503360009081526002602090815260408220805460018101825590835291200180546001600160a01b0319166001600160a01b0383161790559695505050505050565b600b60205281600052604060002081815481106200057957fe5b60053360009081526001602052604090206002015460ff16600781111562001bda57fe5b14801562001c685750826001600160a01b031663abb428a66040518163ffffffff1660e01b815260040160606040518083038186803b15801562001c1d57600080fd5b505afa15801562001c32573d6000803e3d6000fd5b505050506040513d601f19601f8201168201806040525081019062001c589190620022a4565b602001516001600160a01b031633145b62001c875760405162461bcd60e51b8152600401620006ca90620026ba565b60008333848460405162001c9b9062001dd8565b62001caa949392919062002591565b604051809103906000f08015801562001cc7573d6000803e3d6000fd5b50336000908152600b6020908152604080832080546001810182559084528284200180546001600160a01b039586166001600160a01b03199182168117909255989094168352600c9091529020805490951617909355505050565b82805482825590600052602060002090810192821562001d74579160200282015b8281111562001d74578251805162001d6391849160209091019062001de6565b509160200191906001019062001d43565b5062001d8292915062001e67565b5090565b611bcd8062002a0683390190565b6040805160808101825260008082526060602083015290918201908152600060209091015290565b6103b880620045d383390190565b6111c8806200498b83390190565b6103bc8062005b5383390190565b828054600181600116156101000203166002900490600052602060002090601f016020900481019282601f1062001e2957805160ff191683800117855562001e59565b8280016001018555821562001e59579182015b8281111562001e5957825182559160200191906001019062001e3c565b5062001d8292915062001e8f565b6200068191905b8082111562001d8257600062001e85828262001eac565b5060010162001e6e565b6200068191905b8082111562001d82576000815560010162001e96565b50805460018160011615610100020316600290046000825580601f1062001ed4575062001ef4565b601f01602090049060005260206000209081019062001ef4919062001e8f565b50565b803562001f0481620029ef565b92915050565b600082601f83011262001f1b578081fd5b813562001f3262001f2c826200299c565b62002975565b81815291506020808301908481018184028601820187101562001f5457600080fd5b60005b8481101562001f8057813562001f6d81620029ef565b8452928201929082019060010162001f57565b505050505092915050565b600082601f83011262001f9c578081fd5b81356001600160401b0381111562001fb2578182fd5b62001fc7601f8201601f191660200162002975565b915080825283602082850101111562001fdf57600080fd5b8060208401602084013760009082016020015292915050565b6000602082840312156200200a578081fd5b81356200201781620029ef565b9392505050565b60008060006060848603121562002033578182fd5b83356200204081620029ef565b925060208401356200205281620029ef565b915060408401356200206481620029ef565b809150509250925092565b6000806000806080858703121562002085578081fd5b84356200209281620029ef565b93506020850135620020a481620029ef565b92506040850135620020b681620029ef565b915060608501356001600160401b03811115620020d1578182fd5b620020df8782880162001f8b565b91505092959194509250565b60008060006060848603121562002100578283fd5b83356200210d81620029ef565b925060208401356200211f81620029ef565b915060408401356001600160401b038111156200213a578182fd5b620021488682870162001f8b565b9150509250925092565b600080600080600060a086880312156200216a578081fd5b85356200217781620029ef565b94506020860135935060408601356001600160401b03808211156200219a578283fd5b620021a889838a0162001f0a565b9450606088013593506080880135915080821115620021c5578283fd5b50620021d48882890162001f0a565b9150509295509295909350565b600080600080600060a08688031215620021f9578081fd5b85356200220681620029ef565b945060208601359350604086013560ff8116811462002223578182fd5b94979396509394606081013594506080013592915050565b600080604083850312156200224e578182fd5b82356200225b81620029ef565b946020939093013593505050565b6000806000606084860312156200227e578081fd5b83356200228b81620029ef565b92506020840135915060408401356200206481620029ef565b600060608284031215620022b6578081fd5b82601f830112620022c5578081fd5b620022d1606062002975565b808385606086011115620022e3578384fd5b835b600381101562002312578151620022fc81620029ef565b84526020938401939190910190600101620022e5565b509095945050505050565b6000602082840312156200232f578081fd5b5051919050565b600080600080608085870312156200234c578182fd5b843593506020808601356001600160401b038111156200236a578384fd5b80870188601f8201126200237c578485fd5b803591506200238f62001f2c836200299c565b82815283810190828501875b85811015620023c857620023b58d88843588010162001f8b565b845292860192908601906001016200239b565b5050809750505050505060408501359150620023e8866060870162001ef7565b905092959194509250565b6000806000806080858703121562002409578182fd5b843593506020850135925060408501356200242481620029ef565b915060608501356200243681620029ef565b939692955090935050565b60006020828403121562002453578081fd5b5035919050565b6001600160a01b03169052565b6000815180845260208085019450808401835b83811015620024a15781516001600160a01b0316875295820195908201906001016200247a565b509495945050505050565b60008151808452620024c6816020860160208601620029bc565b601f01601f19169290920160200192915050565b60088110620024e557fe5b9052565b60609290921b6bffffffffffffffffffffffff19168252601482015260340190565b600082516200251f818460208701620029bc565b9190910192915050565b6001600160a01b0391909116815260200190565b6001600160a01b0396871681529486166020860152604085019390935260608401919091528316608083015290911660a082015260c00190565b6001600160a01b0392831681529116602082015260400190565b6001600160a01b03948516815292841660208401529083166040830152909116606082015260800190565b6001600160a01b03848116825283166020820152606060408201819052600090620025ea90830184620024ac565b95945050505050565b600060018060a01b038716825285602083015260a060408301526200261c60a083018662002467565b846060840152828103608084015262002636818562002467565b98975050505050505050565b60006020825262002017602083018462002467565b901515815260200190565b90815260200190565b83815260608101600884106200267d57fe5b60208201939093526001600160a01b0391909116604090910152919050565b93845260ff9290921660208401526040830152606082015260800190565b60208082526043908201527f4f6e6c79204469737472696275746f72206f722063757272656e74206f776e6560408201527f72206f66207061636b6167652063616e2063616c6c20746869732066756e637460608201526234b7b760e91b608082015260a00190565b60208082526028908201527f4f6e6c79204469737472696275746f722043616e2063616c6c207468697320666040820152673ab731ba34b7b71760c11b606082015260800190565b60208082526026908201527f4f6e6c792057686f6c6573616c65722063616e2063616c6c20746869732066756040820152653731ba34b7b760d11b606082015260800190565b60208082526027908201527f4f6e6c79205472616e73706f727465722063616e2063616c6c207468697320666040820152663ab731ba34b7b760c91b606082015260800190565b6020808252601d908201527f5472616e73706f72746572205479706520697320696e636f7272656374000000604082015260600190565b60208082528251828201528281015160806040840152805160a084018190526000929160c0828402860181019285929187019185015b81841015620028995760bf1988860301835262002884858251620024ac565b94506001939093019291850191850162002865565b5050505060408501519150620028b36060850183620024da565b60608501519150620028c960808501836200245a565b949350505050565b60006101208b8352806020840152620028ed8184018c620024ac565b8a604085015289606085015283810360808501526200290d818a620024ac565b91505082810360a0840152620029248188620024ac565b83810360c0850152620029388188620024ac565b91505082810360e08401526200294f8186620024ac565b838103610100850152620029648186620024ac565b9d9c50505050505050505050505050565b6040518181016001600160401b03811182821017156200299457600080fd5b604052919050565b60006001600160401b03821115620029b2578081fd5b5060209081020190565b60005b83811015620029d9578181015183820152602001620029bf565b83811115620029e9576000848401525b50505050565b6001600160a01b038116811462001ef457600080fdfe60806040523480156200001157600080fd5b5060405162001bcd38038062001bcd833981810160405260a08110156200003757600080fd5b815160208301516040808501805191519395929483019291846401000000008211156200006357600080fd5b9083019060208201858111156200007957600080fd5b82518660208202830111640100000000821117156200009757600080fd5b82525081516020918201928201910280838360005b83811015620000c6578181015183820152602001620000ac565b505050509050016040526020018051906020019092919080516040519392919084640100000000821115620000fa57600080fd5b9083019060208201858111156200011057600080fd5b82518660208202830111640100000000821117156200012e57600080fd5b82525081516020918201928201910280838360005b838110156200015d57818101518382015260200162000143565b50505050919091016040525050600080546001600160a01b0389166001600160a01b03199182168117909255600480549091169091179055505060018490558251620001b190600290602086019062000268565b5060088290558051620001cc90600390602084019062000268565b50600580546001600160a01b03199081169091556006805490911690556009805460ff1916905560405160009086906200020690620002d2565b6001600160a01b03909116815260405190819003602001906000f08015801562000234573d6000803e3d6000fd5b50600980546001600160a01b0390921661010002610100600160a81b0319909216919091179055506200030a945050505050565b828054828255906000526020600020908101928215620002c0579160200282015b82811115620002c057825182546001600160a01b0319166001600160a01b0390911617825560209092019160019091019062000289565b50620002ce929150620002e0565b5090565b610b63806200106a83390190565b6200030791905b80821115620002ce5780546001600160a01b0319168155600101620002e7565b90565b610d50806200031a6000396000f3fe608060405234801561001057600080fd5b50600436106100ca5760003560e01c8063ac42a4151161007c578063ac42a41514610278578063c50fb2031461029e578063c8f5f189146102a6578063d2f3fcc7146102cc578063e002c8a5146102d4578063e138d4ce146103ee578063f5c0e38314610414576100ca565b80631fedd36c146100cf5780632f1d75881461010757806393a668b71461013757806396991e791461015d57806397bcb41014610183578063aab3a9d614610212578063abb428a614610238575b600080fd5b6100f5600480360360208110156100e557600080fd5b50356001600160a01b0316610442565b60408051918252519081900360200190f35b6101356004803603604081101561011d57600080fd5b506001600160a01b038135811691602001351661066d565b005b6101356004803603602081101561014d57600080fd5b50356001600160a01b03166106f6565b6101356004803603602081101561017357600080fd5b50356001600160a01b0316610763565b6101a06004803603602081101561019957600080fd5b5035610785565b604080518981526001600160a01b03808a166020830152888116928201929092528682166060820152908516608082015260a0810184905260c081018360068111156101e857fe5b60ff1681526001600160a01b03909216602083015250604080519182900301975095505050505050f35b6101356004803603602081101561022857600080fd5b50356001600160a01b03166107df565b610240610831565b6040518082606080838360005b8381101561026557818101518382015260200161024d565b5050505090500191505060405180910390f35b6101356004803603602081101561028e57600080fd5b50356001600160a01b031661086c565b6100f56109ed565b610135600480360360208110156102bc57600080fd5b50356001600160a01b03166109f3565b6100f5610a5c565b6102dc610a75565b604051808a6001600160a01b03166001600160a01b031681526020018981526020018060200188815260200180602001876001600160a01b03166001600160a01b03168152602001868152602001856001600160a01b03166001600160a01b03168152602001846001600160a01b03166001600160a01b0316815260200183810383528a818151815260200191508051906020019060200280838360005b8381101561039257818101518382015260200161037a565b50505050905001838103825288818151815260200191508051906020019060200280838360005b838110156103d15781810151838201526020016103b9565b505050509050019b50505050505050505050505060405180910390f35b6101356004803603602081101561040457600080fd5b50356001600160a01b0316610bab565b6101356004803603604081101561042a57600080fd5b506001600160a01b0381358116916020013516610bcd565b6005546000906001600160a01b038381169116148061046e57506006546001600160a01b038381169116145b6104a95760405162461bcd60e51b8152600401808060200182810382526035815260200180610c7a6035913960400191505060405180910390fd5b60095460019060ff1660068111156104bd57fe5b101561050c576040805162461bcd60e51b8152602060048201526019602482015278141c9bd91d58dd081b9bdd081c1a58dad959081d5c081e595d603a1b604482015290519081900360640190fd5b6005546001600160a01b0383811691161480156105395750600160095460ff16600681111561053757fe5b145b156105bd576009805460ff1916600390811790915560055481546001600160a01b039091169190600019810190811061056e57fe5b60009182526020918290200154604080516002815260039381019390935280516001600160a01b03909216923092600080516020610c5a833981519152929181900390910190a4506001610668565b6006546001600160a01b0383811691161480156105ea5750600260095460ff1660068111156105e857fe5b145b15610668576009805460ff19166004179055600654600380546001600160a01b0390921691600019810190811061061d57fe5b60009182526020918290200154604080516003815260049381019390935280516001600160a01b03909216923092600080516020610c5a833981519152929181900390910190a45060025b919050565b6006546001600160a01b038281169116146106b95760405162461bcd60e51b8152600401808060200182810382526023815260200180610cd16023913960400191505060405180910390fd5b600780546001600160a01b0319166001600160a01b03841617905560055b6009805460ff191660018360068111156106ed57fe5b02179055505050565b6006546001600160a01b038281169116146107425760405162461bcd60e51b8152600401808060200182810382526023815260200180610cd16023913960400191505060405180910390fd5b60045b6009805460ff1916600183600681111561075b57fe5b021790555050565b600680546001600160a01b0319166001600160a01b0392909216919091179055565b600b60205260009081526040902080546003820154600483015460058401546006850154600786015460089096015494956001600160a01b0394851695938516949283169391831692909160ff8116916101009091041688565b600380546001810182556000919091527fc2575a0e9e593c00f959f8c92f12db2869c3395a3b0502d05e2516446f71f85b0180546001600160a01b0319166001600160a01b0392909216919091179055565b610839610c3b565b50604080516060810182526005546001600160a01b03908116825260065481166020830152600754169181019190915290565b60038054600019810190811061087e57fe5b6000918252602090912001546001600160a01b038281169116146108d35760405162461bcd60e51b8152600401808060200182810382526027815260200180610cf46027913960400191505060405180910390fd5b600060095460ff1660068111156108e657fe5b14610938576040805162461bcd60e51b815260206004820181905260248201527f5061636b616765206d757374206265206174204d616e7566616374757265722e604482015290519081900360640190fd5b6005546001600160a01b03161561099b576009805460ff1916600190811790915560055460408051838152602081019390935280516001600160a01b0392831693928516923092600080516020610c5a83398151915292918290030190a46109ea565b6009805460ff191660029081179091556006546040805160018152602081019390935280516001600160a01b0392831693928516923092600080516020610c5a83398151915292918290030190a45b50565b600a5481565b6007546001600160a01b03828116911614610a55576040805162461bcd60e51b815260206004820181905260248201527f5468697320437573746f6d6572206973206e6f74204173736f6369617465642e604482015290519081900360640190fd5b6006610745565b60095460009060ff166006811115610a7057fe5b905090565b6004546001546008546006805460095460009586956060958795879587958695869586956001600160a01b03928316959194600294919360039391169160ff1690811115610abf57fe5b6009546005548654604080516020808402820181019092528281526101009094046001600160a01b0390811694931692918991830182828015610b2b57602002820191906000526020600020905b81546001600160a01b03168152600190910190602001808311610b0d575b5050505050965084805480602002602001604051908101604052809291908181526020018280548015610b8757602002820191906000526020600020905b81546001600160a01b03168152600190910190602001808311610b69575b50505050509450985098509850985098509850985098509850909192939495969798565b600580546001600160a01b0319166001600160a01b0392909216919091179055565b6005546001600160a01b03828116911614610c195760405162461bcd60e51b8152600401808060200182810382526022815260200180610caf6022913960400191505060405180910390fd5b600680546001600160a01b0319166001600160a01b03841617905560026106d7565b6040518060600160405280600390602082028036833750919291505056fe7e89c4b1a4e2b51aae84eb1f90e8a34cb792ece5ac5cb63db4830c891220b28d4f6e6c792057686f6c6573616c6572206f72204469737472696275746f722063616e2063616c6c20746869732066756e6374696f6e746869732057686f6c6573616c6572206973206e6f74204173736f6369617465642e54686973204469737472696275746f72206973206e6f74204173736f6369617465642e4f6e6c79205472616e73706f727465722063616e2063616c6c20746869732066756e6374696f6ea2646970667358221220dba45bda14878750b2efe8143003cb62d0e922091f37efcf142583ec6ea9142364736f6c634300060600336080604052600060025534801561001557600080fd5b50604051610b63380380610b6383398101604081905261003491610059565b600080546001600160a01b0319166001600160a01b0392909216919091179055610087565b60006020828403121561006a578081fd5b81516001600160a01b0381168114610080578182fd5b9392505050565b610acd806100966000396000f3fe608060405234801561001057600080fd5b506004361061004c5760003560e01c806327506f53146100515780633626a3681461006f57806378ce1365146100845780639ace38c214610099575b600080fd5b6100596100bf565b60405161006691906108b6565b60405180910390f35b61008261007d3660046107bb565b6102c7565b005b61008c61050b565b6040516100669190610a76565b6100ac6100a7366004610853565b610511565b604051610066979695949392919061097f565b600254606090818167ffffffffffffffff811180156100dd57600080fd5b5060405190808252806020026020018201604052801561011757816020015b61010461066a565b8152602001906001900390816100fc5790505b50905060005b828110156102bf57600081815260016020818152604092839020835160e08101855281548152818401546001600160a01b0390811682850152600280840154909116828701526003830154606083015260048301805487516101009782161597909702600019011691909104601f81018590048502860185019096528585529094919360808601939092908301828280156101f95780601f106101ce576101008083540402835291602001916101f9565b820191906000526020600020905b8154815290600101906020018083116101dc57829003601f168201915b505050918352505060058201805460408051602060026001851615610100026000190190941693909304601f810184900484028201840190925281815293820193929183018282801561028d5780601f106102625761010080835404028352916020019161028d565b820191906000526020600020905b81548152906001019060200180831161027057829003601f168201915b505050505081526020016006820154815250508282815181106102ac57fe5b602090810291909101015260010161011d565b509150505b90565b60025442906103a6576040805160e0810182528881526001600160a01b038089166020808401918252898316848601908152606085018a8152608086018a815260a087018a905260c08701899052600280546000908152600180875299902088518155955198860180549988166001600160a01b03199a8b1617905592519285018054939096169290971691909117909355915160038201559251805192939261037792600485019201906106a5565b5060a082015180516103939160058401916020909101906106a5565b5060c082015181600601559050506104b5565b6002546000190160009081526001602052604090205484146103e35760405162461bcd60e51b81526004016103da90610a3f565b60405180910390fd5b6040805160e0810182528881526001600160a01b038089166020808401918252898316848601908152606085018a8152608086018a815260a087018a905260c08701899052600280546000908152600180875299902088518155955198860180549988166001600160a01b03199a8b1617905592519285018054939096169290971691909117909355915160038201559251805192939261048a92600485019201906106a5565b5060a082015180516104a69160058401916020909101906106a5565b5060c082015181600601559050505b6002805460010190556040517f30d01d358fb0899fe4d50947b2e9301c952d9eed09b14c7ecdcbeed4434557c4906104fa90899089908990899087908a908a906109df565b60405180910390a150505050505050565b60025481565b60016020818152600092835260409283902080548184015460028084015460038501546004860180548a516101009a8216159a909a02600019011693909304601f810188900488028901880190995288885293976001600160a01b039384169793909116959394938301828280156105ca5780601f1061059f576101008083540402835291602001916105ca565b820191906000526020600020905b8154815290600101906020018083116105ad57829003601f168201915b5050505060058301805460408051602060026001851615610100026000190190941693909304601f810184900484028201840190925281815294959493509083018282801561065a5780601f1061062f5761010080835404028352916020019161065a565b820191906000526020600020905b81548152906001019060200180831161063d57829003601f168201915b5050505050908060060154905087565b6040805160e08101825260008082526020820181905291810182905260608082018390526080820181905260a082015260c081019190915290565b828054600181600116156101000203166002900490600052602060002090601f016020900481019282601f106106e657805160ff1916838001178555610713565b82800160010185558215610713579182015b828111156107135782518255916020019190600101906106f8565b5061071f929150610723565b5090565b6102c491905b8082111561071f5760008155600101610729565b600082601f83011261074d578081fd5b813567ffffffffffffffff80821115610764578283fd5b604051601f8301601f191681016020018281118282101715610784578485fd5b60405282815292508284830160200186101561079f57600080fd5b8260208601602083013760006020848301015250505092915050565b60008060008060008060c087890312156107d3578182fd5b8635955060208701356107e581610a7f565b945060408701356107f581610a7f565b935060608701359250608087013567ffffffffffffffff80821115610818578384fd5b6108248a838b0161073d565b935060a0890135915080821115610839578283fd5b5061084689828a0161073d565b9150509295509295509295565b600060208284031215610864578081fd5b5035919050565b60008151808452815b8181101561089057602081850181015186830182015201610874565b818111156108a15782602083870101525b50601f01601f19169290920160200192915050565b60208082528251828201819052600091906040908185019080840286018301878501865b8381101561097157888303603f19018552815180518452878101516001600160a01b03908116898601528782015116878501526060808201519085015260808082015160e082870181905291906109338388018261086b565b91505060a09150818301518682038388015261094f828261086b565b60c09485015197909401969096525050948701949250908601906001016108da565b509098975050505050505050565b8781526001600160a01b038781166020830152861660408201526060810185905260e0608082018190526000906109b89083018661086b565b82810360a08401526109ca818661086b565b9150508260c083015298975050505050505050565b8781526001600160a01b03878116602083015286166040820152606081018590526080810184905260e060a08201819052600090610a1f9083018561086b565b82810360c0840152610a31818561086b565b9a9950505050505050505050565b6020808252601b908201527f5472616e73616374696f6e206572726f72206f63637572726564210000000000604082015260600190565b90815260200190565b6001600160a01b0381168114610a9457600080fd5b5056fea2646970667358221220c6c2c5de3ad14cf38cf88b4f614921580977e7335ab6d4e2461cd9ff38b5fa8264736f6c63430006060033608060405234801561001057600080fd5b506040516103b83803806103b88339818101604052608081101561003357600080fd5b50805160208201516040830151606090930151600080546001600160a01b03199081166001600160a01b03948516908117835560018054831696861696909617909555600280548216909517909455600380548516958416959095179094556004805490931691161760ff60a01b191690556103039081906100b590396000f3fe608060405234801561001057600080fd5b50600436106100415760003560e01c8063443c28d814610046578063d2f3fcc714610076578063d7dcbe3b14610090575b600080fd5b6100746004803603604081101561005c57600080fd5b506001600160a01b03813581169160200135166100be565b005b61007e610190565b60408051918252519081900360200190f35b610074600480360360408110156100a657600080fd5b506001600160a01b03813581169160200135166101b0565b6003546001600160a01b0382811691161461010a5760405162461bcd60e51b815260040180806020018281038252602f81526020018061029f602f913960400191505060405180910390fd5b6004805460ff60a01b1916600160a01b178082556002546040805163f5c0e38360e01b81526001600160a01b03938416948101949094529082166024840152519084169163f5c0e38391604480830192600092919082900301818387803b15801561017457600080fd5b505af1158015610188573d6000803e3d6000fd5b505050505050565b600454600090600160a01b900460ff1660028111156101ab57fe5b905090565b6004546001600160a01b038281169116146101fc5760405162461bcd60e51b815260040180806020018281038252603081526020018061026f6030913960400191505060405180910390fd5b600480546002919060ff60a01b1916600160a01b830217905550816001600160a01b03166393a668b7826040518263ffffffff1660e01b815260040180826001600160a01b03166001600160a01b03168152602001915050600060405180830381600087803b15801561017457600080fdfe4f6e6c79204173736f6369617465642072656365697665722063616e2063616c6c20746869732066756e6374696f6e2e4f6e6c79204173736f63696174656420736869707065722063616e2063616c6c20746869732066756e6374696f6e2ea2646970667358221220e231d56883b46389d5f4df87d3cc0bd140a7d3e11c6fa87eed5bee575b38ef4264736f6c63430006060033608060405234801561001057600080fd5b506040516111c83803806111c883398101604081905261002f91610100565b600080546001600160a01b03199081166001600160a01b0389811691821784556001805484168a831617905560028890556003879055600480548416878316179055600580548416918616919091179055600680549092161760ff60a01b19169055604051829061009f906100f3565b6100a99190610173565b604051809103906000f0801580156100c5573d6000803e3d6000fd5b50600880546001600160a01b0319166001600160a01b03929092169190911790555061019f95505050505050565b610b638061066583390190565b60008060008060008060c08789031215610118578182fd5b865161012381610187565b602088015190965061013481610187565b809550506040870151935060608701519250608087015161015481610187565b60a088015190925061016581610187565b809150509295509295509295565b6001600160a01b0391909116815260200190565b6001600160a01b038116811461019c57600080fd5b50565b6104b7806101ae6000396000f3fe608060405234801561001057600080fd5b50600436106100575760003560e01c806350e073bc1461005c57806352b9996814610071578063638e9a3d146100845780636b099dca1461009757806380723520146100b5575b600080fd5b61006f61006a3660046102e8565b6100d0565b005b61006f61007f3660046102e8565b6100f2565b61006f6100923660046102e8565b6101cd565b61009f610293565b6040516100ac9190610478565b60405180910390f35b6100bd6102b3565b6040516100ac9796959493929190610316565b600580546001600160a01b0319166001600160a01b0392909216919091179055565b6005546001600160a01b038281169116146101285760405162461bcd60e51b815260040161011f90610398565b60405180910390fd5b6001600654600160a01b900460ff16600281111561014257fe5b1461015f5760405162461bcd60e51b815260040161011f90610365565b6006805460ff60a01b1916600160a11b179055600554600454600180546040516001600160a01b039485169493841693909116917f7e89c4b1a4e2b51aae84eb1f90e8a34cb792ece5ac5cb63db4830c891220b28d916101c29190600290610357565b60405180910390a450565b6004546001600160a01b038281169116146101fa5760405162461bcd60e51b815260040161011f90610428565b6000600654600160a01b900460ff16600281111561021457fe5b146102315760405162461bcd60e51b815260040161011f906103f1565b6006805460ff60a01b1916600160a01b179055600554600454600180546040516001600160a01b039485169493841693909116917f7e89c4b1a4e2b51aae84eb1f90e8a34cb792ece5ac5cb63db4830c891220b28d916101c291908190610357565b600654600090600160a01b900460ff1660028111156102ae57fe5b905090565b6001546002546003546006546004546005546008546001600160a01b0396871697959694959385169492831693918316921690565b6000602082840312156102f9578081fd5b81356001600160a01b038116811461030f578182fd5b9392505050565b6001600160a01b03978816815260208101969096526040860194909452918516606085015284166080840152831660a083015290911660c082015260e00190565b918252602082015260400190565b602080825260199082015278141c9bd91d58dd081b9bdd081c1a58dad959081d5c081e595d603a1b604082015260600190565b60208082526039908201527f4f6e6c79204d616e756661637475726572206f6620746865207061636b6167656040820152782063616e20726563656965766520746865207061636b61676560381b606082015260800190565b6020808252601c908201527f5061636b616765206d75737420626520617420537570706c6965722e00000000604082015260600190565b60208082526030908201527f4f6e6c79207472616e73706f72746572206f6620746865207061636b6167652060408201526f63616e207069636b207061636b61676560801b606082015260800190565b9081526020019056fea264697066735822122013cad4dc0656dc075b5641cb18ae87efe7d7f216e4c11365c0a4d07279fc183564736f6c634300060600336080604052600060025534801561001557600080fd5b50604051610b63380380610b6383398101604081905261003491610059565b600080546001600160a01b0319166001600160a01b0392909216919091179055610087565b60006020828403121561006a578081fd5b81516001600160a01b0381168114610080578182fd5b9392505050565b610acd806100966000396000f3fe608060405234801561001057600080fd5b506004361061004c5760003560e01c806327506f53146100515780633626a3681461006f57806378ce1365146100845780639ace38c214610099575b600080fd5b6100596100bf565b60405161006691906108b6565b60405180910390f35b61008261007d3660046107bb565b6102c7565b005b61008c61050b565b6040516100669190610a76565b6100ac6100a7366004610853565b610511565b604051610066979695949392919061097f565b600254606090818167ffffffffffffffff811180156100dd57600080fd5b5060405190808252806020026020018201604052801561011757816020015b61010461066a565b8152602001906001900390816100fc5790505b50905060005b828110156102bf57600081815260016020818152604092839020835160e08101855281548152818401546001600160a01b0390811682850152600280840154909116828701526003830154606083015260048301805487516101009782161597909702600019011691909104601f81018590048502860185019096528585529094919360808601939092908301828280156101f95780601f106101ce576101008083540402835291602001916101f9565b820191906000526020600020905b8154815290600101906020018083116101dc57829003601f168201915b505050918352505060058201805460408051602060026001851615610100026000190190941693909304601f810184900484028201840190925281815293820193929183018282801561028d5780601f106102625761010080835404028352916020019161028d565b820191906000526020600020905b81548152906001019060200180831161027057829003601f168201915b505050505081526020016006820154815250508282815181106102ac57fe5b602090810291909101015260010161011d565b509150505b90565b60025442906103a6576040805160e0810182528881526001600160a01b038089166020808401918252898316848601908152606085018a8152608086018a815260a087018a905260c08701899052600280546000908152600180875299902088518155955198860180549988166001600160a01b03199a8b1617905592519285018054939096169290971691909117909355915160038201559251805192939261037792600485019201906106a5565b5060a082015180516103939160058401916020909101906106a5565b5060c082015181600601559050506104b5565b6002546000190160009081526001602052604090205484146103e35760405162461bcd60e51b81526004016103da90610a3f565b60405180910390fd5b6040805160e0810182528881526001600160a01b038089166020808401918252898316848601908152606085018a8152608086018a815260a087018a905260c08701899052600280546000908152600180875299902088518155955198860180549988166001600160a01b03199a8b1617905592519285018054939096169290971691909117909355915160038201559251805192939261048a92600485019201906106a5565b5060a082015180516104a69160058401916020909101906106a5565b5060c082015181600601559050505b6002805460010190556040517f30d01d358fb0899fe4d50947b2e9301c952d9eed09b14c7ecdcbeed4434557c4906104fa90899089908990899087908a908a906109df565b60405180910390a150505050505050565b60025481565b60016020818152600092835260409283902080548184015460028084015460038501546004860180548a516101009a8216159a909a02600019011693909304601f810188900488028901880190995288885293976001600160a01b039384169793909116959394938301828280156105ca5780601f1061059f576101008083540402835291602001916105ca565b820191906000526020600020905b8154815290600101906020018083116105ad57829003601f168201915b5050505060058301805460408051602060026001851615610100026000190190941693909304601f810184900484028201840190925281815294959493509083018282801561065a5780601f1061062f5761010080835404028352916020019161065a565b820191906000526020600020905b81548152906001019060200180831161063d57829003601f168201915b5050505050908060060154905087565b6040805160e08101825260008082526020820181905291810182905260608082018390526080820181905260a082015260c081019190915290565b828054600181600116156101000203166002900490600052602060002090601f016020900481019282601f106106e657805160ff1916838001178555610713565b82800160010185558215610713579182015b828111156107135782518255916020019190600101906106f8565b5061071f929150610723565b5090565b6102c491905b8082111561071f5760008155600101610729565b600082601f83011261074d578081fd5b813567ffffffffffffffff80821115610764578283fd5b604051601f8301601f191681016020018281118282101715610784578485fd5b60405282815292508284830160200186101561079f57600080fd5b8260208601602083013760006020848301015250505092915050565b60008060008060008060c087890312156107d3578182fd5b8635955060208701356107e581610a7f565b945060408701356107f581610a7f565b935060608701359250608087013567ffffffffffffffff80821115610818578384fd5b6108248a838b0161073d565b935060a0890135915080821115610839578283fd5b5061084689828a0161073d565b9150509295509295509295565b600060208284031215610864578081fd5b5035919050565b60008151808452815b8181101561089057602081850181015186830182015201610874565b818111156108a15782602083870101525b50601f01601f19169290920160200192915050565b60208082528251828201819052600091906040908185019080840286018301878501865b8381101561097157888303603f19018552815180518452878101516001600160a01b03908116898601528782015116878501526060808201519085015260808082015160e082870181905291906109338388018261086b565b91505060a09150818301518682038388015261094f828261086b565b60c09485015197909401969096525050948701949250908601906001016108da565b509098975050505050505050565b8781526001600160a01b038781166020830152861660408201526060810185905260e0608082018190526000906109b89083018661086b565b82810360a08401526109ca818661086b565b9150508260c083015298975050505050505050565b8781526001600160a01b03878116602083015286166040820152606081018590526080810184905260e060a08201819052600090610a1f9083018561086b565b82810360c0840152610a31818561086b565b9a9950505050505050505050565b6020808252601b908201527f5472616e73616374696f6e206572726f72206f63637572726564210000000000604082015260600190565b90815260200190565b6001600160a01b0381168114610a9457600080fd5b5056fea2646970667358221220c6c2c5de3ad14cf38cf88b4f614921580977e7335ab6d4e2461cd9ff38b5fa8264736f6c63430006060033608060405234801561001057600080fd5b506040516103bc3803806103bc8339818101604052608081101561003357600080fd5b50805160208201516040830151606090930151600080546001600160a01b03199081166001600160a01b03948516908117835560018054831696861696909617909555600280548216909517909455600380548516958416959095179094556004805490931691161760ff60a01b191690556103079081906100b590396000f3fe608060405234801561001057600080fd5b50600436106100415760003560e01c806353157b1a14610046578063c0114d0614610076578063f7addc3e14610090575b600080fd5b6100746004803603604081101561005c57600080fd5b506001600160a01b03813581169160200135166100be565b005b61007e610190565b60408051918252519081900360200190f35b610074600480360360408110156100a657600080fd5b506001600160a01b03813581169160200135166101b0565b6003546001600160a01b0382811691161461010a5760405162461bcd60e51b815260040180806020018281038252603381526020018061026f6033913960400191505060405180910390fd5b6004805460ff60a01b1916600160a01b17808255600254604080516305e3aeb160e31b81526001600160a01b039384169481019490945290821660248401525190841691632f1d758891604480830192600092919082900301818387803b15801561017457600080fd5b505af1158015610188573d6000803e3d6000fd5b505050505050565b600454600090600160a01b900460ff1660028111156101ab57fe5b905090565b6004546001600160a01b038281169116146101fc5760405162461bcd60e51b81526004018080602001828103825260308152602001806102a26030913960400191505060405180910390fd5b600480546002919060ff60a01b1916600160a01b830217905550816001600160a01b031663c8f5f189826040518263ffffffff1660e01b815260040180826001600160a01b03166001600160a01b03168152602001915050600060405180830381600087803b15801561017457600080fdfe4f6e6c79204173736f636961746564207472616e73706f727465722063616e2063616c6c20746869732066756e6374696f6e2e4f6e6c79204173736f6369617465642072656365697665722063616e2063616c6c20746869732066756e6374696f6e2ea264697066735822122041c723893d0b1bffdc6645e390cf32c4f27c9719336e0c15f90eeb0876b0ee6164736f6c63430006060033cfbd3a658e0a38877312e3f5767ddb0c6541620d7bd0368d43e0b94a55d9876ea2646970667358221220fc4694c29f5b45e066f32b65f57368724886f9dcf0998b4d22c3be47c596244664736f6c63430006060033",
  "immutableReferences": {},
  "source": "pragma solidity >=0.4.21 <0.7.0;\r\n// pragma solidity >=0.6.0 < 0.8.0;\r\npragma experimental ABIEncoderV2;\r\n\r\nimport './RawMaterial.sol';\r\n// import './Supplier.sol';\r\n// import './Transporter.sol';\r\nimport './Medicine.sol';\r\n// import './Manufacturer.sol';\r\nimport './MedicineW_D.sol';\r\n// import './Wholesaler.sol';\r\nimport './MedicineD_C.sol';\r\n// import './Distributor.sol';\r\n// import './Customer.sol';\r\n// import './SideEffectsContract.sol';\r\n// import './ResearcherContract.sol';\r\n\r\n\r\n\r\n//// New supply chain : supplier -> transporter -> manufacturer -> transporter -> whole-saler -> transporter -> distributor -> transporter -> customer/hospital/pharmacy\r\n\r\ncontract SupplyChain {\r\n    \r\n    address Owner;\r\n\r\n    // SideEffectsContract public sideEffectsContract;\r\n    // ResearcherContract public researcherContract;\r\n    \r\n    constructor() public {\r\n        Owner = msg.sender;\r\n    }\r\n    \r\n    modifier onlyOwner() {\r\n        require(Owner == msg.sender);\r\n        _;\r\n    }\r\n    \r\n    modifier checkUser(address addr) {\r\n        require(addr == msg.sender);\r\n        _;\r\n    }\r\n    \r\n    enum roles {\r\n        noRole,\r\n        supplier,\r\n        transporter,\r\n        manufacturer,\r\n        wholesaler,\r\n        distributor,\r\n        customer,\r\n        Researcher\r\n    }\r\n\r\n    // address addressSide;\r\n\r\n    // function setAddress(address _addressSide) external {\r\n    //     addressSide = _addressSide;\r\n    // }\r\n\r\n    // function reportSideEffects(uint _medicineId,\r\n    //     uint _age,\r\n    //     string memory _gender,\r\n    //     string memory _location,\r\n    //     string memory _sideEffectsDescription,\r\n    //     string memory _pastDiseases) external {}\r\n\r\n    \r\n\r\n    // constructor() public {\r\n    //     sideEffectsContract = new SideEffectsContract();\r\n    //     researcherContract = new ResearcherContract();\r\n    // }\r\n\r\n\r\n      \r\n    \r\n    //////////////// Events ////////////////////\r\n    \r\n    event UserRegister(address indexed _address, bytes32 name);\r\n    event buyEvent(address buyer, address indexed seller, address packageAddr, bytes signature, uint indexed timestamp);\r\n    event respondEvent(address indexed buyer, address seller, address packageAddr, bytes signature, uint indexed timestamp);\r\n    event sendEvent(address seller, address buyer, address indexed packageAddr, bytes signature, uint indexed timestamp);\r\n    event receivedEvent(address indexed buyer, address seller, address packageAddr, bytes signature, uint indexed timestamp);\r\n    event SideEffectsReported(\r\n        address indexed PatientAddress,\r\n        uint indexed MedicineId,\r\n        uint Age,\r\n        string Gender,\r\n        string Location,\r\n        string SideEffectsDescription,\r\n        string PastDiseases\r\n    );\r\n    \r\n    \r\n    //////////////// Event functions (All entities) ////////////////////\r\n\r\n    \r\n    function requestProduct(address buyer, address seller, address packageAddr, bytes memory signature) public {\r\n        emit buyEvent(buyer, seller, packageAddr, signature, now);\r\n    }\r\n    \r\n    function respondToEntity(address buyer, address seller, address packageAddr, bytes memory signature) public {\r\n        emit respondEvent(buyer, seller, packageAddr, signature, now);\r\n    }\r\n    \r\n    function sendPackageToEntity(address buyer, address seller, address packageAddr, bytes memory signature) public {\r\n        emit sendEvent(seller, buyer, packageAddr, signature, now);\r\n    }\r\n    \r\n    /////////////// Users (Only Owner Executable) //////////////////////\r\n    \r\n    struct userData {\r\n        bytes32 name;\r\n        string[] userLoc;\r\n        roles role;\r\n        address userAddr;\r\n    }\r\n    \r\n    mapping (address => userData) public userInfo;\r\n    \r\n    function registerUser(bytes32 name, string[] memory loc, uint role, address _userAddr) public onlyOwner {\r\n        userInfo[_userAddr].name = name;\r\n        userInfo[_userAddr].userLoc = loc;\r\n        userInfo[_userAddr].role = roles(role);\r\n        userInfo[_userAddr].userAddr = _userAddr;\r\n        \r\n        emit UserRegister(_userAddr, name);\r\n    }\r\n    \r\n    // function changeUserRole(uint _role, address _addr) public onlyOwner returns(string memory) {\r\n    //     userInfo[_addr].role = roles(_role);\r\n    //    return \"Role Updated!\";\r\n    // }\r\n    \r\n    function getUserInfo(address _address) public view returns(\r\n        userData memory\r\n        ) {\r\n        return userInfo[_address];\r\n    }\r\n    \r\n\r\n    /////////////// Supplier //////////////////////\r\n    \r\n    mapping (address => address[]) public supplierRawMaterials;\r\n    \r\n    \r\n    function createRawMaterialPackage(\r\n        bytes32 _description,\r\n        uint _quantity,\r\n        address _transporterAddr,\r\n        address _manufacturerAddr\r\n    ) public returns(address) {\r\n\r\n        RawMaterial rawMaterial = new RawMaterial(\r\n            msg.sender,\r\n            address(bytes20(sha256(abi.encodePacked(msg.sender, now)))),\r\n            _description,\r\n            _quantity,\r\n            _transporterAddr,\r\n            _manufacturerAddr\r\n        );\r\n        \r\n        supplierRawMaterials[msg.sender].push(address(rawMaterial));\r\n        return address(rawMaterial);\r\n    }\r\n    \r\n    function getNoOfPackagesOfSupplier() public view returns(uint) {\r\n        return supplierRawMaterials[msg.sender].length;\r\n    }\r\n    \r\n    \r\n    function getAllPackages() public view returns(address[] memory) {\r\n        uint len = supplierRawMaterials[msg.sender].length;\r\n        address[] memory ret = new address[](len);\r\n        for (uint i = 0; i < len; i++) {\r\n            ret[i] = supplierRawMaterials[msg.sender][i];\r\n        }\r\n        return ret;\r\n    }\r\n    \r\n    ///////////////  Transporter ///////////////\r\n    \r\n    \r\n    function transporterHandlePackage(\r\n        address _addr,\r\n        uint transportertype,\r\n        address cid\r\n        ) public {\r\n            \r\n        require(\r\n            userInfo[msg.sender].role == roles.transporter,\r\n            \"Only Transporter can call this function\"\r\n        );\r\n        require(\r\n            transportertype > 0,\r\n            \"Transporter Type is incorrect\"\r\n        );\r\n        \r\n        if(transportertype == 1) { \r\n            /// Supplier -> Manufacturer\r\n            RawMaterial(_addr).pickPackage(msg.sender);\r\n        } else if(transportertype == 2) { \r\n            /// Manufacturer -> Wholesaler\r\n            Medicine(_addr).pickMedicine(msg.sender);\r\n        } else if(transportertype == 3) {   \r\n            // Wholesaler to Distributor\r\n            MedicineW_D(cid).pickWD(_addr, msg.sender);\r\n        } else if(transportertype == 4) {   \r\n            // Distrubutor to Customer\r\n            MedicineD_C(cid).pickDC(_addr, msg.sender);\r\n        }\r\n    }\r\n    \r\n    \r\n    ///////////////  Manufacturer ///////////////\r\n  struct MedicineProductionLog {\r\n        uint medicineId;\r\n        string medicineDescription; // Added medicine description\r\n        uint quantityProduced;\r\n        uint rawMaterialId;\r\n        string rawMaterialDescription; // Added raw material description\r\n        string qualityAssuranceReports; // Added quality assurance reports\r\n        string testResults; // Added test results\r\n        string manufacturerInfo; // Added manufacturer information\r\n        string transactionLogs; // Added transaction logs\r\n        // Additional relevant details\r\n    }\r\n\r\n    \r\n    mapping (address => address[]) public manufacturerRawMaterials;\r\n    mapping (address => address[]) public manufacturerMedicines;\r\n\r\n   // Mapping to store Medicine Production Logs\r\n    mapping(uint => MedicineProductionLog) public medicineProductionLogs;\r\n    uint public totalProductionLogs;\r\n\r\n\r\n   // Event for Medicine Production Log\r\n    event MedicineProductionLogged(\r\n        uint medicineId,\r\n        string medicineDescription, // Added medicine description\r\n        uint quantityProduced,\r\n        uint rawMaterialId,\r\n        string rawMaterialDescription, // Added raw material description\r\n        string qualityAssuranceReports, // Added quality assurance reports\r\n        string testResults, // Added test results\r\n        string manufacturerInfo, // Added manufacturer information\r\n        string transactionLogs // Added transaction logs\r\n        // Additional relevant details can be added here\r\n    );\r\n    \r\n    function manufacturerReceivedPackage(\r\n        address _addr,\r\n        address _manufacturerAddress,\r\n        address _sellerAddr,\r\n        bytes memory signature\r\n        ) public {\r\n            \r\n        RawMaterial(_addr).receivedPackage(_manufacturerAddress);\r\n        manufacturerRawMaterials[_manufacturerAddress].push(_addr);\r\n        emit receivedEvent(msg.sender, _sellerAddr, _addr, signature, now);\r\n    }\r\n    \r\n    function getAllRawMaterials() public view returns(address[] memory) {\r\n        uint len = manufacturerRawMaterials[msg.sender].length;\r\n        address[] memory ret = new address[](len);\r\n        for (uint i = 0; i < len; i++) {\r\n            ret[i] = manufacturerRawMaterials[msg.sender][i];\r\n        }\r\n        return ret;\r\n    }\r\n\r\n    function manufacturerCreatesMedicine(\r\n        address _manufacturerAddr,\r\n        bytes32 _description,\r\n        address[] memory _rawAddr,\r\n        uint _quantity,\r\n        address[] memory _transporterAddr\r\n        ) public {\r\n            \r\n        Medicine _medicine = new Medicine(\r\n            _manufacturerAddr,\r\n            _description,\r\n            _rawAddr,\r\n            _quantity,\r\n            _transporterAddr\r\n        );\r\n        \r\n        manufacturerMedicines[_manufacturerAddr].push(address(_medicine));\r\n        \r\n    }\r\n    \r\n    function getAllCreatedMedicines() public view returns(address[] memory) {\r\n        uint len = manufacturerMedicines[msg.sender].length;\r\n        address[] memory ret = new address[](len);\r\n        for (uint i = 0; i < len; i++) {\r\n            ret[i] = manufacturerMedicines[msg.sender][i];\r\n        }\r\n        return ret;\r\n    }\r\n\r\n//    // Function to submit Medicine Production Log\r\n//     function submitMedicineProductionLog(\r\n//         uint _medicineId,\r\n//         string memory _medicineDescription,\r\n//         uint _quantityProduced,\r\n//         uint _rawMaterialId,\r\n//         string memory _rawMaterialDescription,\r\n//         string memory _qualityAssuranceReports,\r\n//         string memory _testResults,\r\n//         string memory _manufacturerInfo,\r\n//         string memory _transactionLogs\r\n//     ) public {\r\n//         require(\r\n//             userInfo[msg.sender].role == roles.manufacturer,\r\n//             \"Only Manufacturer can call this function\"\r\n//         );\r\n\r\n//         totalProductionLogs++;\r\n//         medicineProductionLogs[totalProductionLogs] = MedicineProductionLog({\r\n//             medicineId: _medicineId,\r\n//             medicineDescription: _medicineDescription,\r\n//             quantityProduced: _quantityProduced,\r\n//             rawMaterialId: _rawMaterialId,\r\n//             rawMaterialDescription: _rawMaterialDescription,\r\n//             qualityAssuranceReports: _qualityAssuranceReports,\r\n//             testResults: _testResults,\r\n//             manufacturerInfo: _manufacturerInfo,\r\n//             transactionLogs: _transactionLogs\r\n//             // Additional relevant details can be added here\r\n//         });\r\n\r\n//         // Emit an event for the production log\r\n//         emit MedicineProductionLogged(\r\n//             _medicineId,\r\n//             _medicineDescription,\r\n//             _quantityProduced,\r\n//             _rawMaterialId,\r\n//             _rawMaterialDescription,\r\n//             _qualityAssuranceReports,\r\n//             _testResults,\r\n//             _manufacturerInfo,\r\n//             _transactionLogs\r\n//             // Additional relevant details can be added here\r\n//         );\r\n//     }\r\n    \r\n\r\n    ///////////////  Wholesaler  ///////////////\r\n\r\n    mapping(address => address[]) public MedicinesAtWholesaler;\r\n    mapping(address => address[]) public MedicineWtoD;\r\n    mapping(address => address) public MedicineWtoDTxContract;\r\n    \r\n    function wholesalerReceivedMedicine(\r\n        address _address,\r\n        address _sellerAddr,\r\n        bytes memory signature\r\n        ) public {\r\n        require(\r\n            userInfo[msg.sender].role == roles.wholesaler,\r\n            \"Only Wholesaler can call this function\"\r\n        );\r\n        \r\n        uint rtype = Medicine(_address).receivedMedicine(msg.sender);\r\n        MedicinesAtWholesaler[msg.sender].push(_address);\r\n        emit receivedEvent(msg.sender, _sellerAddr, _address, signature, now);\r\n    }\r\n    \r\n    function transferMedicineWtoD(\r\n            address _address,\r\n            address transporter,\r\n            address receiver\r\n        ) public {\r\n            \r\n        MedicineW_D wd = new MedicineW_D(\r\n            _address,\r\n            msg.sender,\r\n            transporter,\r\n            receiver\r\n        );\r\n        MedicineWtoD[msg.sender].push(address(wd));\r\n        MedicineWtoDTxContract[_address] = address(wd);\r\n    }\r\n\r\n    \r\n    // function getBatchIdByIndexWD(uint index) public view returns(address packageID) {\r\n    //     require(\r\n    //         userInfo[msg.sender].role == roles.wholesaler,\r\n    //         \"Only Wholesaler Can call this function.\"\r\n    //     );\r\n    //     return MedicineWtoD[msg.sender][index];\r\n    // }\r\n\r\n    function getSubContractWD(address _address) public view returns (address SubContractWD) {\r\n        return MedicineWtoDTxContract[_address];\r\n    }\r\n    \r\n    function getAllMedicinesAtWholesaler() public view returns(address[] memory) {\r\n        uint len = MedicinesAtWholesaler[msg.sender].length;\r\n        address[] memory ret = new address[](len);\r\n        for (uint i = 0; i < len; i++) {\r\n            ret[i] = MedicinesAtWholesaler[msg.sender][i];\r\n        }\r\n        return ret;\r\n    }\r\n\r\n\r\n//     ///////////////  Distributor  ///////////////\r\n\r\n    mapping(address => address[]) public MedicinesAtDistributor;\r\n    mapping(address => address[]) public MedicineDtoC;\r\n    mapping(address => address) public MedicineDtoCTxContract;\r\n\r\n\r\n    function distributorReceivedMedicine(\r\n      address _address,\r\n      address cid,\r\n      address _sellerAddr,\r\n      bytes memory signature\r\n    ) public {\r\n        require(\r\n            userInfo[msg.sender].role == roles.distributor &&\r\n            msg.sender == Medicine(_address).getWDC()[1],\r\n            \"Only Distributor or current owner of package can call this function\"  \r\n        );\r\n        \r\n        uint rtype = Medicine(_address).receivedMedicine(msg.sender);\r\n        if(rtype == 2){\r\n            MedicinesAtDistributor[msg.sender].push(_address);\r\n            if(Medicine(_address).getWDC()[0] != address(0)){\r\n                MedicineW_D(cid).receiveWD(_address, msg.sender);\r\n            }\r\n        }\r\n        emit receivedEvent(msg.sender, _sellerAddr, _address, signature, now);\r\n    }\r\n\r\n    function distributorTransferMedicinetoCustomer(\r\n        address _address,\r\n        address transporter,\r\n        address receiver\r\n    ) public {\r\n        require(\r\n            userInfo[msg.sender].role == roles.distributor &&\r\n            msg.sender == Medicine(_address).getWDC()[1],\r\n            \"Only Distributor or current owner of package can call this function\"\r\n        );\r\n        MedicineD_C dp = new MedicineD_C(\r\n            _address,\r\n            msg.sender,\r\n            transporter,\r\n            receiver\r\n        );\r\n        MedicineDtoC[msg.sender].push(address(dp));\r\n        MedicineDtoCTxContract[_address] = address(dp);\r\n    }\r\n    \r\n    function getBatchesCountDC() public view returns (uint count){\r\n        require(\r\n            userInfo[msg.sender].role == roles.distributor,\r\n            \"Only Distributor Can call this function.\"\r\n        );\r\n        return MedicineDtoC[msg.sender].length;\r\n    }\r\n\r\n    function getBatchIdByIndexDC(uint index) public view returns(address packageID) {\r\n        require(\r\n            userInfo[msg.sender].role == roles.distributor,\r\n            \"Only Distributor Can call this function.\"\r\n        );\r\n        return MedicineDtoC[msg.sender][index];\r\n    }\r\n\r\n    function getSubContractDC(address _address) public view returns (address SubContractDP) {\r\n        return MedicineDtoCTxContract[_address];\r\n    }\r\n    \r\n    function getAllMedicinesAtDistributor() public view returns(address[] memory) {\r\n        uint len = MedicinesAtDistributor[msg.sender].length;\r\n        address[] memory ret = new address[](len);\r\n        for (uint i = 0; i < len; i++) {\r\n            ret[i] = MedicinesAtDistributor[msg.sender][i];\r\n        }\r\n        return ret;\r\n    }\r\n    \r\n    \r\n//     ///////////////  Customer  ///////////////\r\n    \r\n    \r\n//     function customerReceivedMedicine(\r\n//         address _address,\r\n//         address cid\r\n//     ) public {\r\n//         require(\r\n//             userInfo[msg.sender].role == roles.customer,\r\n//             \"Only Customer Can call this function.\"\r\n//         );\r\n//         medicineRecievedAtCustomer(_address, cid);\r\n//     }\r\n\r\n//     function updateStatus(\r\n//         address _address,\r\n//         uint Status\r\n//     ) public {\r\n//         require(\r\n//             userInfo[msg.sender].role == roles.customer &&\r\n//             msg.sender == Medicine(_address).getWDC()[2],\r\n//             \"Only Customer or current owner of package can call this function\"\r\n//         );\r\n//         require(sale[_address] == salestatus(1), \"Medicine Must be at Customer\");\r\n        \r\n//         updateSaleStatus(_address, Status);\r\n//     }\r\n\r\n//     function getSalesInfo(\r\n//         address _address\r\n//     ) public\r\n//     view\r\n//     returns(\r\n//         uint Status \r\n//     ){\r\n//         return salesInfo(_address);\r\n//     }\r\n\r\n    \r\n//     function getBatchesCountC() public view returns(uint count) {\r\n//         require(\r\n//             userInfo[msg.sender].role == roles.customer,\r\n//             \"Only Wholesaler or current owner of package can call this function\"\r\n//         );\r\n//         return  MedicineBatchAtCustomer[msg.sender].length;\r\n//     }\r\n\r\n//     function getBatchIdByIndexC(uint index) public view returns(address _address) {\r\n//         require(\r\n//             userInfo[msg.sender].role == roles.customer,\r\n//             \"Only Wholesaler or current owner of package can call this function\"\r\n//         );\r\n//         return MedicineBatchAtCustomer[msg.sender][index];\r\n//     }\r\n\r\n   ///// Patients Reporting side effects function ////////\r\n\r\n//     struct SideEffectsReport {\r\n//     address patientAddress;\r\n//     uint medicineId;\r\n//     uint age;\r\n//     string gender;\r\n//     string location;\r\n//     string sideEffectsDescription;\r\n//     string pastDiseases;\r\n// }\r\n \r\n//   mapping(uint => SideEffectsReport) public sideEffectsReports;\r\n//   uint public totalReports;\r\n\r\n//  function reportSideEffects(\r\n//     uint _medicineId,\r\n//     uint _age,\r\n//     string memory _gender,\r\n//     string memory _location,\r\n//     string memory _sideEffectsDescription,\r\n//     string memory _pastDiseases\r\n// ) public {\r\n//     totalReports++;\r\n//     sideEffectsReports[totalReports] = SideEffectsReport({\r\n//         patientAddress: msg.sender,\r\n//         medicineId: _medicineId,\r\n//         age: _age,\r\n//         gender: _gender,\r\n//         location: _location,\r\n//         sideEffectsDescription: _sideEffectsDescription,\r\n//         pastDiseases: _pastDiseases\r\n//     });\r\n\r\n//     emit SideEffectsReported(\r\n//         msg.sender,\r\n//         _medicineId,\r\n//         _age,\r\n//         _gender,\r\n//         _location,\r\n//         _sideEffectsDescription,\r\n//         _pastDiseases\r\n//     );\r\n// }\r\n\r\n\r\n    ////// Researcher accessing functions in the smart contract /////////////\r\n \r\n//   function getSideEffectsReports() public view returns (SideEffectsReport[] memory) {\r\n\r\n//    require(\r\n//             userInfo[msg.sender].role == roles.Researcher,\r\n//             \"Only Researcher can call this function\"\r\n//         );\r\n\r\n//     SideEffectsReport[] memory reports = new SideEffectsReport[](totalReports);\r\n\r\n//     for (uint i = 1; i <= totalReports; i++) {\r\n//         reports[i - 1] = sideEffectsReports[i];\r\n//     }\r\n\r\n//     return reports;\r\n// }\r\n\r\n// function getTotalReports() public view returns (uint) {\r\n//     return totalReports;\r\n// }\r\n\r\n// function getSideEffectsReports() public view  returns (SideEffectsReport[] memory) {\r\n//     SideEffectsReport[] memory reports = new SideEffectsReport[](totalReports);\r\n\r\n//     for (uint i = 1; i <= totalReports; i++) {\r\n//         reports[i - 1] = sideEffectsReports[i];\r\n//     }\r\n\r\n//     return reports;\r\n// }\r\n\r\n// function getTotalReports() public view  returns (uint) {\r\n//     return totalReports;\r\n// }\r\n\r\n\r\n//    function getMedicineDetails(address medicineAddress) public view returns (\r\n//         bytes32 description,\r\n//         address[] memory rawMaterials,\r\n//         address[] memory transporters,\r\n//         address manufacturer,\r\n//         address wholesaler,\r\n//         address distributor,\r\n//         uint quantity,\r\n//         uint status,\r\n//         address txnContractAddress\r\n//     ) {\r\n//         Medicine medicine = Medicine(medicineAddress);\r\n//         (\r\n//             manufacturer,\r\n//             description,\r\n//             rawMaterials,\r\n//             quantity,\r\n//             transporters,\r\n//             distributor,\r\n//             status,\r\n//             txnContractAddress,\r\n//             wholesaler\r\n//         ) = medicine.getMedicineInfo();\r\n//     }\r\n\r\n\r\n\r\n\r\n\r\n\r\n\r\n\r\n\r\n\r\n\r\n\r\n\r\n\r\n    function verify(address p, bytes32 hash, uint8 v, bytes32 r, bytes32 s) public pure returns(bool) {\r\n        return ecrecover(hash, v, r, s) == p;\r\n    }   \r\n}\r\n    ",
  "sourcePath": "C:\\Users\\josep\\Desktop\\Researcher-Integration-Drug-Traceability-Blockchain\\testing\\Testing.sol",
  "compiler": {
    "name": "solc",
    "version": "0.6.6+commit.6c089d02.Emscripten.clang"
  },
  "schemaVersion": "3.4.16",
  "updatedAt": "2024-03-06T08:00:26.437Z",
  "networkType": "ethereum",
  "devdoc": {
    "methods": {}
  },
  "userdoc": {
    "methods": {
      "requestProduct(address,address,address,bytes)": {
        "notice": "///////////// Event functions (All entities) ////////////////////"
      },
      "transporterHandlePackage(address,uint256,address)": {
        "notice": "////////////  Transporter ///////////////"
      },
      "verify(address,bytes32,uint8,bytes32,bytes32)": {
        "notice": "/// Researcher accessing functions in the smart contract /////////////"
      }
    },
    "notice": "/ New supply chain : supplier -> transporter -> manufacturer -> transporter -> whole-saler -> transporter -> distributor -> transporter -> customer/hospital/pharmacy"
  }
}