{
  "contractName": "SupplyChain",
  "abi": [
    {
      "inputs": [],
      "stateMutability": "nonpayable",
      "type": "constructor"
    },
    {
      "anonymous": false,
      "inputs": [
        {
          "indexed": false,
          "internalType": "string",
          "name": "ipfsHash",
          "type": "string"
        }
      ],
      "name": "IPFSHashStored",
      "type": "event"
    },
    {
      "anonymous": false,
      "inputs": [
        {
          "indexed": true,
          "internalType": "address",
          "name": "_address",
          "type": "address"
        },
        {
          "indexed": false,
          "internalType": "bytes32",
          "name": "name",
          "type": "bytes32"
        }
      ],
      "name": "UserRegister",
      "type": "event"
    },
    {
      "anonymous": false,
      "inputs": [
        {
          "indexed": false,
          "internalType": "address",
          "name": "buyer",
          "type": "address"
        },
        {
          "indexed": true,
          "internalType": "address",
          "name": "seller",
          "type": "address"
        },
        {
          "indexed": false,
          "internalType": "address",
          "name": "packageAddr",
          "type": "address"
        },
        {
          "indexed": false,
          "internalType": "bytes",
          "name": "signature",
          "type": "bytes"
        },
        {
          "indexed": true,
          "internalType": "uint256",
          "name": "timestamp",
          "type": "uint256"
        }
      ],
      "name": "buyEvent",
      "type": "event"
    },
    {
      "anonymous": false,
      "inputs": [
        {
          "indexed": false,
          "internalType": "string",
          "name": "mLog",
          "type": "string"
        }
      ],
      "name": "mLogStored",
      "type": "event"
    },
    {
      "anonymous": false,
      "inputs": [
        {
          "indexed": true,
          "internalType": "address",
          "name": "buyer",
          "type": "address"
        },
        {
          "indexed": false,
          "internalType": "address",
          "name": "seller",
          "type": "address"
        },
        {
          "indexed": false,
          "internalType": "address",
          "name": "packageAddr",
          "type": "address"
        },
        {
          "indexed": false,
          "internalType": "bytes",
          "name": "signature",
          "type": "bytes"
        },
        {
          "indexed": true,
          "internalType": "uint256",
          "name": "timestamp",
          "type": "uint256"
        }
      ],
      "name": "receivedEvent",
      "type": "event"
    },
    {
      "anonymous": false,
      "inputs": [
        {
          "indexed": true,
          "internalType": "address",
          "name": "buyer",
          "type": "address"
        },
        {
          "indexed": false,
          "internalType": "address",
          "name": "seller",
          "type": "address"
        },
        {
          "indexed": false,
          "internalType": "address",
          "name": "packageAddr",
          "type": "address"
        },
        {
          "indexed": false,
          "internalType": "bytes",
          "name": "signature",
          "type": "bytes"
        },
        {
          "indexed": true,
          "internalType": "uint256",
          "name": "timestamp",
          "type": "uint256"
        }
      ],
      "name": "respondEvent",
      "type": "event"
    },
    {
      "anonymous": false,
      "inputs": [
        {
          "indexed": false,
          "internalType": "address",
          "name": "seller",
          "type": "address"
        },
        {
          "indexed": false,
          "internalType": "address",
          "name": "buyer",
          "type": "address"
        },
        {
          "indexed": true,
          "internalType": "address",
          "name": "packageAddr",
          "type": "address"
        },
        {
          "indexed": false,
          "internalType": "bytes",
          "name": "signature",
          "type": "bytes"
        },
        {
          "indexed": true,
          "internalType": "uint256",
          "name": "timestamp",
          "type": "uint256"
        }
      ],
      "name": "sendEvent",
      "type": "event"
    },
    {
      "inputs": [
        {
          "internalType": "address",
          "name": "",
          "type": "address"
        },
        {
          "internalType": "uint256",
          "name": "",
          "type": "uint256"
        }
      ],
      "name": "MedicineDtoC",
      "outputs": [
        {
          "internalType": "address",
          "name": "",
          "type": "address"
        }
      ],
      "stateMutability": "view",
      "type": "function",
      "constant": true
    },
    {
      "inputs": [
        {
          "internalType": "address",
          "name": "",
          "type": "address"
        }
      ],
      "name": "MedicineDtoCTxContract",
      "outputs": [
        {
          "internalType": "address",
          "name": "",
          "type": "address"
        }
      ],
      "stateMutability": "view",
      "type": "function",
      "constant": true
    },
    {
      "inputs": [
        {
          "internalType": "address",
          "name": "",
          "type": "address"
        },
        {
          "internalType": "uint256",
          "name": "",
          "type": "uint256"
        }
      ],
      "name": "MedicineWtoD",
      "outputs": [
        {
          "internalType": "address",
          "name": "",
          "type": "address"
        }
      ],
      "stateMutability": "view",
      "type": "function",
      "constant": true
    },
    {
      "inputs": [
        {
          "internalType": "address",
          "name": "",
          "type": "address"
        }
      ],
      "name": "MedicineWtoDTxContract",
      "outputs": [
        {
          "internalType": "address",
          "name": "",
          "type": "address"
        }
      ],
      "stateMutability": "view",
      "type": "function",
      "constant": true
    },
    {
      "inputs": [
        {
          "internalType": "address",
          "name": "",
          "type": "address"
        },
        {
          "internalType": "uint256",
          "name": "",
          "type": "uint256"
        }
      ],
      "name": "MedicinesAtDistributor",
      "outputs": [
        {
          "internalType": "address",
          "name": "",
          "type": "address"
        }
      ],
      "stateMutability": "view",
      "type": "function",
      "constant": true
    },
    {
      "inputs": [
        {
          "internalType": "address",
          "name": "",
          "type": "address"
        },
        {
          "internalType": "uint256",
          "name": "",
          "type": "uint256"
        }
      ],
      "name": "MedicinesAtWholesaler",
      "outputs": [
        {
          "internalType": "address",
          "name": "",
          "type": "address"
        }
      ],
      "stateMutability": "view",
      "type": "function",
      "constant": true
    },
    {
      "inputs": [
        {
          "internalType": "uint256",
          "name": "",
          "type": "uint256"
        }
      ],
      "name": "ipfsHashes",
      "outputs": [
        {
          "internalType": "string",
          "name": "",
          "type": "string"
        }
      ],
      "stateMutability": "view",
      "type": "function",
      "constant": true
    },
    {
      "inputs": [
        {
          "internalType": "uint256",
          "name": "",
          "type": "uint256"
        }
      ],
      "name": "mLogs",
      "outputs": [
        {
          "internalType": "string",
          "name": "",
          "type": "string"
        }
      ],
      "stateMutability": "view",
      "type": "function",
      "constant": true
    },
    {
      "inputs": [
        {
          "internalType": "address",
          "name": "",
          "type": "address"
        },
        {
          "internalType": "uint256",
          "name": "",
          "type": "uint256"
        }
      ],
      "name": "manufacturerMedicines",
      "outputs": [
        {
          "internalType": "address",
          "name": "",
          "type": "address"
        }
      ],
      "stateMutability": "view",
      "type": "function",
      "constant": true
    },
    {
      "inputs": [
        {
          "internalType": "address",
          "name": "",
          "type": "address"
        },
        {
          "internalType": "uint256",
          "name": "",
          "type": "uint256"
        }
      ],
      "name": "manufacturerRawMaterials",
      "outputs": [
        {
          "internalType": "address",
          "name": "",
          "type": "address"
        }
      ],
      "stateMutability": "view",
      "type": "function",
      "constant": true
    },
    {
      "inputs": [
        {
          "internalType": "address",
          "name": "",
          "type": "address"
        }
      ],
      "name": "researcherInfo",
      "outputs": [
        {
          "internalType": "bytes32",
          "name": "name",
          "type": "bytes32"
        },
        {
          "internalType": "bytes32",
          "name": "institution",
          "type": "bytes32"
        },
        {
          "internalType": "bytes32",
          "name": "email",
          "type": "bytes32"
        },
        {
          "internalType": "bytes32",
          "name": "researchArea",
          "type": "bytes32"
        },
        {
          "internalType": "bytes32",
          "name": "qualifications",
          "type": "bytes32"
        },
        {
          "internalType": "bytes32",
          "name": "experience",
          "type": "bytes32"
        },
        {
          "internalType": "enum SupplyChain.roles",
          "name": "role",
          "type": "uint8"
        },
        {
          "internalType": "address",
          "name": "walletAddress",
          "type": "address"
        }
      ],
      "stateMutability": "view",
      "type": "function",
      "constant": true
    },
    {
      "inputs": [
        {
          "internalType": "address",
          "name": "",
          "type": "address"
        },
        {
          "internalType": "uint256",
          "name": "",
          "type": "uint256"
        }
      ],
      "name": "supplierRawMaterials",
      "outputs": [
        {
          "internalType": "address",
          "name": "",
          "type": "address"
        }
      ],
      "stateMutability": "view",
      "type": "function",
      "constant": true
    },
    {
      "inputs": [
        {
          "internalType": "address",
          "name": "",
          "type": "address"
        }
      ],
      "name": "userInfo",
      "outputs": [
        {
          "internalType": "bytes32",
          "name": "name",
          "type": "bytes32"
        },
        {
          "internalType": "enum SupplyChain.roles",
          "name": "role",
          "type": "uint8"
        },
        {
          "internalType": "address",
          "name": "userAddr",
          "type": "address"
        }
      ],
      "stateMutability": "view",
      "type": "function",
      "constant": true
    },
    {
      "inputs": [
        {
          "internalType": "address",
          "name": "buyer",
          "type": "address"
        },
        {
          "internalType": "address",
          "name": "seller",
          "type": "address"
        },
        {
          "internalType": "address",
          "name": "packageAddr",
          "type": "address"
        },
        {
          "internalType": "bytes",
          "name": "signature",
          "type": "bytes"
        }
      ],
      "name": "requestProduct",
      "outputs": [],
      "stateMutability": "nonpayable",
      "type": "function"
    },
    {
      "inputs": [
        {
          "internalType": "address",
          "name": "buyer",
          "type": "address"
        },
        {
          "internalType": "address",
          "name": "seller",
          "type": "address"
        },
        {
          "internalType": "address",
          "name": "packageAddr",
          "type": "address"
        },
        {
          "internalType": "bytes",
          "name": "signature",
          "type": "bytes"
        }
      ],
      "name": "respondToEntity",
      "outputs": [],
      "stateMutability": "nonpayable",
      "type": "function"
    },
    {
      "inputs": [
        {
          "internalType": "address",
          "name": "buyer",
          "type": "address"
        },
        {
          "internalType": "address",
          "name": "seller",
          "type": "address"
        },
        {
          "internalType": "address",
          "name": "packageAddr",
          "type": "address"
        },
        {
          "internalType": "bytes",
          "name": "signature",
          "type": "bytes"
        }
      ],
      "name": "sendPackageToEntity",
      "outputs": [],
      "stateMutability": "nonpayable",
      "type": "function"
    },
    {
      "inputs": [
        {
          "internalType": "bytes32",
          "name": "name",
          "type": "bytes32"
        },
        {
          "internalType": "bytes32",
          "name": "institution",
          "type": "bytes32"
        },
        {
          "internalType": "bytes32",
          "name": "email",
          "type": "bytes32"
        },
        {
          "internalType": "bytes32",
          "name": "researchArea",
          "type": "bytes32"
        },
        {
          "internalType": "bytes32",
          "name": "qualifications",
          "type": "bytes32"
        },
        {
          "internalType": "bytes32",
          "name": "experience",
          "type": "bytes32"
        },
        {
          "internalType": "uint256",
          "name": "role",
          "type": "uint256"
        },
        {
          "internalType": "address",
          "name": "walletAddress",
          "type": "address"
        }
      ],
      "name": "registerResearcher",
      "outputs": [],
      "stateMutability": "nonpayable",
      "type": "function"
    },
    {
      "inputs": [
        {
          "internalType": "bytes32",
          "name": "name",
          "type": "bytes32"
        },
        {
          "internalType": "string[]",
          "name": "loc",
          "type": "string[]"
        },
        {
          "internalType": "uint256",
          "name": "role",
          "type": "uint256"
        },
        {
          "internalType": "address",
          "name": "_userAddr",
          "type": "address"
        }
      ],
      "name": "registerUser",
      "outputs": [],
      "stateMutability": "nonpayable",
      "type": "function"
    },
    {
      "inputs": [
        {
          "internalType": "string",
          "name": "hash",
          "type": "string"
        }
      ],
      "name": "storeIPFSHash",
      "outputs": [],
      "stateMutability": "nonpayable",
      "type": "function"
    },
    {
      "inputs": [],
      "name": "getAllIPFSHashes",
      "outputs": [
        {
          "internalType": "string[]",
          "name": "",
          "type": "string[]"
        }
      ],
      "stateMutability": "nonpayable",
      "type": "function"
    },
    {
      "inputs": [
        {
          "internalType": "string",
          "name": "hash",
          "type": "string"
        }
      ],
      "name": "storeMLogs",
      "outputs": [],
      "stateMutability": "nonpayable",
      "type": "function"
    },
    {
      "inputs": [],
      "name": "getAllMLogs",
      "outputs": [
        {
          "internalType": "string[]",
          "name": "",
          "type": "string[]"
        }
      ],
      "stateMutability": "view",
      "type": "function",
      "constant": true
    },
    {
      "inputs": [],
      "name": "getAllIPFSHash",
      "outputs": [
        {
          "internalType": "string[]",
          "name": "",
          "type": "string[]"
        }
      ],
      "stateMutability": "nonpayable",
      "type": "function"
    },
    {
      "inputs": [
        {
          "internalType": "address",
          "name": "_address",
          "type": "address"
        }
      ],
      "name": "getUserInfo",
      "outputs": [
        {
          "components": [
            {
              "internalType": "bytes32",
              "name": "name",
              "type": "bytes32"
            },
            {
              "internalType": "string[]",
              "name": "userLoc",
              "type": "string[]"
            },
            {
              "internalType": "enum SupplyChain.roles",
              "name": "role",
              "type": "uint8"
            },
            {
              "internalType": "address",
              "name": "userAddr",
              "type": "address"
            }
          ],
          "internalType": "struct SupplyChain.userData",
          "name": "",
          "type": "tuple"
        }
      ],
      "stateMutability": "view",
      "type": "function",
      "constant": true
    },
    {
      "inputs": [
        {
          "internalType": "bytes32",
          "name": "_description",
          "type": "bytes32"
        },
        {
          "internalType": "uint256",
          "name": "_quantity",
          "type": "uint256"
        },
        {
          "internalType": "address",
          "name": "_transporterAddr",
          "type": "address"
        },
        {
          "internalType": "address",
          "name": "_manufacturerAddr",
          "type": "address"
        }
      ],
      "name": "createRawMaterialPackage",
      "outputs": [
        {
          "internalType": "address",
          "name": "",
          "type": "address"
        }
      ],
      "stateMutability": "nonpayable",
      "type": "function"
    },
    {
      "inputs": [],
      "name": "getNoOfPackagesOfSupplier",
      "outputs": [
        {
          "internalType": "uint256",
          "name": "",
          "type": "uint256"
        }
      ],
      "stateMutability": "view",
      "type": "function",
      "constant": true
    },
    {
      "inputs": [],
      "name": "getAllPackages",
      "outputs": [
        {
          "internalType": "address[]",
          "name": "",
          "type": "address[]"
        }
      ],
      "stateMutability": "view",
      "type": "function",
      "constant": true
    },
    {
      "inputs": [
        {
          "internalType": "address",
          "name": "_addr",
          "type": "address"
        },
        {
          "internalType": "uint256",
          "name": "transportertype",
          "type": "uint256"
        },
        {
          "internalType": "address",
          "name": "cid",
          "type": "address"
        }
      ],
      "name": "transporterHandlePackage",
      "outputs": [],
      "stateMutability": "nonpayable",
      "type": "function"
    },
    {
      "inputs": [
        {
          "internalType": "address",
          "name": "_addr",
          "type": "address"
        },
        {
          "internalType": "address",
          "name": "_manufacturerAddress",
          "type": "address"
        },
        {
          "internalType": "address",
          "name": "_sellerAddr",
          "type": "address"
        },
        {
          "internalType": "bytes",
          "name": "signature",
          "type": "bytes"
        }
      ],
      "name": "manufacturerReceivedPackage",
      "outputs": [],
      "stateMutability": "nonpayable",
      "type": "function"
    },
    {
      "inputs": [],
      "name": "getAllRawMaterials",
      "outputs": [
        {
          "internalType": "address[]",
          "name": "",
          "type": "address[]"
        }
      ],
      "stateMutability": "view",
      "type": "function",
      "constant": true
    },
    {
      "inputs": [
        {
          "internalType": "address",
          "name": "_manufacturerAddr",
          "type": "address"
        },
        {
          "internalType": "bytes32",
          "name": "_description",
          "type": "bytes32"
        },
        {
          "internalType": "address[]",
          "name": "_rawAddr",
          "type": "address[]"
        },
        {
          "internalType": "uint256",
          "name": "_quantity",
          "type": "uint256"
        },
        {
          "internalType": "address[]",
          "name": "_transporterAddr",
          "type": "address[]"
        }
      ],
      "name": "manufacturerCreatesMedicine",
      "outputs": [],
      "stateMutability": "nonpayable",
      "type": "function"
    },
    {
      "inputs": [],
      "name": "getAllCreatedMedicines",
      "outputs": [
        {
          "internalType": "address[]",
          "name": "",
          "type": "address[]"
        }
      ],
      "stateMutability": "view",
      "type": "function",
      "constant": true
    },
    {
      "inputs": [
        {
          "internalType": "address",
          "name": "_address",
          "type": "address"
        },
        {
          "internalType": "address",
          "name": "_sellerAddr",
          "type": "address"
        },
        {
          "internalType": "bytes",
          "name": "signature",
          "type": "bytes"
        }
      ],
      "name": "wholesalerReceivedMedicine",
      "outputs": [],
      "stateMutability": "nonpayable",
      "type": "function"
    },
    {
      "inputs": [
        {
          "internalType": "address",
          "name": "_address",
          "type": "address"
        },
        {
          "internalType": "address",
          "name": "transporter",
          "type": "address"
        },
        {
          "internalType": "address",
          "name": "receiver",
          "type": "address"
        }
      ],
      "name": "transferMedicineWtoD",
      "outputs": [],
      "stateMutability": "nonpayable",
      "type": "function"
    },
    {
      "inputs": [
        {
          "internalType": "address",
          "name": "_address",
          "type": "address"
        },
        {
          "internalType": "address",
          "name": "cid",
          "type": "address"
        },
        {
          "internalType": "address",
          "name": "_sellerAddr",
          "type": "address"
        },
        {
          "internalType": "bytes",
          "name": "signature",
          "type": "bytes"
        }
      ],
      "name": "distributorReceivedMedicine",
      "outputs": [],
      "stateMutability": "nonpayable",
      "type": "function"
    },
    {
      "inputs": [
        {
          "internalType": "address",
          "name": "p",
          "type": "address"
        },
        {
          "internalType": "bytes32",
          "name": "hash",
          "type": "bytes32"
        },
        {
          "internalType": "uint8",
          "name": "v",
          "type": "uint8"
        },
        {
          "internalType": "bytes32",
          "name": "r",
          "type": "bytes32"
        },
        {
          "internalType": "bytes32",
          "name": "s",
          "type": "bytes32"
        }
      ],
      "name": "verify",
      "outputs": [
        {
          "internalType": "bool",
          "name": "",
          "type": "bool"
        }
      ],
      "stateMutability": "pure",
      "type": "function",
      "constant": true
    }
  ],
  "bytecode": "0x6080604052600060025534801561001557600080fd5b50600080546001600160a01b03191633179055615a90806100376000396000f3fe60806040523480156200001157600080fd5b5060043610620002085760003560e01c806396598038116200011d578063c22470ea11620000ab578063c22470ea14620004d2578063d06f7b5514620004eb578063d8d3eb8a1462000502578063e0cf92fe146200050c578063ee9691781462000523578063f06822d8146200053a578063fac0992d1462000551578063fc7e01f3146200055b578063fd302c3514620005725762000208565b80639659803814620004015780639af065921462000418578063a205a123146200042f578063a4de2f5c1462000439578063a999cca1146200045f578063b0fc028d1462000476578063b8b16ca3146200048d578063bc2003c814620004a4578063be7ef9c014620004bb5762000208565b806344928019116200019b57806344928019146200031f5780634e31ad9d1462000338578063506535f3146200034f5780636386c1c71462000375578063798a826f146200039b5780637a0689f014620003b25780637c99064314620003c95780638ccc8db714620003d35780638dfa742d14620003ea5762000208565b8063050e70db146200020d57806306db8324146200023c5780630a421f0f14620002535780631959a002146200026c5780631d2c0a4114620002945780631f90ddaf14620002c157806327ddcd2514620002da578063381cb0dc14620002f1578063412afbaf1462000308575b600080fd5b620002246200021e3660046200206c565b62000589565b6040516200023391906200243f565b60405180910390f35b620002246200024d3660046200206c565b620005bf565b6200025d620005d9565b60405162000233919062002558565b620002836200027d36600462001e29565b620006ae565b6040516200023393929190620025ef565b620002ab620002a536600462001e29565b620006da565b6040516200023398979695949392919062002596565b620002d8620002d236600462002167565b62000729565b005b620002d8620002eb36600462001f83565b62000828565b620002d86200030236600462001f1c565b620008af565b62000224620003193660046200206c565b620009f4565b6200032962000a0e565b6040516200023391906200256d565b620002d862000349366004620022de565b62000aec565b620003666200036036600462002012565b62000b6e565b60405162000233919062002582565b6200038c6200038636600462001e29565b62000be1565b604051620002339190620027d4565b62000224620003ac36600462001e29565b62000d38565b620002d8620003c336600462001ea0565b62000d53565b620003296200101a565b62000224620003e43660046200206c565b6200113a565b62000224620003fb3660046200206c565b62001154565b620002d86200041236600462001ea0565b6200116e565b620002d86200042936600462002224565b62001239565b6200025d6200133a565b620004506200044a3660046200231c565b62001407565b6040516200023391906200263e565b62000224620004703660046200206c565b620014b2565b620002246200048736600462001e29565b620014cc565b620002d86200049e36600462001ea0565b620014e7565b620002d8620004b5366004620022de565b62001527565b620002d8620004cc3660046200209a565b6200159e565b620004dc6200175d565b6040516200023391906200258d565b620002d8620004fc36600462001ea0565b62001770565b62000329620017b0565b620002d86200051d36600462001ea0565b62001891565b62000450620005343660046200231c565b620018d1565b620002d86200054b36600462001e4f565b620018df565b6200025d6200197a565b620002246200056c36600462002290565b62001a47565b62000224620005833660046200206c565b62001b47565b600a6020528160005260406000208181548110620005a357fe5b6000918252602090912001546001600160a01b03169150829050565b60066020528160005260406000208181548110620005a357fe5b3360009081526006602052604090205460609081816001600160401b03811180156200060457600080fd5b506040519080825280602002602001820160405280156200062f578160200160208202803683370190505b50905060005b82811015620006a6573360009081526006602052604090208054829081106200065a57fe5b9060005260206000200160009054906101000a90046001600160a01b03168282815181106200068557fe5b6001600160a01b039092166020928302919091019091015260010162000635565b509150505b90565b6003602052600090815260409020805460029091015460ff81169061010090046001600160a01b031683565b60016020819052600091825260409091208054918101546002820154600383015460048401546005850154600690950154939492939192909160ff81169061010090046001600160a01b031688565b6000546001600160a01b031633146200074157600080fd5b6001600160a01b03811660009081526003602090815260409091208581558451620007759260019092019186019062001b61565b508160078111156200078357fe5b6001600160a01b0382166000908152600360205260409020600201805460ff19166001836007811115620007b357fe5b02179055506001600160a01b038116600081815260036020526040908190206002018054610100600160a81b0319166101008402179055517f33a7170f028b1e4f5ba321064a00ed820856a920c7f9c6636fbcf385427b1b0f906200081a9087906200258d565b60405180910390a250505050565b600085858585856040516200083d9062001bc5565b6200084d95949392919062002509565b604051809103906000f0801580156200086a573d6000803e3d6000fd5b506001600160a01b0396871660009081526008602090815260408220805460018101825590835291200180546001600160a01b03191691909716179095555050505050565b60043360009081526003602052604090206002015460ff166007811115620008d357fe5b14620008fc5760405162461bcd60e51b8152600401620008f390620026bc565b60405180910390fd5b6040516307fb74db60e21b81526000906001600160a01b03851690631fedd36c906200092d9033906004016200243f565b602060405180830381600087803b1580156200094857600080fd5b505af11580156200095d573d6000803e3d6000fd5b505050506040513d601f19601f820116820180604052508101906200098391906200214e565b3360008181526009602090815260408083208054600181018255908452919092200180546001600160a01b0319166001600160a01b03891617905551919250429160008051602062005a3b83398151915290620009e690879089908890620024d2565b60405180910390a350505050565b60096020528160005260406000208181548110620005a357fe5b60606005805480602002602001604051908101604052809291908181526020016000905b8282101562000ae35760008481526020908190208301805460408051601f600260001961010060018716150201909416939093049283018590048502810185019091528181529283018282801562000ace5780601f1062000aa25761010080835404028352916020019162000ace565b820191906000526020600020905b81548152906001019060200180831162000ab057829003601f168201915b50505050508152602001906001019062000a32565b50505050905090565b60048054600181018255600091909152815162000b31917f8a35acfbc15ff81a39ae7d344fd709f28e8600b4aa8c65c6b64bfe7fe36bd19b0190602084019062001bd3565b507f91466b8a06ee423c26f15ec0f96499c1ce2f339e4652e13deb8001edbf5007e58160405162000b6391906200263e565b60405180910390a150565b6000856001600160a01b03166001868686866040516000815260200160405260405162000b9f949392919062002620565b6020604051602081039080840390855afa15801562000bc2573d6000803e3d6000fd5b505050602060405103516001600160a01b031614905095945050505050565b62000beb62001c54565b6001600160a01b03821660009081526003602090815260408083208151608081018352815481526001820180548451818702810187019095528085529195929486810194939192919084015b8282101562000ce85760008481526020908190208301805460408051601f600260001961010060018716150201909416939093049283018590048502810185019091528181529283018282801562000cd35780601f1062000ca75761010080835404028352916020019162000cd3565b820191906000526020600020905b81548152906001019060200180831162000cb557829003601f168201915b50505050508152602001906001019062000c37565b50505090825250600282015460209091019060ff16600781111562000d0957fe5b600781111562000d1557fe5b81526002919091015461010090046001600160a01b031660209091015292915050565b600e602052600090815260409020546001600160a01b031681565b60053360009081526003602052604090206002015460ff16600781111562000d7757fe5b14801562000e055750836001600160a01b031663abb428a66040518163ffffffff1660e01b815260040160606040518083038186803b15801562000dba57600080fd5b505afa15801562000dcf573d6000803e3d6000fd5b505050506040513d601f19601f8201168201806040525081019062000df59190620020d5565b602001516001600160a01b031633145b62000e245760405162461bcd60e51b8152600401620008f39062002653565b6040516307fb74db60e21b81526000906001600160a01b03861690631fedd36c9062000e559033906004016200243f565b602060405180830381600087803b15801562000e7057600080fd5b505af115801562000e85573d6000803e3d6000fd5b505050506040513d601f19601f8201168201806040525081019062000eab91906200214e565b9050806002141562000fdc57336000908152600c60209081526040808320805460018101825590845291832090910180546001600160a01b0319166001600160a01b03891690811790915581516355da145360e11b81529151909163abb428a6916004808301926060929190829003018186803b15801562000f2c57600080fd5b505afa15801562000f41573d6000803e3d6000fd5b505050506040513d601f19601f8201168201806040525081019062000f679190620020d5565b516001600160a01b03161462000fdc5760405163d7dcbe3b60e01b81526001600160a01b0385169063d7dcbe3b9062000fa790889033906004016200248d565b600060405180830381600087803b15801562000fc257600080fd5b505af115801562000fd7573d6000803e3d6000fd5b505050505b42336001600160a01b031660008051602062005a3b8339815191528588866040516200100b93929190620024d2565b60405180910390a35050505050565b606060073360009081526001602052604090206006015460ff1660078111156200104057fe5b14620010605760405162461bcd60e51b8152600401620008f39062002702565b600280546001019055600480546040805160208084028201810190925282815292919060009084015b8282101562000ae35760008481526020908190208301805460408051601f6002600019610100600187161502019094169390930492830185900485028101850190915281815292830182828015620011255780601f10620010f95761010080835404028352916020019162001125565b820191906000526020600020905b8154815290600101906020018083116200110757829003601f168201915b50505050508152602001906001019062001089565b60076020528160005260406000208181548110620005a357fe5b600c6020528160005260406000208181548110620005a357fe5b604051630a57332d60e31b81526001600160a01b038516906352b99968906200119c9086906004016200243f565b600060405180830381600087803b158015620011b757600080fd5b505af1158015620011cc573d6000803e3d6000fd5b505050506001600160a01b0383811660009081526007602090815260408083208054600181018255908452919092200180546001600160a01b03191692871692909217909155514290339060008051602062005a3b83398151915290620009e690869089908790620024d2565b6000546001600160a01b031633146200125157600080fd5b3360009081526001602081905260409091208981559081018890556002810187905560038101869055600481018590556005018390558160078111156200129457fe5b3360009081526001602081905260409091206006018054909160ff1990911690836007811115620012c157fe5b021790555033600081815260016020526040908190206006018054610100600160a81b0319166101006001600160a01b03861602179055517f33a7170f028b1e4f5ba321064a00ed820856a920c7f9c6636fbcf385427b1b0f9062001328908b906200258d565b60405180910390a25050505050505050565b3360009081526008602052604090205460609081816001600160401b03811180156200136557600080fd5b5060405190808252806020026020018201604052801562001390578160200160208202803683370190505b50905060005b82811015620006a657336000908152600860205260409020805482908110620013bb57fe5b9060005260206000200160009054906101000a90046001600160a01b0316828281518110620013e657fe5b6001600160a01b039092166020928302919091019091015260010162001396565b600481815481106200141557fe5b600091825260209182902001805460408051601f6002600019610100600187161502019094169390930492830185900485028101850190915281815293509091830182828015620014aa5780601f106200147e57610100808354040283529160200191620014aa565b820191906000526020600020905b8154815290600101906020018083116200148c57829003601f168201915b505050505081565b60086020528160005260406000208181548110620005a357fe5b600b602052600090815260409020546001600160a01b031681565b42836001600160a01b03167f22561ca0666e99052dd8231a6c5c337204ed5658c357aa6afcd53c207acfac67868585604051620009e693929190620024d2565b6005805460018101825560009190915281516200156c917f036b6384b5eca791c62761152d0c79bb0604c104a5fb6f4eb0703f3154bb3db00190602084019062001bd3565b507ffdccda5b0ad24396c1bf6fea22c4d36c943a4a46cd838359fdbabc0334f01a768160405162000b6391906200263e565b60023360009081526003602052604090206002015460ff166007811115620015c257fe5b14620015e25760405162461bcd60e51b8152600401620008f39062002756565b60008211620016055760405162461bcd60e51b8152600401620008f3906200279d565b8160011415620016775760405163638e9a3d60e01b81526001600160a01b0384169063638e9a3d906200163d9033906004016200243f565b600060405180830381600087803b1580156200165857600080fd5b505af11580156200166d573d6000803e3d6000fd5b5050505062001758565b8160021415620016af5760405163ac42a41560e01b81526001600160a01b0384169063ac42a415906200163d9033906004016200243f565b8160031415620016e957604051630887851b60e31b81526001600160a01b0382169063443c28d8906200163d90869033906004016200248d565b8160041415620017585760405163298abd8d60e11b81526001600160a01b038216906353157b1a906200172390869033906004016200248d565b600060405180830381600087803b1580156200173e57600080fd5b505af115801562001753573d6000803e3d6000fd5b505050505b505050565b3360009081526006602052604090205490565b42826001600160a01b03167f31f87de04fd141167b8131be7a8ccb2bac63361a15671c96d90c39ddc9ef909d858785604051620009e693929190620024d2565b60606002546001016002819055506004805480602002602001604051908101604052809291908181526020016000905b8282101562000ae35760008481526020908190208301805460408051601f60026000196101006001871615020190941693909304928301859004850281018501909152818152928301828280156200187c5780601f1062001850576101008083540402835291602001916200187c565b820191906000526020600020905b8154815290600101906020018083116200185e57829003601f168201915b505050505081526020019060010190620017e0565b42846001600160a01b03167f9151271dfe612a18bf915ee1609e6f94f62fd775c704a0ae2ef091519f0c9b39858585604051620009e693929190620024d2565b600581815481106200141557fe5b600083338484604051620018f39062001c7c565b620019029493929190620024a7565b604051809103906000f0801580156200191f573d6000803e3d6000fd5b50336000908152600a6020908152604080832080546001810182559084528284200180546001600160a01b039586166001600160a01b03199182168117909255989094168352600b9091529020805490951617909355505050565b3360009081526007602052604090205460609081816001600160401b0381118015620019a557600080fd5b50604051908082528060200260200182016040528015620019d0578160200160208202803683370190505b50905060005b82811015620006a657336000908152600760205260409020805482908110620019fb57fe5b9060005260206000200160009054906101000a90046001600160a01b031682828151811062001a2657fe5b6001600160a01b0390921660209283029190910190910152600101620019d6565b600080336002334260405160200162001a62929190620023ff565b60408051601f198184030181529082905262001a7e9162002421565b602060405180830381855afa15801562001a9c573d6000803e3d6000fd5b5050506040513d601f19601f8201168201806040525081019062001ac191906200214e565b60601c8787878760405162001ad69062001c8a565b62001ae79695949392919062002453565b604051809103906000f08015801562001b04573d6000803e3d6000fd5b503360009081526006602090815260408220805460018101825590835291200180546001600160a01b0319166001600160a01b0383161790559695505050505050565b600d6020528160005260406000208181548110620005a357fe5b82805482825590600052602060002090810192821562001bb3579160200282015b8281111562001bb3578251805162001ba291849160209091019062001bd3565b509160200191906001019062001b82565b5062001bc192915062001c98565b5090565b611bde80620028cc83390190565b828054600181600116156101000203166002900490600052602060002090601f016020900481019282601f1062001c1657805160ff191683800117855562001c46565b8280016001018555821562001c46579182015b8281111562001c4657825182559160200191906001019062001c29565b5062001bc192915062001cc0565b6040805160808101825260008082526060602083015290918201908152600060209091015290565b6103b880620044aa83390190565b6111d9806200486283390190565b620006ab91905b8082111562001bc157600062001cb6828262001cdd565b5060010162001c9f565b620006ab91905b8082111562001bc1576000815560010162001cc7565b50805460018160011615610100020316600290046000825580601f1062001d05575062001d25565b601f01602090049060005260206000209081019062001d25919062001cc0565b50565b803562001d3581620028b5565b92915050565b600082601f83011262001d4c578081fd5b813562001d6362001d5d8262002857565b62002830565b81815291506020808301908481018184028601820187101562001d8557600080fd5b60005b8481101562001db157813562001d9e81620028b5565b8452928201929082019060010162001d88565b505050505092915050565b600082601f83011262001dcd578081fd5b81356001600160401b0381111562001de3578182fd5b62001df8601f8201601f191660200162002830565b915080825283602082850101111562001e1057600080fd5b8060208401602084013760009082016020015292915050565b60006020828403121562001e3b578081fd5b813562001e4881620028b5565b9392505050565b60008060006060848603121562001e64578182fd5b833562001e7181620028b5565b9250602084013562001e8381620028b5565b9150604084013562001e9581620028b5565b809150509250925092565b6000806000806080858703121562001eb6578081fd5b843562001ec381620028b5565b9350602085013562001ed581620028b5565b9250604085013562001ee781620028b5565b915060608501356001600160401b0381111562001f02578182fd5b62001f108782880162001dbc565b91505092959194509250565b60008060006060848603121562001f31578283fd5b833562001f3e81620028b5565b9250602084013562001f5081620028b5565b915060408401356001600160401b0381111562001f6b578182fd5b62001f798682870162001dbc565b9150509250925092565b600080600080600060a0868803121562001f9b578081fd5b853562001fa881620028b5565b94506020860135935060408601356001600160401b038082111562001fcb578283fd5b62001fd989838a0162001d3b565b945060608801359350608088013591508082111562001ff6578283fd5b50620020058882890162001d3b565b9150509295509295909350565b600080600080600060a086880312156200202a578081fd5b85356200203781620028b5565b945060208601359350604086013560ff8116811462002054578182fd5b94979396509394606081013594506080013592915050565b600080604083850312156200207f578182fd5b82356200208c81620028b5565b946020939093013593505050565b600080600060608486031215620020af578081fd5b8335620020bc81620028b5565b925060208401359150604084013562001e9581620028b5565b600060608284031215620020e7578081fd5b82601f830112620020f6578081fd5b62002102606062002830565b80838560608601111562002114578384fd5b835b6003811015620021435781516200212d81620028b5565b8452602093840193919091019060010162002116565b509095945050505050565b60006020828403121562002160578081fd5b5051919050565b600080600080608085870312156200217d578182fd5b843593506020808601356001600160401b038111156200219b578384fd5b80870188601f820112620021ad578485fd5b80359150620021c062001d5d8362002857565b82815283810190828501875b85811015620021f957620021e68d88843588010162001dbc565b84529286019290860190600101620021cc565b505080975050505050506040850135915062002219866060870162001d28565b905092959194509250565b600080600080600080600080610100898b03121562002241578586fd5b883597506020890135965060408901359550606089013594506080890135935060a0890135925060c0890135915060e08901356200227f81620028b5565b809150509295985092959890939650565b60008060008060808587031215620022a6578182fd5b84359350602085013592506040850135620022c181620028b5565b91506060850135620022d381620028b5565b939692955090935050565b600060208284031215620022f0578081fd5b81356001600160401b0381111562002306578182fd5b620023148482850162001dbc565b949350505050565b6000602082840312156200232e578081fd5b5035919050565b6000815180845260208085019450808401835b838110156200236f5781516001600160a01b03168752958201959082019060010162002348565b509495945050505050565b6000815180845260208085018081965082840281019150828601855b85811015620023c4578284038952620023b1848351620023d1565b9885019893509084019060010162002396565b5091979650505050505050565b60008151808452620023eb81602086016020860162002877565b601f01601f19169290920160200192915050565b60609290921b6bffffffffffffffffffffffff19168252601482015260340190565b600082516200243581846020870162002877565b9190910192915050565b6001600160a01b0391909116815260200190565b6001600160a01b0396871681529486166020860152604085019390935260608401919091528316608083015290911660a082015260c00190565b6001600160a01b0392831681529116602082015260400190565b6001600160a01b03948516815292841660208401529083166040830152909116606082015260800190565b6001600160a01b038481168252831660208201526060604082018190526000906200250090830184620023d1565b95945050505050565b600060018060a01b038716825285602083015260a060408301526200253260a083018662002335565b84606084015282810360808401526200254c818562002335565b98975050505050505050565b60006020825262001e48602083018462002335565b60006020825262001e4860208301846200237a565b901515815260200190565b90815260200190565b6000610100820190508982528860208301528760408301528660608301528560808301528460a0830152620025cb84620028aa565b60c08201939093526001600160a01b039190911660e0909101529695505050505050565b838152606081016200260184620028aa565b60208201939093526001600160a01b0391909116604090910152919050565b93845260ff9290921660208401526040830152606082015260800190565b60006020825262001e486020830184620023d1565b60208082526043908201527f4f6e6c79204469737472696275746f72206f722063757272656e74206f776e6560408201527f72206f66207061636b6167652063616e2063616c6c20746869732066756e637460608201526234b7b760e91b608082015260a00190565b60208082526026908201527f4f6e6c792057686f6c6573616c65722063616e2063616c6c20746869732066756040820152653731ba34b7b760d11b606082015260800190565b60208082526034908201527f4f6e6c7920617574686f72697a65642072657365617263686572732063616e2060408201527330b1b1b2b9b9903a3434b990333ab731ba34b7b760611b606082015260800190565b60208082526027908201527f4f6e6c79205472616e73706f727465722063616e2063616c6c207468697320666040820152663ab731ba34b7b760c91b606082015260800190565b6020808252601d908201527f5472616e73706f72746572205479706520697320696e636f7272656374000000604082015260600190565b60006020825282516020830152602083015160806040840152620027fc60a08401826200237a565b604085015191506200280e82620028aa565b6060848101929092529301516001600160a01b03166080909201919091525090565b6040518181016001600160401b03811182821017156200284f57600080fd5b604052919050565b60006001600160401b038211156200286d578081fd5b5060209081020190565b60005b83811015620028945781810151838201526020016200287a565b83811115620028a4576000848401525b50505050565b6008811062001d2557fe5b6001600160a01b038116811462001d2557600080fdfe60806040523480156200001157600080fd5b5060405162001bde38038062001bde833981810160405260a08110156200003757600080fd5b815160208301516040808501805191519395929483019291846401000000008211156200006357600080fd5b9083019060208201858111156200007957600080fd5b82518660208202830111640100000000821117156200009757600080fd5b82525081516020918201928201910280838360005b83811015620000c6578181015183820152602001620000ac565b505050509050016040526020018051906020019092919080516040519392919084640100000000821115620000fa57600080fd5b9083019060208201858111156200011057600080fd5b82518660208202830111640100000000821117156200012e57600080fd5b82525081516020918201928201910280838360005b838110156200015d57818101518382015260200162000143565b50505050919091016040525050600080546001600160a01b0389166001600160a01b03199182168117909255600480549091169091179055505060018490558251620001b190600290602086019062000268565b5060088290558051620001cc90600390602084019062000268565b50600580546001600160a01b03199081169091556006805490911690556009805460ff1916905560405160009086906200020690620002d2565b6001600160a01b03909116815260405190819003602001906000f08015801562000234573d6000803e3d6000fd5b50600980546001600160a01b0390921661010002610100600160a81b0319909216919091179055506200030a945050505050565b828054828255906000526020600020908101928215620002c0579160200282015b82811115620002c057825182546001600160a01b0319166001600160a01b0390911617825560209092019160019091019062000289565b50620002ce929150620002e0565b5090565b610b74806200106a83390190565b6200030791905b80821115620002ce5780546001600160a01b0319168155600101620002e7565b90565b610d50806200031a6000396000f3fe608060405234801561001057600080fd5b50600436106100ca5760003560e01c8063ac42a4151161007c578063ac42a41514610278578063c50fb2031461029e578063c8f5f189146102a6578063d2f3fcc7146102cc578063e002c8a5146102d4578063e138d4ce146103ee578063f5c0e38314610414576100ca565b80631fedd36c146100cf5780632f1d75881461010757806393a668b71461013757806396991e791461015d57806397bcb41014610183578063aab3a9d614610212578063abb428a614610238575b600080fd5b6100f5600480360360208110156100e557600080fd5b50356001600160a01b0316610442565b60408051918252519081900360200190f35b6101356004803603604081101561011d57600080fd5b506001600160a01b038135811691602001351661066d565b005b6101356004803603602081101561014d57600080fd5b50356001600160a01b03166106f6565b6101356004803603602081101561017357600080fd5b50356001600160a01b0316610763565b6101a06004803603602081101561019957600080fd5b5035610785565b604080518981526001600160a01b03808a166020830152888116928201929092528682166060820152908516608082015260a0810184905260c081018360068111156101e857fe5b60ff1681526001600160a01b03909216602083015250604080519182900301975095505050505050f35b6101356004803603602081101561022857600080fd5b50356001600160a01b03166107df565b610240610831565b6040518082606080838360005b8381101561026557818101518382015260200161024d565b5050505090500191505060405180910390f35b6101356004803603602081101561028e57600080fd5b50356001600160a01b031661086c565b6100f56109ed565b610135600480360360208110156102bc57600080fd5b50356001600160a01b03166109f3565b6100f5610a5c565b6102dc610a75565b604051808a6001600160a01b03166001600160a01b031681526020018981526020018060200188815260200180602001876001600160a01b03166001600160a01b03168152602001868152602001856001600160a01b03166001600160a01b03168152602001846001600160a01b03166001600160a01b0316815260200183810383528a818151815260200191508051906020019060200280838360005b8381101561039257818101518382015260200161037a565b50505050905001838103825288818151815260200191508051906020019060200280838360005b838110156103d15781810151838201526020016103b9565b505050509050019b50505050505050505050505060405180910390f35b6101356004803603602081101561040457600080fd5b50356001600160a01b0316610bab565b6101356004803603604081101561042a57600080fd5b506001600160a01b0381358116916020013516610bcd565b6005546000906001600160a01b038381169116148061046e57506006546001600160a01b038381169116145b6104a95760405162461bcd60e51b8152600401808060200182810382526035815260200180610c7a6035913960400191505060405180910390fd5b60095460019060ff1660068111156104bd57fe5b101561050c576040805162461bcd60e51b8152602060048201526019602482015278141c9bd91d58dd081b9bdd081c1a58dad959081d5c081e595d603a1b604482015290519081900360640190fd5b6005546001600160a01b0383811691161480156105395750600160095460ff16600681111561053757fe5b145b156105bd576009805460ff1916600390811790915560055481546001600160a01b039091169190600019810190811061056e57fe5b60009182526020918290200154604080516002815260039381019390935280516001600160a01b03909216923092600080516020610c5a833981519152929181900390910190a4506001610668565b6006546001600160a01b0383811691161480156105ea5750600260095460ff1660068111156105e857fe5b145b15610668576009805460ff19166004179055600654600380546001600160a01b0390921691600019810190811061061d57fe5b60009182526020918290200154604080516003815260049381019390935280516001600160a01b03909216923092600080516020610c5a833981519152929181900390910190a45060025b919050565b6006546001600160a01b038281169116146106b95760405162461bcd60e51b8152600401808060200182810382526023815260200180610cd16023913960400191505060405180910390fd5b600780546001600160a01b0319166001600160a01b03841617905560055b6009805460ff191660018360068111156106ed57fe5b02179055505050565b6006546001600160a01b038281169116146107425760405162461bcd60e51b8152600401808060200182810382526023815260200180610cd16023913960400191505060405180910390fd5b60045b6009805460ff1916600183600681111561075b57fe5b021790555050565b600680546001600160a01b0319166001600160a01b0392909216919091179055565b600b60205260009081526040902080546003820154600483015460058401546006850154600786015460089096015494956001600160a01b0394851695938516949283169391831692909160ff8116916101009091041688565b600380546001810182556000919091527fc2575a0e9e593c00f959f8c92f12db2869c3395a3b0502d05e2516446f71f85b0180546001600160a01b0319166001600160a01b0392909216919091179055565b610839610c3b565b50604080516060810182526005546001600160a01b03908116825260065481166020830152600754169181019190915290565b60038054600019810190811061087e57fe5b6000918252602090912001546001600160a01b038281169116146108d35760405162461bcd60e51b8152600401808060200182810382526027815260200180610cf46027913960400191505060405180910390fd5b600060095460ff1660068111156108e657fe5b14610938576040805162461bcd60e51b815260206004820181905260248201527f5061636b616765206d757374206265206174204d616e7566616374757265722e604482015290519081900360640190fd5b6005546001600160a01b03161561099b576009805460ff1916600190811790915560055460408051838152602081019390935280516001600160a01b0392831693928516923092600080516020610c5a83398151915292918290030190a46109ea565b6009805460ff191660029081179091556006546040805160018152602081019390935280516001600160a01b0392831693928516923092600080516020610c5a83398151915292918290030190a45b50565b600a5481565b6007546001600160a01b03828116911614610a55576040805162461bcd60e51b815260206004820181905260248201527f5468697320437573746f6d6572206973206e6f74204173736f6369617465642e604482015290519081900360640190fd5b6006610745565b60095460009060ff166006811115610a7057fe5b905090565b6004546001546008546006805460095460009586956060958795879587958695869586956001600160a01b03928316959194600294919360039391169160ff1690811115610abf57fe5b6009546005548654604080516020808402820181019092528281526101009094046001600160a01b0390811694931692918991830182828015610b2b57602002820191906000526020600020905b81546001600160a01b03168152600190910190602001808311610b0d575b5050505050965084805480602002602001604051908101604052809291908181526020018280548015610b8757602002820191906000526020600020905b81546001600160a01b03168152600190910190602001808311610b69575b50505050509450985098509850985098509850985098509850909192939495969798565b600580546001600160a01b0319166001600160a01b0392909216919091179055565b6005546001600160a01b03828116911614610c195760405162461bcd60e51b8152600401808060200182810382526022815260200180610caf6022913960400191505060405180910390fd5b600680546001600160a01b0319166001600160a01b03841617905560026106d7565b6040518060600160405280600390602082028036833750919291505056fe7e89c4b1a4e2b51aae84eb1f90e8a34cb792ece5ac5cb63db4830c891220b28d4f6e6c792057686f6c6573616c6572206f72204469737472696275746f722063616e2063616c6c20746869732066756e6374696f6e746869732057686f6c6573616c6572206973206e6f74204173736f6369617465642e54686973204469737472696275746f72206973206e6f74204173736f6369617465642e4f6e6c79205472616e73706f727465722063616e2063616c6c20746869732066756e6374696f6ea2646970667358221220dba45bda14878750b2efe8143003cb62d0e922091f37efcf142583ec6ea9142364736f6c634300060600336080604052600060025534801561001557600080fd5b50604051610b74380380610b7483398101604081905261003491610059565b600080546001600160a01b0319166001600160a01b0392909216919091179055610087565b60006020828403121561006a578081fd5b81516001600160a01b0381168114610080578182fd5b9392505050565b610ade806100966000396000f3fe608060405234801561001057600080fd5b506004361061004c5760003560e01c806327506f53146100515780633626a3681461006f57806378ce1365146100845780639ace38c214610099575b600080fd5b6100596100bf565b60405161006691906108c3565b60405180910390f35b61008261007d3660046107bb565b6102c7565b005b61008c61050b565b6040516100669190610a87565b6100ac6100a7366004610853565b610511565b6040516100669796959493929190610990565b600254606090818167ffffffffffffffff811180156100dd57600080fd5b5060405190808252806020026020018201604052801561011757816020015b61010461066a565b8152602001906001900390816100fc5790505b50905060005b828110156102bf57600081815260016020818152604092839020835160e08101855281548152818401546001600160a01b0390811682850152600280840154909116828701526003830154606083015260048301805487516101009782161597909702600019011691909104601f81018590048502860185019096528585529094919360808601939092908301828280156101f95780601f106101ce576101008083540402835291602001916101f9565b820191906000526020600020905b8154815290600101906020018083116101dc57829003601f168201915b505050918352505060058201805460408051602060026001851615610100026000190190941693909304601f810184900484028201840190925281815293820193929183018282801561028d5780601f106102625761010080835404028352916020019161028d565b820191906000526020600020905b81548152906001019060200180831161027057829003601f168201915b505050505081526020016006820154815250508282815181106102ac57fe5b602090810291909101015260010161011d565b509150505b90565b60025442906103a6576040805160e0810182528881526001600160a01b038089166020808401918252898316848601908152606085018a8152608086018a815260a087018a905260c08701899052600280546000908152600180875299902088518155955198860180549988166001600160a01b03199a8b1617905592519285018054939096169290971691909117909355915160038201559251805192939261037792600485019201906106a5565b5060a082015180516103939160058401916020909101906106a5565b5060c082015181600601559050506104b5565b6002546000190160009081526001602052604090205484146103e35760405162461bcd60e51b81526004016103da90610a50565b60405180910390fd5b6040805160e0810182528881526001600160a01b038089166020808401918252898316848601908152606085018a8152608086018a815260a087018a905260c08701899052600280546000908152600180875299902088518155955198860180549988166001600160a01b03199a8b1617905592519285018054939096169290971691909117909355915160038201559251805192939261048a92600485019201906106a5565b5060a082015180516104a69160058401916020909101906106a5565b5060c082015181600601559050505b6002805460010190556040517f30d01d358fb0899fe4d50947b2e9301c952d9eed09b14c7ecdcbeed4434557c4906104fa90899089908990899087908a908a906109f0565b60405180910390a150505050505050565b60025481565b60016020818152600092835260409283902080548184015460028084015460038501546004860180548a516101009a8216159a909a02600019011693909304601f810188900488028901880190995288885293976001600160a01b039384169793909116959394938301828280156105ca5780601f1061059f576101008083540402835291602001916105ca565b820191906000526020600020905b8154815290600101906020018083116105ad57829003601f168201915b5050505060058301805460408051602060026001851615610100026000190190941693909304601f810184900484028201840190925281815294959493509083018282801561065a5780601f1061062f5761010080835404028352916020019161065a565b820191906000526020600020905b81548152906001019060200180831161063d57829003601f168201915b5050505050908060060154905087565b6040805160e08101825260008082526020820181905291810182905260608082018390526080820181905260a082015260c081019190915290565b828054600181600116156101000203166002900490600052602060002090601f016020900481019282601f106106e657805160ff1916838001178555610713565b82800160010185558215610713579182015b828111156107135782518255916020019190600101906106f8565b5061071f929150610723565b5090565b6102c491905b8082111561071f5760008155600101610729565b600082601f83011261074d578081fd5b813567ffffffffffffffff80821115610764578283fd5b604051601f8301601f191681016020018281118282101715610784578485fd5b60405282815292508284830160200186101561079f57600080fd5b8260208601602083013760006020848301015250505092915050565b60008060008060008060c087890312156107d3578182fd5b8635955060208701356107e581610a90565b945060408701356107f581610a90565b935060608701359250608087013567ffffffffffffffff80821115610818578384fd5b6108248a838b0161073d565b935060a0890135915080821115610839578283fd5b5061084689828a0161073d565b9150509295509295509295565b600060208284031215610864578081fd5b5035919050565b6001600160a01b03169052565b60008151808452815b8181101561089d57602081850181015186830182015201610881565b818111156108ae5782602083870101525b50601f01601f19169290920160200192915050565b60208082528251828201819052600091906040908185019080840286018301878501865b8381101561098257603f19898403018552815160e081518552888201516109108a87018261086b565b50878201516109218987018261086b565b506060808301518187015250608080830151828288015261094483880182610878565b91505060a0915081830151868203838801526109608282610878565b60c09485015197909401969096525050948701949250908601906001016108e7565b509098975050505050505050565b8781526001600160a01b038781166020830152861660408201526060810185905260e0608082018190526000906109c990830186610878565b82810360a08401526109db8186610878565b9150508260c083015298975050505050505050565b8781526001600160a01b03878116602083015286166040820152606081018590526080810184905260e060a08201819052600090610a3090830185610878565b82810360c0840152610a428185610878565b9a9950505050505050505050565b6020808252601b908201527f5472616e73616374696f6e206572726f72206f63637572726564210000000000604082015260600190565b90815260200190565b6001600160a01b0381168114610aa557600080fd5b5056fea2646970667358221220c6c2c5de3ad14cf38cf88b4f614921580977e7335ab6d4e2461cd9ff38b5fa8264736f6c63430006060033608060405234801561001057600080fd5b506040516103b83803806103b88339818101604052608081101561003357600080fd5b50805160208201516040830151606090930151600080546001600160a01b03199081166001600160a01b03948516908117835560018054831696861696909617909555600280548216909517909455600380548516958416959095179094556004805490931691161760ff60a01b191690556103039081906100b590396000f3fe608060405234801561001057600080fd5b50600436106100415760003560e01c8063443c28d814610046578063d2f3fcc714610076578063d7dcbe3b14610090575b600080fd5b6100746004803603604081101561005c57600080fd5b506001600160a01b03813581169160200135166100be565b005b61007e610190565b60408051918252519081900360200190f35b610074600480360360408110156100a657600080fd5b506001600160a01b03813581169160200135166101b0565b6003546001600160a01b0382811691161461010a5760405162461bcd60e51b815260040180806020018281038252602f81526020018061029f602f913960400191505060405180910390fd5b6004805460ff60a01b1916600160a01b178082556002546040805163f5c0e38360e01b81526001600160a01b03938416948101949094529082166024840152519084169163f5c0e38391604480830192600092919082900301818387803b15801561017457600080fd5b505af1158015610188573d6000803e3d6000fd5b505050505050565b600454600090600160a01b900460ff1660028111156101ab57fe5b905090565b6004546001600160a01b038281169116146101fc5760405162461bcd60e51b815260040180806020018281038252603081526020018061026f6030913960400191505060405180910390fd5b600480546002919060ff60a01b1916600160a01b830217905550816001600160a01b03166393a668b7826040518263ffffffff1660e01b815260040180826001600160a01b03166001600160a01b03168152602001915050600060405180830381600087803b15801561017457600080fdfe4f6e6c79204173736f6369617465642072656365697665722063616e2063616c6c20746869732066756e6374696f6e2e4f6e6c79204173736f63696174656420736869707065722063616e2063616c6c20746869732066756e6374696f6e2ea2646970667358221220e231d56883b46389d5f4df87d3cc0bd140a7d3e11c6fa87eed5bee575b38ef4264736f6c63430006060033608060405234801561001057600080fd5b506040516111d93803806111d983398101604081905261002f91610100565b600080546001600160a01b03199081166001600160a01b0389811691821784556001805484168a831617905560028890556003879055600480548416878316179055600580548416918616919091179055600680549092161760ff60a01b19169055604051829061009f906100f3565b6100a99190610173565b604051809103906000f0801580156100c5573d6000803e3d6000fd5b50600880546001600160a01b0319166001600160a01b03929092169190911790555061019f95505050505050565b610b748061066583390190565b60008060008060008060c08789031215610118578182fd5b865161012381610187565b602088015190965061013481610187565b809550506040870151935060608701519250608087015161015481610187565b60a088015190925061016581610187565b809150509295509295509295565b6001600160a01b0391909116815260200190565b6001600160a01b038116811461019c57600080fd5b50565b6104b7806101ae6000396000f3fe608060405234801561001057600080fd5b50600436106100575760003560e01c806350e073bc1461005c57806352b9996814610071578063638e9a3d146100845780636b099dca1461009757806380723520146100b5575b600080fd5b61006f61006a3660046102e8565b6100d0565b005b61006f61007f3660046102e8565b6100f2565b61006f6100923660046102e8565b6101cd565b61009f610293565b6040516100ac9190610478565b60405180910390f35b6100bd6102b3565b6040516100ac9796959493929190610316565b600580546001600160a01b0319166001600160a01b0392909216919091179055565b6005546001600160a01b038281169116146101285760405162461bcd60e51b815260040161011f90610398565b60405180910390fd5b6001600654600160a01b900460ff16600281111561014257fe5b1461015f5760405162461bcd60e51b815260040161011f90610365565b6006805460ff60a01b1916600160a11b179055600554600454600180546040516001600160a01b039485169493841693909116917f7e89c4b1a4e2b51aae84eb1f90e8a34cb792ece5ac5cb63db4830c891220b28d916101c29190600290610357565b60405180910390a450565b6004546001600160a01b038281169116146101fa5760405162461bcd60e51b815260040161011f90610428565b6000600654600160a01b900460ff16600281111561021457fe5b146102315760405162461bcd60e51b815260040161011f906103f1565b6006805460ff60a01b1916600160a01b179055600554600454600180546040516001600160a01b039485169493841693909116917f7e89c4b1a4e2b51aae84eb1f90e8a34cb792ece5ac5cb63db4830c891220b28d916101c291908190610357565b600654600090600160a01b900460ff1660028111156102ae57fe5b905090565b6001546002546003546006546004546005546008546001600160a01b0396871697959694959385169492831693918316921690565b6000602082840312156102f9578081fd5b81356001600160a01b038116811461030f578182fd5b9392505050565b6001600160a01b03978816815260208101969096526040860194909452918516606085015284166080840152831660a083015290911660c082015260e00190565b918252602082015260400190565b602080825260199082015278141c9bd91d58dd081b9bdd081c1a58dad959081d5c081e595d603a1b604082015260600190565b60208082526039908201527f4f6e6c79204d616e756661637475726572206f6620746865207061636b6167656040820152782063616e20726563656965766520746865207061636b61676560381b606082015260800190565b6020808252601c908201527f5061636b616765206d75737420626520617420537570706c6965722e00000000604082015260600190565b60208082526030908201527f4f6e6c79207472616e73706f72746572206f6620746865207061636b6167652060408201526f63616e207069636b207061636b61676560801b606082015260800190565b9081526020019056fea264697066735822122013cad4dc0656dc075b5641cb18ae87efe7d7f216e4c11365c0a4d07279fc183564736f6c634300060600336080604052600060025534801561001557600080fd5b50604051610b74380380610b7483398101604081905261003491610059565b600080546001600160a01b0319166001600160a01b0392909216919091179055610087565b60006020828403121561006a578081fd5b81516001600160a01b0381168114610080578182fd5b9392505050565b610ade806100966000396000f3fe608060405234801561001057600080fd5b506004361061004c5760003560e01c806327506f53146100515780633626a3681461006f57806378ce1365146100845780639ace38c214610099575b600080fd5b6100596100bf565b60405161006691906108c3565b60405180910390f35b61008261007d3660046107bb565b6102c7565b005b61008c61050b565b6040516100669190610a87565b6100ac6100a7366004610853565b610511565b6040516100669796959493929190610990565b600254606090818167ffffffffffffffff811180156100dd57600080fd5b5060405190808252806020026020018201604052801561011757816020015b61010461066a565b8152602001906001900390816100fc5790505b50905060005b828110156102bf57600081815260016020818152604092839020835160e08101855281548152818401546001600160a01b0390811682850152600280840154909116828701526003830154606083015260048301805487516101009782161597909702600019011691909104601f81018590048502860185019096528585529094919360808601939092908301828280156101f95780601f106101ce576101008083540402835291602001916101f9565b820191906000526020600020905b8154815290600101906020018083116101dc57829003601f168201915b505050918352505060058201805460408051602060026001851615610100026000190190941693909304601f810184900484028201840190925281815293820193929183018282801561028d5780601f106102625761010080835404028352916020019161028d565b820191906000526020600020905b81548152906001019060200180831161027057829003601f168201915b505050505081526020016006820154815250508282815181106102ac57fe5b602090810291909101015260010161011d565b509150505b90565b60025442906103a6576040805160e0810182528881526001600160a01b038089166020808401918252898316848601908152606085018a8152608086018a815260a087018a905260c08701899052600280546000908152600180875299902088518155955198860180549988166001600160a01b03199a8b1617905592519285018054939096169290971691909117909355915160038201559251805192939261037792600485019201906106a5565b5060a082015180516103939160058401916020909101906106a5565b5060c082015181600601559050506104b5565b6002546000190160009081526001602052604090205484146103e35760405162461bcd60e51b81526004016103da90610a50565b60405180910390fd5b6040805160e0810182528881526001600160a01b038089166020808401918252898316848601908152606085018a8152608086018a815260a087018a905260c08701899052600280546000908152600180875299902088518155955198860180549988166001600160a01b03199a8b1617905592519285018054939096169290971691909117909355915160038201559251805192939261048a92600485019201906106a5565b5060a082015180516104a69160058401916020909101906106a5565b5060c082015181600601559050505b6002805460010190556040517f30d01d358fb0899fe4d50947b2e9301c952d9eed09b14c7ecdcbeed4434557c4906104fa90899089908990899087908a908a906109f0565b60405180910390a150505050505050565b60025481565b60016020818152600092835260409283902080548184015460028084015460038501546004860180548a516101009a8216159a909a02600019011693909304601f810188900488028901880190995288885293976001600160a01b039384169793909116959394938301828280156105ca5780601f1061059f576101008083540402835291602001916105ca565b820191906000526020600020905b8154815290600101906020018083116105ad57829003601f168201915b5050505060058301805460408051602060026001851615610100026000190190941693909304601f810184900484028201840190925281815294959493509083018282801561065a5780601f1061062f5761010080835404028352916020019161065a565b820191906000526020600020905b81548152906001019060200180831161063d57829003601f168201915b5050505050908060060154905087565b6040805160e08101825260008082526020820181905291810182905260608082018390526080820181905260a082015260c081019190915290565b828054600181600116156101000203166002900490600052602060002090601f016020900481019282601f106106e657805160ff1916838001178555610713565b82800160010185558215610713579182015b828111156107135782518255916020019190600101906106f8565b5061071f929150610723565b5090565b6102c491905b8082111561071f5760008155600101610729565b600082601f83011261074d578081fd5b813567ffffffffffffffff80821115610764578283fd5b604051601f8301601f191681016020018281118282101715610784578485fd5b60405282815292508284830160200186101561079f57600080fd5b8260208601602083013760006020848301015250505092915050565b60008060008060008060c087890312156107d3578182fd5b8635955060208701356107e581610a90565b945060408701356107f581610a90565b935060608701359250608087013567ffffffffffffffff80821115610818578384fd5b6108248a838b0161073d565b935060a0890135915080821115610839578283fd5b5061084689828a0161073d565b9150509295509295509295565b600060208284031215610864578081fd5b5035919050565b6001600160a01b03169052565b60008151808452815b8181101561089d57602081850181015186830182015201610881565b818111156108ae5782602083870101525b50601f01601f19169290920160200192915050565b60208082528251828201819052600091906040908185019080840286018301878501865b8381101561098257603f19898403018552815160e081518552888201516109108a87018261086b565b50878201516109218987018261086b565b506060808301518187015250608080830151828288015261094483880182610878565b91505060a0915081830151868203838801526109608282610878565b60c09485015197909401969096525050948701949250908601906001016108e7565b509098975050505050505050565b8781526001600160a01b038781166020830152861660408201526060810185905260e0608082018190526000906109c990830186610878565b82810360a08401526109db8186610878565b9150508260c083015298975050505050505050565b8781526001600160a01b03878116602083015286166040820152606081018590526080810184905260e060a08201819052600090610a3090830185610878565b82810360c0840152610a428185610878565b9a9950505050505050505050565b6020808252601b908201527f5472616e73616374696f6e206572726f72206f63637572726564210000000000604082015260600190565b90815260200190565b6001600160a01b0381168114610aa557600080fd5b5056fea2646970667358221220c6c2c5de3ad14cf38cf88b4f614921580977e7335ab6d4e2461cd9ff38b5fa8264736f6c63430006060033cfbd3a658e0a38877312e3f5767ddb0c6541620d7bd0368d43e0b94a55d9876ea26469706673582212208348ae6a6f6fe6bf302eb90268222ea8dacc2a755a6be002201d03cc2635251e64736f6c63430006060033",
  "immutableReferences": {},
  "source": "pragma solidity >=0.4.21 <0.7.0;\r\n// pragma solidity >=0.6.0 < 0.8.0;\r\npragma experimental ABIEncoderV2;\r\n\r\nimport './RawMaterial.sol';\r\nimport './Medicine.sol';\r\n\r\nimport './MedicineW_D.sol';\r\n\r\nimport './MedicineD_C.sol';\r\n\r\n\r\n\r\n\r\n\r\n\r\n\r\n//// New supply chain : supplier -> transporter -> manufacturer -> transporter -> whole-saler -> transporter -> distributor -> transporter -> customer/hospital/pharmacy\r\n\r\ncontract SupplyChain {\r\n    \r\n    address Owner;\r\n\r\n  \r\n    \r\n    constructor() public {\r\n        Owner = msg.sender;\r\n    }\r\n    \r\n    modifier onlyOwner() {\r\n        require(Owner == msg.sender);\r\n        _;\r\n    }\r\n    \r\n    modifier checkUser(address addr) {\r\n        require(addr == msg.sender);\r\n        _;\r\n    }\r\n    \r\n    enum roles {\r\n        noRole,\r\n        supplier,\r\n        transporter,\r\n        manufacturer,\r\n        wholesaler,\r\n        distributor,\r\n        customer,\r\n        Researcher\r\n    }\r\n\r\n    \r\n      \r\n    \r\n    //////////////// Events ////////////////////\r\n    \r\n    event UserRegister(address indexed _address, bytes32 name);\r\n    event buyEvent(address buyer, address indexed seller, address packageAddr, bytes signature, uint indexed timestamp);\r\n    event respondEvent(address indexed buyer, address seller, address packageAddr, bytes signature, uint indexed timestamp);\r\n    event sendEvent(address seller, address buyer, address indexed packageAddr, bytes signature, uint indexed timestamp);\r\n    event receivedEvent(address indexed buyer, address seller, address packageAddr, bytes signature, uint indexed timestamp);\r\n   \r\n    \r\n    //////////////// Event functions (All entities) ////////////////////\r\n\r\n    \r\n    function requestProduct(address buyer, address seller, address packageAddr, bytes memory signature) public {\r\n        emit buyEvent(buyer, seller, packageAddr, signature, now);\r\n    }\r\n    \r\n    function respondToEntity(address buyer, address seller, address packageAddr, bytes memory signature) public {\r\n        emit respondEvent(buyer, seller, packageAddr, signature, now);\r\n    }\r\n    \r\n    function sendPackageToEntity(address buyer, address seller, address packageAddr, bytes memory signature) public {\r\n        emit sendEvent(seller, buyer, packageAddr, signature, now);\r\n    }\r\n\r\n    /////// Registering a researcher //////////////////////\r\n    struct researcherData {\r\n        bytes32 name;\r\n        bytes32 institution;\r\n        bytes32 email;\r\n        bytes32 researchArea;\r\n        bytes32 qualifications;\r\n        bytes32 experience;\r\n        roles role;\r\n        address walletAddress;\r\n    }\r\n\r\n    mapping (address => researcherData) public researcherInfo;\r\n\r\n    uint counter = 0;\r\n\r\n\r\n    function registerResearcher(\r\n    bytes32 name,\r\n    bytes32 institution,\r\n    bytes32 email,\r\n    bytes32 researchArea,\r\n    bytes32 qualifications,\r\n    bytes32 experience,\r\n    uint role,\r\n    address walletAddress\r\n) public onlyOwner {\r\n    researcherInfo[msg.sender].name = name;\r\n    researcherInfo[msg.sender].institution = institution;\r\n    researcherInfo[msg.sender].email = email;\r\n    researcherInfo[msg.sender].researchArea = researchArea;\r\n    researcherInfo[msg.sender].qualifications = qualifications;\r\n    researcherInfo[msg.sender].experience = experience;\r\n    researcherInfo[msg.sender].role = roles(role);\r\n    researcherInfo[msg.sender].walletAddress = walletAddress;\r\n\r\n    emit UserRegister(msg.sender, name);\r\n}\r\n\r\n    \r\n    /////////////// Users (Only Owner Executable) //////////////////////\r\n    \r\n    struct userData {\r\n        bytes32 name;\r\n        string[] userLoc;\r\n        roles role;\r\n        address userAddr;\r\n    }\r\n    \r\n    mapping (address => userData) public userInfo;\r\n\r\n       // Modifier to check if the caller is a registered researcher\r\n    modifier onlyResearcher() {\r\n        require(researcherInfo[msg.sender].role == roles.Researcher, \"Only authorized researchers can access this function\");\r\n        _;\r\n    }\r\n    \r\n    function registerUser(bytes32 name, string[] memory loc, uint role, address _userAddr) public onlyOwner {\r\n        userInfo[_userAddr].name = name;\r\n        userInfo[_userAddr].userLoc = loc;\r\n        userInfo[_userAddr].role = roles(role);\r\n        userInfo[_userAddr].userAddr = _userAddr;\r\n        \r\n        emit UserRegister(_userAddr, name);\r\n    }\r\n\r\n///////////////// Storing all the side effects in the ipfs and the generated ipfs  hashes are stored on the blockchain\r\n\r\n\r\n   string[] public ipfsHashes; // Array to store IPFS hashes\r\n\r\n    // Event to log IPFS hash storage\r\n    event IPFSHashStored(string ipfsHash);\r\n\r\n    // Function to store IPFS hash\r\n    function storeIPFSHash(string memory hash) public {\r\n        ipfsHashes.push(hash); // Push the hash to the array\r\n        emit IPFSHashStored(hash); // Emit event to log the stored hash\r\n    }\r\n\r\n    // Function to retrieve all stored IPFS hashes\r\n    function getAllIPFSHashes() public returns (string[] memory) {\r\n        counter = counter + 1;\r\n        return ipfsHashes; // Return the array of IPFS hashes\r\n    }\r\n\r\n\r\n    ///////////////// Storing all the  Manufacturer logs  in the ipfs and the generated ipfs  hashes are stored on the blockchain\r\n\r\n    \r\n  string[] public mLogs; // Array to store IPFS hashes\r\n\r\n    // Event to log IPFS hash storage\r\n    event mLogStored(string mLog);\r\n\r\n    // Function to store IPFS hash\r\n    function storeMLogs(string memory hash) public {\r\n        mLogs.push(hash); // Push the hash to the array\r\n        emit mLogStored(hash); // Emit event to log the stored hash\r\n    }\r\n\r\n    // Function to retrieve all stored IPFS hashes\r\n    function getAllMLogs() public view returns (string[] memory) {\r\n        return mLogs; // Return the array of IPFS hashes\r\n    }\r\n\r\n   ///// Function to get all the ipfs hashes only by the authorized researcher\r\n\r\n   // Function to retrieve all stored IPFS hashes\r\n    function getAllIPFSHash() public  onlyResearcher returns (string[] memory) {\r\n        counter = counter + 1;\r\n        return ipfsHashes; // Return the array of IPFS hashes\r\n    }\r\n\r\n \r\n    // function changeUserRole(uint _role, address _addr) public onlyOwner returns(string memory) {\r\n    //     userInfo[_addr].role = roles(_role);\r\n    //    return \"Role Updated!\";\r\n    // }\r\n    \r\n    function getUserInfo(address _address) public view returns(\r\n        userData memory\r\n        ) {\r\n        return userInfo[_address];\r\n    }\r\n    \r\n\r\n    /////////////// Supplier //////////////////////\r\n    \r\n    mapping (address => address[]) public supplierRawMaterials;\r\n    \r\n    \r\n    function createRawMaterialPackage(\r\n        bytes32 _description,\r\n        uint _quantity,\r\n        address _transporterAddr,\r\n        address _manufacturerAddr\r\n    ) public returns(address) {\r\n\r\n        RawMaterial rawMaterial = new RawMaterial(\r\n            msg.sender,\r\n            address(bytes20(sha256(abi.encodePacked(msg.sender, now)))),\r\n            _description,\r\n            _quantity,\r\n            _transporterAddr,\r\n            _manufacturerAddr\r\n        );\r\n        \r\n        supplierRawMaterials[msg.sender].push(address(rawMaterial));\r\n        return address(rawMaterial);\r\n    }\r\n    \r\n    function getNoOfPackagesOfSupplier() public view returns(uint) {\r\n        return supplierRawMaterials[msg.sender].length;\r\n    }\r\n    \r\n    \r\n    function getAllPackages() public view returns(address[] memory) {\r\n        uint len = supplierRawMaterials[msg.sender].length;\r\n        address[] memory ret = new address[](len);\r\n        for (uint i = 0; i < len; i++) {\r\n            ret[i] = supplierRawMaterials[msg.sender][i];\r\n        }\r\n        return ret;\r\n    }\r\n    \r\n    ///////////////  Transporter ///////////////\r\n    \r\n    \r\n    function transporterHandlePackage(\r\n        address _addr,\r\n        uint transportertype,\r\n        address cid\r\n        ) public {\r\n            \r\n        require(\r\n            userInfo[msg.sender].role == roles.transporter,\r\n            \"Only Transporter can call this function\"\r\n        );\r\n        require(\r\n            transportertype > 0,\r\n            \"Transporter Type is incorrect\"\r\n        );\r\n        \r\n        if(transportertype == 1) { \r\n            /// Supplier -> Manufacturer\r\n            RawMaterial(_addr).pickPackage(msg.sender);\r\n        } else if(transportertype == 2) { \r\n            /// Manufacturer -> Wholesaler\r\n            Medicine(_addr).pickMedicine(msg.sender);\r\n        } else if(transportertype == 3) {   \r\n            // Wholesaler to Distributor\r\n            MedicineW_D(cid).pickWD(_addr, msg.sender);\r\n        } else if(transportertype == 4) {   \r\n            // Distrubutor to Customer\r\n            MedicineD_C(cid).pickDC(_addr, msg.sender);\r\n        }\r\n    }\r\n    \r\n    \r\n    mapping (address => address[]) public manufacturerRawMaterials;\r\n    mapping (address => address[]) public manufacturerMedicines;\r\n\r\n//\r\n    function manufacturerReceivedPackage(\r\n        address _addr,\r\n        address _manufacturerAddress,\r\n        address _sellerAddr,\r\n        bytes memory signature\r\n        ) public {\r\n            \r\n        RawMaterial(_addr).receivedPackage(_manufacturerAddress);\r\n        manufacturerRawMaterials[_manufacturerAddress].push(_addr);\r\n        emit receivedEvent(msg.sender, _sellerAddr, _addr, signature, now);\r\n    }\r\n    \r\n    function getAllRawMaterials() public view returns(address[] memory) {\r\n        uint len = manufacturerRawMaterials[msg.sender].length;\r\n        address[] memory ret = new address[](len);\r\n        for (uint i = 0; i < len; i++) {\r\n            ret[i] = manufacturerRawMaterials[msg.sender][i];\r\n        }\r\n        return ret;\r\n    }\r\n\r\n    function manufacturerCreatesMedicine(\r\n        address _manufacturerAddr,\r\n        bytes32 _description,\r\n        address[] memory _rawAddr,\r\n        uint _quantity,\r\n        address[] memory _transporterAddr\r\n        ) public {\r\n            \r\n        Medicine _medicine = new Medicine(\r\n            _manufacturerAddr,\r\n            _description,\r\n            _rawAddr,\r\n            _quantity,\r\n            _transporterAddr\r\n        );\r\n        \r\n        manufacturerMedicines[_manufacturerAddr].push(address(_medicine));\r\n        \r\n    }\r\n    \r\n    function getAllCreatedMedicines() public view returns(address[] memory) {\r\n        uint len = manufacturerMedicines[msg.sender].length;\r\n        address[] memory ret = new address[](len);\r\n        for (uint i = 0; i < len; i++) {\r\n            ret[i] = manufacturerMedicines[msg.sender][i];\r\n        }\r\n        return ret;\r\n    }\r\n\r\n//  \r\n    \r\n\r\n    ///////////////  Wholesaler  ///////////////\r\n\r\n    mapping(address => address[]) public MedicinesAtWholesaler;\r\n    mapping(address => address[]) public MedicineWtoD;\r\n    mapping(address => address) public MedicineWtoDTxContract;\r\n    \r\n    function wholesalerReceivedMedicine(\r\n        address _address,\r\n        address _sellerAddr,\r\n        bytes memory signature\r\n        ) public {\r\n        require(\r\n            userInfo[msg.sender].role == roles.wholesaler,\r\n            \"Only Wholesaler can call this function\"\r\n        );\r\n        \r\n        uint rtype = Medicine(_address).receivedMedicine(msg.sender);\r\n        MedicinesAtWholesaler[msg.sender].push(_address);\r\n        emit receivedEvent(msg.sender, _sellerAddr, _address, signature, now);\r\n    }\r\n    \r\n    function transferMedicineWtoD(\r\n            address _address,\r\n            address transporter,\r\n            address receiver\r\n        ) public {\r\n            \r\n        MedicineW_D wd = new MedicineW_D(\r\n            _address,\r\n            msg.sender,\r\n            transporter,\r\n            receiver\r\n        );\r\n        MedicineWtoD[msg.sender].push(address(wd));\r\n        MedicineWtoDTxContract[_address] = address(wd);\r\n    }\r\n\r\n   \r\n    // function getSubContractWD(address _address) public view returns (address SubContractWD) {\r\n    //     return MedicineWtoDTxContract[_address];\r\n    // }\r\n    \r\n    // function getAllMedicinesAtWholesaler() public view returns(address[] memory) {\r\n    //     uint len = MedicinesAtWholesaler[msg.sender].length;\r\n    //     address[] memory ret = new address[](len);\r\n    //     for (uint i = 0; i < len; i++) {\r\n    //         ret[i] = MedicinesAtWholesaler[msg.sender][i];\r\n    //     }\r\n    //     return ret;\r\n    // }\r\n\r\n\r\n//     ///////////////  Distributor  ///////////////\r\n\r\n    mapping(address => address[]) public MedicinesAtDistributor;\r\n    mapping(address => address[]) public MedicineDtoC;\r\n    mapping(address => address) public MedicineDtoCTxContract;\r\n\r\n\r\n    function distributorReceivedMedicine(\r\n      address _address,\r\n      address cid,\r\n      address _sellerAddr,\r\n      bytes memory signature\r\n    ) public {\r\n        require(\r\n            userInfo[msg.sender].role == roles.distributor &&\r\n            msg.sender == Medicine(_address).getWDC()[1],\r\n            \"Only Distributor or current owner of package can call this function\"  \r\n        );\r\n        \r\n        uint rtype = Medicine(_address).receivedMedicine(msg.sender);\r\n        if(rtype == 2){\r\n            MedicinesAtDistributor[msg.sender].push(_address);\r\n            if(Medicine(_address).getWDC()[0] != address(0)){\r\n                MedicineW_D(cid).receiveWD(_address, msg.sender);\r\n            }\r\n        }\r\n        emit receivedEvent(msg.sender, _sellerAddr, _address, signature, now);\r\n    }\r\n\r\n    // function distributorTransferMedicinetoCustomer(\r\n    //     address _address,\r\n    //     address transporter,\r\n    //     address receiver\r\n    // ) public {\r\n    //     require(\r\n    //         userInfo[msg.sender].role == roles.distributor &&\r\n    //         msg.sender == Medicine(_address).getWDC()[1],\r\n    //         \"Only Distributor or current owner of package can call this function\"\r\n    //     );\r\n    //     MedicineD_C dp = new MedicineD_C(\r\n    //         _address,\r\n    //         msg.sender,\r\n    //         transporter,\r\n    //         receiver\r\n    //     );\r\n    //     MedicineDtoC[msg.sender].push(address(dp));\r\n    //     MedicineDtoCTxContract[_address] = address(dp);\r\n    // }\r\n    \r\n    // function getBatchesCountDC() public view returns (uint count){\r\n    //     require(\r\n    //         userInfo[msg.sender].role == roles.distributor,\r\n    //         \"Only Distributor Can call this function.\"\r\n    //     );\r\n    //     return MedicineDtoC[msg.sender].length;\r\n    // }\r\n\r\n    // function getBatchIdByIndexDC(uint index) public view returns(address packageID) {\r\n    //     require(\r\n    //         userInfo[msg.sender].role == roles.distributor,\r\n    //         \"Only Distributor Can call this function.\"\r\n    //     );\r\n    //     return MedicineDtoC[msg.sender][index];\r\n    // }\r\n\r\n    // function getSubContractDC(address _address) public view returns (address SubContractDP) {\r\n    //     return MedicineDtoCTxContract[_address];\r\n    // }\r\n    \r\n    // function getAllMedicinesAtDistributor() public view returns(address[] memory) {\r\n    //     uint len = MedicinesAtDistributor[msg.sender].length;\r\n    //     address[] memory ret = new address[](len);\r\n    //     for (uint i = 0; i < len; i++) {\r\n    //         ret[i] = MedicinesAtDistributor[msg.sender][i];\r\n    //     }\r\n    //     return ret;\r\n    // }\r\n    \r\n    \r\n//     ///////////////  Customer  ///////////////\r\n    \r\n    \r\n//     function customerReceivedMedicine(\r\n//         address _address,\r\n//         address cid\r\n//     ) public {\r\n//         require(\r\n//             userInfo[msg.sender].role == roles.customer,\r\n//             \"Only Customer Can call this function.\"\r\n//         );\r\n//         medicineRecievedAtCustomer(_address, cid);\r\n//     }\r\n\r\n//     function updateStatus(\r\n//         address _address,\r\n//         uint Status\r\n//     ) public {\r\n//         require(\r\n//             userInfo[msg.sender].role == roles.customer &&\r\n//             msg.sender == Medicine(_address).getWDC()[2],\r\n//             \"Only Customer or current owner of package can call this function\"\r\n//         );\r\n//         require(sale[_address] == salestatus(1), \"Medicine Must be at Customer\");\r\n        \r\n//         updateSaleStatus(_address, Status);\r\n//     }\r\n\r\n//     function getSalesInfo(\r\n//         address _address\r\n//     ) public\r\n//     view\r\n//     returns(\r\n//         uint Status \r\n//     ){\r\n//         return salesInfo(_address);\r\n//     }\r\n\r\n    \r\n//     function getBatchesCountC() public view returns(uint count) {\r\n//         require(\r\n//             userInfo[msg.sender].role == roles.customer,\r\n//             \"Only Wholesaler or current owner of package can call this function\"\r\n//         );\r\n//         return  MedicineBatchAtCustomer[msg.sender].length;\r\n//     }\r\n\r\n//     function getBatchIdByIndexC(uint index) public view returns(address _address) {\r\n//         require(\r\n//             userInfo[msg.sender].role == roles.customer,\r\n//             \"Only Wholesaler or current owner of package can call this function\"\r\n//         );\r\n//         return MedicineBatchAtCustomer[msg.sender][index];\r\n//     }\r\n\r\n    function verify(address p, bytes32 hash, uint8 v, bytes32 r, bytes32 s) public pure returns(bool) {\r\n        return ecrecover(hash, v, r, s) == p;\r\n    }   \r\n}\r\n    ",
  "sourcePath": "D:\\Researcher-Integration-Drug-Traceability-Blockchain\\testing\\Testing.sol",
  "compiler": {
    "name": "solc",
    "version": "0.6.6+commit.6c089d02.Emscripten.clang"
  },
  "schemaVersion": "3.4.16",
  "updatedAt": "2024-04-23T20:47:57.418Z",
  "networkType": "ethereum",
  "devdoc": {
    "methods": {}
  },
  "userdoc": {
    "methods": {
      "getAllIPFSHash()": {
        "notice": "// Function to get all the ipfs hashes only by the authorized researcher"
      },
      "requestProduct(address,address,address,bytes)": {
        "notice": "///////////// Event functions (All entities) ////////////////////"
      },
      "transporterHandlePackage(address,uint256,address)": {
        "notice": "////////////  Transporter ///////////////"
      }
    },
    "notice": "/ New supply chain : supplier -> transporter -> manufacturer -> transporter -> whole-saler -> transporter -> distributor -> transporter -> customer/hospital/pharmacy"
  }
}