{
  "contractName": "SupplyChain",
  "abi": [
    {
      "inputs": [],
      "stateMutability": "nonpayable",
      "type": "constructor"
    },
    {
      "anonymous": false,
      "inputs": [
        {
          "indexed": false,
          "internalType": "string",
          "name": "ipfsHash",
          "type": "string"
        }
      ],
      "name": "IPFSHashStored",
      "type": "event"
    },
    {
      "anonymous": false,
      "inputs": [
        {
          "indexed": true,
          "internalType": "address",
          "name": "_address",
          "type": "address"
        },
        {
          "indexed": false,
          "internalType": "bytes32",
          "name": "name",
          "type": "bytes32"
        }
      ],
      "name": "UserRegister",
      "type": "event"
    },
    {
      "anonymous": false,
      "inputs": [
        {
          "indexed": false,
          "internalType": "address",
          "name": "buyer",
          "type": "address"
        },
        {
          "indexed": true,
          "internalType": "address",
          "name": "seller",
          "type": "address"
        },
        {
          "indexed": false,
          "internalType": "address",
          "name": "packageAddr",
          "type": "address"
        },
        {
          "indexed": false,
          "internalType": "bytes",
          "name": "signature",
          "type": "bytes"
        },
        {
          "indexed": true,
          "internalType": "uint256",
          "name": "timestamp",
          "type": "uint256"
        }
      ],
      "name": "buyEvent",
      "type": "event"
    },
    {
      "anonymous": false,
      "inputs": [
        {
          "indexed": false,
          "internalType": "string",
          "name": "mLog",
          "type": "string"
        }
      ],
      "name": "mLogStored",
      "type": "event"
    },
    {
      "anonymous": false,
      "inputs": [
        {
          "indexed": true,
          "internalType": "address",
          "name": "buyer",
          "type": "address"
        },
        {
          "indexed": false,
          "internalType": "address",
          "name": "seller",
          "type": "address"
        },
        {
          "indexed": false,
          "internalType": "address",
          "name": "packageAddr",
          "type": "address"
        },
        {
          "indexed": false,
          "internalType": "bytes",
          "name": "signature",
          "type": "bytes"
        },
        {
          "indexed": true,
          "internalType": "uint256",
          "name": "timestamp",
          "type": "uint256"
        }
      ],
      "name": "receivedEvent",
      "type": "event"
    },
    {
      "anonymous": false,
      "inputs": [
        {
          "indexed": true,
          "internalType": "address",
          "name": "buyer",
          "type": "address"
        },
        {
          "indexed": false,
          "internalType": "address",
          "name": "seller",
          "type": "address"
        },
        {
          "indexed": false,
          "internalType": "address",
          "name": "packageAddr",
          "type": "address"
        },
        {
          "indexed": false,
          "internalType": "bytes",
          "name": "signature",
          "type": "bytes"
        },
        {
          "indexed": true,
          "internalType": "uint256",
          "name": "timestamp",
          "type": "uint256"
        }
      ],
      "name": "respondEvent",
      "type": "event"
    },
    {
      "anonymous": false,
      "inputs": [
        {
          "indexed": false,
          "internalType": "address",
          "name": "seller",
          "type": "address"
        },
        {
          "indexed": false,
          "internalType": "address",
          "name": "buyer",
          "type": "address"
        },
        {
          "indexed": true,
          "internalType": "address",
          "name": "packageAddr",
          "type": "address"
        },
        {
          "indexed": false,
          "internalType": "bytes",
          "name": "signature",
          "type": "bytes"
        },
        {
          "indexed": true,
          "internalType": "uint256",
          "name": "timestamp",
          "type": "uint256"
        }
      ],
      "name": "sendEvent",
      "type": "event"
    },
    {
      "inputs": [
        {
          "internalType": "address",
          "name": "",
          "type": "address"
        },
        {
          "internalType": "uint256",
          "name": "",
          "type": "uint256"
        }
      ],
      "name": "MedicineDtoC",
      "outputs": [
        {
          "internalType": "address",
          "name": "",
          "type": "address"
        }
      ],
      "stateMutability": "view",
      "type": "function",
      "constant": true
    },
    {
      "inputs": [
        {
          "internalType": "address",
          "name": "",
          "type": "address"
        }
      ],
      "name": "MedicineDtoCTxContract",
      "outputs": [
        {
          "internalType": "address",
          "name": "",
          "type": "address"
        }
      ],
      "stateMutability": "view",
      "type": "function",
      "constant": true
    },
    {
      "inputs": [
        {
          "internalType": "address",
          "name": "",
          "type": "address"
        },
        {
          "internalType": "uint256",
          "name": "",
          "type": "uint256"
        }
      ],
      "name": "MedicineWtoD",
      "outputs": [
        {
          "internalType": "address",
          "name": "",
          "type": "address"
        }
      ],
      "stateMutability": "view",
      "type": "function",
      "constant": true
    },
    {
      "inputs": [
        {
          "internalType": "address",
          "name": "",
          "type": "address"
        }
      ],
      "name": "MedicineWtoDTxContract",
      "outputs": [
        {
          "internalType": "address",
          "name": "",
          "type": "address"
        }
      ],
      "stateMutability": "view",
      "type": "function",
      "constant": true
    },
    {
      "inputs": [
        {
          "internalType": "address",
          "name": "",
          "type": "address"
        },
        {
          "internalType": "uint256",
          "name": "",
          "type": "uint256"
        }
      ],
      "name": "MedicinesAtDistributor",
      "outputs": [
        {
          "internalType": "address",
          "name": "",
          "type": "address"
        }
      ],
      "stateMutability": "view",
      "type": "function",
      "constant": true
    },
    {
      "inputs": [
        {
          "internalType": "address",
          "name": "",
          "type": "address"
        },
        {
          "internalType": "uint256",
          "name": "",
          "type": "uint256"
        }
      ],
      "name": "MedicinesAtWholesaler",
      "outputs": [
        {
          "internalType": "address",
          "name": "",
          "type": "address"
        }
      ],
      "stateMutability": "view",
      "type": "function",
      "constant": true
    },
    {
      "inputs": [
        {
          "internalType": "uint256",
          "name": "",
          "type": "uint256"
        }
      ],
      "name": "ipfsHashes",
      "outputs": [
        {
          "internalType": "string",
          "name": "",
          "type": "string"
        }
      ],
      "stateMutability": "view",
      "type": "function",
      "constant": true
    },
    {
      "inputs": [
        {
          "internalType": "uint256",
          "name": "",
          "type": "uint256"
        }
      ],
      "name": "mLogs",
      "outputs": [
        {
          "internalType": "string",
          "name": "",
          "type": "string"
        }
      ],
      "stateMutability": "view",
      "type": "function",
      "constant": true
    },
    {
      "inputs": [
        {
          "internalType": "address",
          "name": "",
          "type": "address"
        },
        {
          "internalType": "uint256",
          "name": "",
          "type": "uint256"
        }
      ],
      "name": "manufacturerMedicines",
      "outputs": [
        {
          "internalType": "address",
          "name": "",
          "type": "address"
        }
      ],
      "stateMutability": "view",
      "type": "function",
      "constant": true
    },
    {
      "inputs": [
        {
          "internalType": "address",
          "name": "",
          "type": "address"
        },
        {
          "internalType": "uint256",
          "name": "",
          "type": "uint256"
        }
      ],
      "name": "manufacturerRawMaterials",
      "outputs": [
        {
          "internalType": "address",
          "name": "",
          "type": "address"
        }
      ],
      "stateMutability": "view",
      "type": "function",
      "constant": true
    },
    {
      "inputs": [
        {
          "internalType": "address",
          "name": "",
          "type": "address"
        }
      ],
      "name": "researcherInfo",
      "outputs": [
        {
          "internalType": "bytes32",
          "name": "name",
          "type": "bytes32"
        },
        {
          "internalType": "bytes32",
          "name": "institution",
          "type": "bytes32"
        },
        {
          "internalType": "bytes32",
          "name": "email",
          "type": "bytes32"
        },
        {
          "internalType": "bytes32",
          "name": "researchArea",
          "type": "bytes32"
        },
        {
          "internalType": "bytes32",
          "name": "qualifications",
          "type": "bytes32"
        },
        {
          "internalType": "bytes32",
          "name": "experience",
          "type": "bytes32"
        },
        {
          "internalType": "string",
          "name": "role",
          "type": "string"
        },
        {
          "internalType": "address",
          "name": "walletAddress",
          "type": "address"
        }
      ],
      "stateMutability": "view",
      "type": "function",
      "constant": true
    },
    {
      "inputs": [
        {
          "internalType": "address",
          "name": "",
          "type": "address"
        },
        {
          "internalType": "uint256",
          "name": "",
          "type": "uint256"
        }
      ],
      "name": "supplierRawMaterials",
      "outputs": [
        {
          "internalType": "address",
          "name": "",
          "type": "address"
        }
      ],
      "stateMutability": "view",
      "type": "function",
      "constant": true
    },
    {
      "inputs": [
        {
          "internalType": "address",
          "name": "",
          "type": "address"
        }
      ],
      "name": "userInfo",
      "outputs": [
        {
          "internalType": "bytes32",
          "name": "name",
          "type": "bytes32"
        },
        {
          "internalType": "enum SupplyChain.roles",
          "name": "role",
          "type": "uint8"
        },
        {
          "internalType": "address",
          "name": "userAddr",
          "type": "address"
        }
      ],
      "stateMutability": "view",
      "type": "function",
      "constant": true
    },
    {
      "inputs": [
        {
          "internalType": "address",
          "name": "buyer",
          "type": "address"
        },
        {
          "internalType": "address",
          "name": "seller",
          "type": "address"
        },
        {
          "internalType": "address",
          "name": "packageAddr",
          "type": "address"
        },
        {
          "internalType": "bytes",
          "name": "signature",
          "type": "bytes"
        }
      ],
      "name": "requestProduct",
      "outputs": [],
      "stateMutability": "nonpayable",
      "type": "function"
    },
    {
      "inputs": [
        {
          "internalType": "address",
          "name": "buyer",
          "type": "address"
        },
        {
          "internalType": "address",
          "name": "seller",
          "type": "address"
        },
        {
          "internalType": "address",
          "name": "packageAddr",
          "type": "address"
        },
        {
          "internalType": "bytes",
          "name": "signature",
          "type": "bytes"
        }
      ],
      "name": "respondToEntity",
      "outputs": [],
      "stateMutability": "nonpayable",
      "type": "function"
    },
    {
      "inputs": [
        {
          "internalType": "address",
          "name": "buyer",
          "type": "address"
        },
        {
          "internalType": "address",
          "name": "seller",
          "type": "address"
        },
        {
          "internalType": "address",
          "name": "packageAddr",
          "type": "address"
        },
        {
          "internalType": "bytes",
          "name": "signature",
          "type": "bytes"
        }
      ],
      "name": "sendPackageToEntity",
      "outputs": [],
      "stateMutability": "nonpayable",
      "type": "function"
    },
    {
      "inputs": [
        {
          "internalType": "bytes32",
          "name": "name",
          "type": "bytes32"
        },
        {
          "internalType": "bytes32",
          "name": "institution",
          "type": "bytes32"
        },
        {
          "internalType": "bytes32",
          "name": "email",
          "type": "bytes32"
        },
        {
          "internalType": "bytes32",
          "name": "researchArea",
          "type": "bytes32"
        },
        {
          "internalType": "bytes32",
          "name": "qualifications",
          "type": "bytes32"
        },
        {
          "internalType": "bytes32",
          "name": "experience",
          "type": "bytes32"
        },
        {
          "internalType": "string",
          "name": "role",
          "type": "string"
        },
        {
          "internalType": "address",
          "name": "walletAddress",
          "type": "address"
        }
      ],
      "name": "registerResearcher",
      "outputs": [],
      "stateMutability": "nonpayable",
      "type": "function"
    },
    {
      "inputs": [
        {
          "internalType": "bytes32",
          "name": "name",
          "type": "bytes32"
        },
        {
          "internalType": "string[]",
          "name": "loc",
          "type": "string[]"
        },
        {
          "internalType": "uint256",
          "name": "role",
          "type": "uint256"
        },
        {
          "internalType": "address",
          "name": "_userAddr",
          "type": "address"
        }
      ],
      "name": "registerUser",
      "outputs": [],
      "stateMutability": "nonpayable",
      "type": "function"
    },
    {
      "inputs": [
        {
          "internalType": "bytes32",
          "name": "_hash",
          "type": "bytes32"
        },
        {
          "internalType": "bytes",
          "name": "_signature",
          "type": "bytes"
        }
      ],
      "name": "recoverSigner",
      "outputs": [
        {
          "internalType": "address",
          "name": "",
          "type": "address"
        }
      ],
      "stateMutability": "pure",
      "type": "function",
      "constant": true
    },
    {
      "inputs": [
        {
          "internalType": "string",
          "name": "hash",
          "type": "string"
        }
      ],
      "name": "storeIPFSHash",
      "outputs": [],
      "stateMutability": "nonpayable",
      "type": "function"
    },
    {
      "inputs": [
        {
          "internalType": "bytes",
          "name": "_signature",
          "type": "bytes"
        }
      ],
      "name": "getAllIPFSHashes",
      "outputs": [
        {
          "internalType": "string[]",
          "name": "",
          "type": "string[]"
        }
      ],
      "stateMutability": "nonpayable",
      "type": "function"
    },
    {
      "inputs": [
        {
          "internalType": "string",
          "name": "hash",
          "type": "string"
        }
      ],
      "name": "storeMLogs",
      "outputs": [],
      "stateMutability": "nonpayable",
      "type": "function"
    },
    {
      "inputs": [],
      "name": "getAllMLogs",
      "outputs": [
        {
          "internalType": "string[]",
          "name": "",
          "type": "string[]"
        }
      ],
      "stateMutability": "view",
      "type": "function",
      "constant": true
    },
    {
      "inputs": [
        {
          "internalType": "address",
          "name": "_address",
          "type": "address"
        }
      ],
      "name": "getUserInfo",
      "outputs": [
        {
          "components": [
            {
              "internalType": "bytes32",
              "name": "name",
              "type": "bytes32"
            },
            {
              "internalType": "string[]",
              "name": "userLoc",
              "type": "string[]"
            },
            {
              "internalType": "enum SupplyChain.roles",
              "name": "role",
              "type": "uint8"
            },
            {
              "internalType": "address",
              "name": "userAddr",
              "type": "address"
            }
          ],
          "internalType": "struct SupplyChain.userData",
          "name": "",
          "type": "tuple"
        }
      ],
      "stateMutability": "view",
      "type": "function",
      "constant": true
    },
    {
      "inputs": [
        {
          "internalType": "bytes32",
          "name": "_description",
          "type": "bytes32"
        },
        {
          "internalType": "uint256",
          "name": "_quantity",
          "type": "uint256"
        },
        {
          "internalType": "address",
          "name": "_transporterAddr",
          "type": "address"
        },
        {
          "internalType": "address",
          "name": "_manufacturerAddr",
          "type": "address"
        }
      ],
      "name": "createRawMaterialPackage",
      "outputs": [
        {
          "internalType": "address",
          "name": "",
          "type": "address"
        }
      ],
      "stateMutability": "nonpayable",
      "type": "function"
    },
    {
      "inputs": [],
      "name": "getNoOfPackagesOfSupplier",
      "outputs": [
        {
          "internalType": "uint256",
          "name": "",
          "type": "uint256"
        }
      ],
      "stateMutability": "view",
      "type": "function",
      "constant": true
    },
    {
      "inputs": [],
      "name": "getAllPackages",
      "outputs": [
        {
          "internalType": "address[]",
          "name": "",
          "type": "address[]"
        }
      ],
      "stateMutability": "view",
      "type": "function",
      "constant": true
    },
    {
      "inputs": [
        {
          "internalType": "address",
          "name": "_addr",
          "type": "address"
        },
        {
          "internalType": "uint256",
          "name": "transportertype",
          "type": "uint256"
        },
        {
          "internalType": "address",
          "name": "cid",
          "type": "address"
        }
      ],
      "name": "transporterHandlePackage",
      "outputs": [],
      "stateMutability": "nonpayable",
      "type": "function"
    },
    {
      "inputs": [
        {
          "internalType": "address",
          "name": "_addr",
          "type": "address"
        },
        {
          "internalType": "address",
          "name": "_manufacturerAddress",
          "type": "address"
        },
        {
          "internalType": "address",
          "name": "_sellerAddr",
          "type": "address"
        },
        {
          "internalType": "bytes",
          "name": "signature",
          "type": "bytes"
        }
      ],
      "name": "manufacturerReceivedPackage",
      "outputs": [],
      "stateMutability": "nonpayable",
      "type": "function"
    },
    {
      "inputs": [],
      "name": "getAllRawMaterials",
      "outputs": [
        {
          "internalType": "address[]",
          "name": "",
          "type": "address[]"
        }
      ],
      "stateMutability": "view",
      "type": "function",
      "constant": true
    },
    {
      "inputs": [
        {
          "internalType": "address",
          "name": "_manufacturerAddr",
          "type": "address"
        },
        {
          "internalType": "bytes32",
          "name": "_description",
          "type": "bytes32"
        },
        {
          "internalType": "address[]",
          "name": "_rawAddr",
          "type": "address[]"
        },
        {
          "internalType": "uint256",
          "name": "_quantity",
          "type": "uint256"
        },
        {
          "internalType": "address[]",
          "name": "_transporterAddr",
          "type": "address[]"
        }
      ],
      "name": "manufacturerCreatesMedicine",
      "outputs": [],
      "stateMutability": "nonpayable",
      "type": "function"
    },
    {
      "inputs": [],
      "name": "getAllCreatedMedicines",
      "outputs": [
        {
          "internalType": "address[]",
          "name": "",
          "type": "address[]"
        }
      ],
      "stateMutability": "view",
      "type": "function",
      "constant": true
    },
    {
      "inputs": [
        {
          "internalType": "address",
          "name": "_address",
          "type": "address"
        },
        {
          "internalType": "address",
          "name": "_sellerAddr",
          "type": "address"
        },
        {
          "internalType": "bytes",
          "name": "signature",
          "type": "bytes"
        }
      ],
      "name": "wholesalerReceivedMedicine",
      "outputs": [],
      "stateMutability": "nonpayable",
      "type": "function"
    },
    {
      "inputs": [
        {
          "internalType": "address",
          "name": "_address",
          "type": "address"
        },
        {
          "internalType": "address",
          "name": "transporter",
          "type": "address"
        },
        {
          "internalType": "address",
          "name": "receiver",
          "type": "address"
        }
      ],
      "name": "transferMedicineWtoD",
      "outputs": [],
      "stateMutability": "nonpayable",
      "type": "function"
    },
    {
      "inputs": [
        {
          "internalType": "address",
          "name": "_address",
          "type": "address"
        },
        {
          "internalType": "address",
          "name": "cid",
          "type": "address"
        },
        {
          "internalType": "address",
          "name": "_sellerAddr",
          "type": "address"
        },
        {
          "internalType": "bytes",
          "name": "signature",
          "type": "bytes"
        }
      ],
      "name": "distributorReceivedMedicine",
      "outputs": [],
      "stateMutability": "nonpayable",
      "type": "function"
    },
    {
      "inputs": [
        {
          "internalType": "address",
          "name": "p",
          "type": "address"
        },
        {
          "internalType": "bytes32",
          "name": "hash",
          "type": "bytes32"
        },
        {
          "internalType": "uint8",
          "name": "v",
          "type": "uint8"
        },
        {
          "internalType": "bytes32",
          "name": "r",
          "type": "bytes32"
        },
        {
          "internalType": "bytes32",
          "name": "s",
          "type": "bytes32"
        }
      ],
      "name": "verify",
      "outputs": [
        {
          "internalType": "bool",
          "name": "",
          "type": "bool"
        }
      ],
      "stateMutability": "pure",
      "type": "function",
      "constant": true
    }
  ],
  "bytecode": "0x6080604052600060035534801561001557600080fd5b50600080546001600160a01b03191633179055615cf8806100376000396000f3fe60806040523480156200001157600080fd5b5060043610620002085760003560e01c80638dfa742d116200011d578063be7ef9c011620000ab578063be7ef9c014620004df578063c22470ea14620004f6578063d06f7b55146200050f578063e0cf92fe1462000526578063ee969178146200053d578063f06822d81462000554578063fac0992d146200056b578063fc7e01f31462000575578063fd302c35146200058c5762000208565b80638dfa742d146200040e57806396598038146200042557806397aba7f9146200043c578063a205a1231462000453578063a4de2f5c146200045d578063a999cca11462000483578063b0fc028d146200049a578063b8b16ca314620004b1578063bc2003c814620004c85762000208565b8063412afbaf116200019b578063412afbaf146200031f5780634492801914620003365780634836c9f9146200034f5780634e31ad9d1462000366578063506535f3146200037d5780636386c1c714620003a3578063798a826f14620003c95780637a0689f014620003e05780638ccc8db714620003f75762000208565b8063050e70db146200020d57806306db8324146200023c5780630a421f0f14620002535780631959a002146200026c5780631d2c0a4114620002945780631f90ddaf14620002c15780632175af9614620002da57806327ddcd2514620002f1578063381cb0dc1462000308575b600080fd5b620002246200021e3660046200226c565b620005a3565b604051620002339190620026d3565b60405180910390f35b620002246200024d3660046200226c565b620005d9565b6200025d620005f3565b604051620002339190620027ec565b620002836200027d36600462002029565b620006c8565b604051620002339392919062002882565b620002ab620002a536600462002029565b620006f4565b604051620002339897969594939291906200282a565b620002d8620002d236600462002367565b620007e1565b005b620002d8620002eb36600462002424565b620008e0565b620002d86200030236600462002183565b62000b17565b620002d8620003193660046200211c565b62000b9e565b62000224620003303660046200226c565b62000ce3565b6200034062000cfd565b60405162000233919062002801565b620003406200036036600462002549565b62000ddb565b620002d86200037736600462002549565b62000f3e565b620003946200038e36600462002212565b62000fc0565b60405162000233919062002816565b620003ba620003b436600462002029565b62001033565b60405162000233919062002a3e565b62000224620003da36600462002029565b6200118a565b620002d8620003f1366004620020a0565b620011a5565b62000224620004083660046200226c565b6200146c565b620002246200041f3660046200226c565b62001486565b620002d862000436366004620020a0565b620014a0565b620002246200044d366004620024b3565b6200156b565b6200025d620015de565b620004746200046e36600462002587565b620016ab565b604051620002339190620028cf565b62000224620004943660046200226c565b62001756565b62000224620004ab36600462002029565b62001770565b620002d8620004c2366004620020a0565b6200178b565b620002d8620004d936600462002549565b620017cb565b620002d8620004f03660046200229a565b62001842565b6200050062001a01565b60405162000233919062002821565b620002d862000520366004620020a0565b62001a14565b620002d862000537366004620020a0565b62001a54565b620004746200054e36600462002587565b62001a94565b620002d8620005653660046200204f565b62001aa2565b6200025d62001b3d565b6200022462000586366004620024fb565b62001c0a565b620002246200059d3660046200226c565b62001d0a565b600b6020528160005260406000208181548110620005bd57fe5b6000918252602090912001546001600160a01b03169150829050565b60076020528160005260406000208181548110620005bd57fe5b3360009081526007602052604090205460609081816001600160401b03811180156200061e57600080fd5b5060405190808252806020026020018201604052801562000649578160200160208202803683370190505b50905060005b82811015620006c0573360009081526007602052604090208054829081106200067457fe5b9060005260206000200160009054906101000a90046001600160a01b03168282815181106200069f57fe5b6001600160a01b03909216602092830291909101909101526001016200064f565b509150505b90565b6004602052600090815260409020805460029091015460ff81169061010090046001600160a01b031683565b6002602052806000526040600020600091509050806000015490806001015490806002015490806003015490806004015490806005015490806006018054600181600116156101000203166002900480601f016020809104026020016040519081016040528092919081815260200182805460018160011615610100020316600290048015620007c85780601f106200079c57610100808354040283529160200191620007c8565b820191906000526020600020905b815481529060010190602001808311620007aa57829003601f168201915b505050600790930154919250506001600160a01b031688565b6000546001600160a01b03163314620007f957600080fd5b6001600160a01b038116600090815260046020908152604090912085815584516200082d9260019092019186019062001d24565b508160068111156200083b57fe5b6001600160a01b0382166000908152600460205260409020600201805460ff191660018360068111156200086b57fe5b02179055506001600160a01b038116600081815260046020526040908190206002018054610100600160a81b0319166101008402179055517f33a7170f028b1e4f5ba321064a00ed820856a920c7f9c6636fbcf385427b1b0f90620008d290879062002821565b60405180910390a250505050565b6000546001600160a01b03163314620008f857600080fd5b6200090262001d88565b3360009081526002602081815260409283902083516101008082018652825482526001808401548386015283860154838801526003840154606084015260048401546080840152600584015460a08401526006840180548851928116159093026000190190921695909504601f81018590048502860185019096528585529094919360c0860193909290830182828015620009e15780601f10620009b557610100808354040283529160200191620009e1565b820191906000526020600020905b815481529060010190602001808311620009c357829003601f168201915b5050509183525050600791909101546001600160a01b039081166020928301528b83528282018b815260408085018c8152606086018c8152608087018c815260a088018c815260c089018c8152968b1660e08a01523360009081526002808a52959020895181559551600187015592519385019390935551600384015590516004830155516005820155905180519394508493919262000a8a9260068501929091019062001dcb565b5060e09190910151600790910180546001600160a01b0319166001600160a01b039283161790558216600090815260016020819052604091829020805460ff191690911790558151905133917f33a7170f028b1e4f5ba321064a00ed820856a920c7f9c6636fbcf385427b1b0f9162000b04919062002821565b60405180910390a2505050505050505050565b6000858585858560405162000b2c9062001e4c565b62000b3c9594939291906200279d565b604051809103906000f08015801562000b59573d6000803e3d6000fd5b506001600160a01b0396871660009081526009602090815260408220805460018101825590835291200180546001600160a01b03191691909716179095555050505050565b60043360009081526004602052604090206002015460ff16600681111562000bc257fe5b1462000beb5760405162461bcd60e51b815260040162000be2906200294d565b60405180910390fd5b6040516307fb74db60e21b81526000906001600160a01b03851690631fedd36c9062000c1c903390600401620026d3565b602060405180830381600087803b15801562000c3757600080fd5b505af115801562000c4c573d6000803e3d6000fd5b505050506040513d601f19601f8201168201806040525081019062000c7291906200234e565b336000818152600a602090815260408083208054600181018255908452919092200180546001600160a01b0319166001600160a01b03891617905551919250429160008051602062005ca38339815191529062000cd59087908990889062002766565b60405180910390a350505050565b600a6020528160005260406000208181548110620005bd57fe5b60606006805480602002602001604051908101604052809291908181526020016000905b8282101562000dd25760008481526020908190208301805460408051601f600260001961010060018716150201909416939093049283018590048502810185019091528181529283018282801562000dbd5780601f1062000d915761010080835404028352916020019162000dbd565b820191906000526020600020905b81548152906001019060200180831162000d9f57829003601f168201915b50505050508152602001906001019062000d21565b50505050905090565b606060003360405160200162000df291906200266a565b604051602081830303815290604052805190602001209050600062000e1882856200156b565b6001600160a01b03811660009081526001602052604090205490915060ff1662000e565760405162461bcd60e51b815260040162000be29062002993565b600380546001019055600580546040805160208084028201810190925282815292919060009084015b8282101562000f305760008481526020908190208301805460408051601f600260001961010060018716150201909416939093049283018590048502810185019091528181529283018282801562000f1b5780601f1062000eef5761010080835404028352916020019162000f1b565b820191906000526020600020905b81548152906001019060200180831162000efd57829003601f168201915b50505050508152602001906001019062000e7f565b50505050925050505b919050565b60058054600181018255600091909152815162000f83917f036b6384b5eca791c62761152d0c79bb0604c104a5fb6f4eb0703f3154bb3db00190602084019062001dcb565b507f91466b8a06ee423c26f15ec0f96499c1ce2f339e4652e13deb8001edbf5007e58160405162000fb59190620028cf565b60405180910390a150565b6000856001600160a01b03166001868686866040516000815260200160405260405162000ff19493929190620028b1565b6020604051602081039080840390855afa15801562001014573d6000803e3d6000fd5b505050602060405103516001600160a01b031614905095945050505050565b6200103d62001e5a565b6001600160a01b03821660009081526004602090815260408083208151608081018352815481526001820180548451818702810187019095528085529195929486810194939192919084015b828210156200113a5760008481526020908190208301805460408051601f6002600019610100600187161502019094169390930492830185900485028101850190915281815292830182828015620011255780601f10620010f95761010080835404028352916020019162001125565b820191906000526020600020905b8154815290600101906020018083116200110757829003601f168201915b50505050508152602001906001019062001089565b50505090825250600282015460209091019060ff1660068111156200115b57fe5b60068111156200116757fe5b81526002919091015461010090046001600160a01b031660209091015292915050565b600f602052600090815260409020546001600160a01b031681565b60053360009081526004602052604090206002015460ff166006811115620011c957fe5b148015620012575750836001600160a01b031663abb428a66040518163ffffffff1660e01b815260040160606040518083038186803b1580156200120c57600080fd5b505afa15801562001221573d6000803e3d6000fd5b505050506040513d601f19601f82011682018060405250810190620012479190620022d5565b602001516001600160a01b031633145b620012765760405162461bcd60e51b815260040162000be290620028e4565b6040516307fb74db60e21b81526000906001600160a01b03861690631fedd36c90620012a7903390600401620026d3565b602060405180830381600087803b158015620012c257600080fd5b505af1158015620012d7573d6000803e3d6000fd5b505050506040513d601f19601f82011682018060405250810190620012fd91906200234e565b905080600214156200142e57336000908152600d60209081526040808320805460018101825590845291832090910180546001600160a01b0319166001600160a01b03891690811790915581516355da145360e11b81529151909163abb428a6916004808301926060929190829003018186803b1580156200137e57600080fd5b505afa15801562001393573d6000803e3d6000fd5b505050506040513d601f19601f82011682018060405250810190620013b99190620022d5565b516001600160a01b0316146200142e5760405163d7dcbe3b60e01b81526001600160a01b0385169063d7dcbe3b90620013f9908890339060040162002721565b600060405180830381600087803b1580156200141457600080fd5b505af115801562001429573d6000803e3d6000fd5b505050505b42336001600160a01b031660008051602062005ca38339815191528588866040516200145d9392919062002766565b60405180910390a35050505050565b60086020528160005260406000208181548110620005bd57fe5b600d6020528160005260406000208181548110620005bd57fe5b604051630a57332d60e31b81526001600160a01b038516906352b9996890620014ce908690600401620026d3565b600060405180830381600087803b158015620014e957600080fd5b505af1158015620014fe573d6000803e3d6000fd5b505050506001600160a01b0383811660009081526008602090815260408083208054600181018255908452919092200180546001600160a01b03191692871692909217909155514290339060008051602062005ca38339815191529062000cd59086908990879062002766565b602081810151604080840151606085015182516000808252950192839052909190841a90600190620015a5908890849087908790620028b1565b6020604051602081039080840390855afa158015620015c8573d6000803e3d6000fd5b5050506020604051035193505050505b92915050565b3360009081526009602052604090205460609081816001600160401b03811180156200160957600080fd5b5060405190808252806020026020018201604052801562001634578160200160208202803683370190505b50905060005b82811015620006c0573360009081526009602052604090208054829081106200165f57fe5b9060005260206000200160009054906101000a90046001600160a01b03168282815181106200168a57fe5b6001600160a01b03909216602092830291909101909101526001016200163a565b60058181548110620016b957fe5b600091825260209182902001805460408051601f60026000196101006001871615020190941693909304928301859004850281018501909152818152935090918301828280156200174e5780601f1062001722576101008083540402835291602001916200174e565b820191906000526020600020905b8154815290600101906020018083116200173057829003601f168201915b505050505081565b60096020528160005260406000208181548110620005bd57fe5b600c602052600090815260409020546001600160a01b031681565b42836001600160a01b03167f22561ca0666e99052dd8231a6c5c337204ed5658c357aa6afcd53c207acfac6786858560405162000cd59392919062002766565b60068054600181018255600091909152815162001810917ff652222313e28459528d920b65115c16c04f3efc82aaedc97be59f3f377c0d3f0190602084019062001dcb565b507ffdccda5b0ad24396c1bf6fea22c4d36c943a4a46cd838359fdbabc0334f01a768160405162000fb59190620028cf565b60023360009081526004602052604090206002015460ff1660068111156200186657fe5b14620018865760405162461bcd60e51b815260040162000be290620029c0565b60008211620018a95760405162461bcd60e51b815260040162000be29062002a07565b81600114156200191b5760405163638e9a3d60e01b81526001600160a01b0384169063638e9a3d90620018e1903390600401620026d3565b600060405180830381600087803b158015620018fc57600080fd5b505af115801562001911573d6000803e3d6000fd5b50505050620019fc565b8160021415620019535760405163ac42a41560e01b81526001600160a01b0384169063ac42a41590620018e1903390600401620026d3565b81600314156200198d57604051630887851b60e31b81526001600160a01b0382169063443c28d890620018e1908690339060040162002721565b8160041415620019fc5760405163298abd8d60e11b81526001600160a01b038216906353157b1a90620019c7908690339060040162002721565b600060405180830381600087803b158015620019e257600080fd5b505af1158015620019f7573d6000803e3d6000fd5b505050505b505050565b3360009081526007602052604090205490565b42826001600160a01b03167f31f87de04fd141167b8131be7a8ccb2bac63361a15671c96d90c39ddc9ef909d85878560405162000cd59392919062002766565b42846001600160a01b03167f9151271dfe612a18bf915ee1609e6f94f62fd775c704a0ae2ef091519f0c9b3985858560405162000cd59392919062002766565b60068181548110620016b957fe5b60008333848460405162001ab69062001e82565b62001ac594939291906200273b565b604051809103906000f08015801562001ae2573d6000803e3d6000fd5b50336000908152600b6020908152604080832080546001810182559084528284200180546001600160a01b039586166001600160a01b03199182168117909255989094168352600c9091529020805490951617909355505050565b3360009081526008602052604090205460609081816001600160401b038111801562001b6857600080fd5b5060405190808252806020026020018201604052801562001b93578160200160208202803683370190505b50905060005b82811015620006c05733600090815260086020526040902080548290811062001bbe57fe5b9060005260206000200160009054906101000a90046001600160a01b031682828151811062001be957fe5b6001600160a01b039092166020928302919091019091015260010162001b99565b600080336002334260405160200162001c2592919062002698565b60408051601f198184030181529082905262001c4191620026b5565b602060405180830381855afa15801562001c5f573d6000803e3d6000fd5b5050506040513d601f19601f8201168201806040525081019062001c8491906200234e565b60601c8787878760405162001c999062001e90565b62001caa96959493929190620026e7565b604051809103906000f08015801562001cc7573d6000803e3d6000fd5b503360009081526007602090815260408220805460018101825590835291200180546001600160a01b0319166001600160a01b0383161790559695505050505050565b600e6020528160005260406000208181548110620005bd57fe5b82805482825590600052602060002090810192821562001d76579160200282015b8281111562001d76578251805162001d6591849160209091019062001dcb565b509160200191906001019062001d45565b5062001d8492915062001e9e565b5090565b604080516101008101825260008082526020820181905291810182905260608082018390526080820183905260a0820183905260c082015260e081019190915290565b828054600181600116156101000203166002900490600052602060002090601f016020900481019282601f1062001e0e57805160ff191683800117855562001e3e565b8280016001018555821562001e3e579182015b8281111562001e3e57825182559160200191906001019062001e21565b5062001d8492915062001ec6565b611bde8062002b3483390190565b6040805160808101825260008082526060602083015290918201908152600060209091015290565b6103b8806200471283390190565b6111d98062004aca83390190565b620006c591905b8082111562001d8457600062001ebc828262001ee3565b5060010162001ea5565b620006c591905b8082111562001d84576000815560010162001ecd565b50805460018160011615610100020316600290046000825580601f1062001f0b575062001f2b565b601f01602090049060005260206000209081019062001f2b919062001ec6565b50565b8035620015d88162002b1d565b600082601f83011262001f4c578081fd5b813562001f6362001f5d8262002abe565b62002a97565b81815291506020808301908481018184028601820187101562001f8557600080fd5b60005b8481101562001fb157813562001f9e8162002b1d565b8452928201929082019060010162001f88565b505050505092915050565b600082601f83011262001fcd578081fd5b81356001600160401b0381111562001fe3578182fd5b62001ff8601f8201601f191660200162002a97565b91508082528360208285010111156200201057600080fd5b8060208401602084013760009082016020015292915050565b6000602082840312156200203b578081fd5b8135620020488162002b1d565b9392505050565b60008060006060848603121562002064578182fd5b8335620020718162002b1d565b92506020840135620020838162002b1d565b91506040840135620020958162002b1d565b809150509250925092565b60008060008060808587031215620020b6578081fd5b8435620020c38162002b1d565b93506020850135620020d58162002b1d565b92506040850135620020e78162002b1d565b915060608501356001600160401b0381111562002102578182fd5b620021108782880162001fbc565b91505092959194509250565b60008060006060848603121562002131578283fd5b83356200213e8162002b1d565b92506020840135620021508162002b1d565b915060408401356001600160401b038111156200216b578182fd5b620021798682870162001fbc565b9150509250925092565b600080600080600060a086880312156200219b578081fd5b8535620021a88162002b1d565b94506020860135935060408601356001600160401b0380821115620021cb578283fd5b620021d989838a0162001f3b565b9450606088013593506080880135915080821115620021f6578283fd5b50620022058882890162001f3b565b9150509295509295909350565b600080600080600060a086880312156200222a578081fd5b8535620022378162002b1d565b945060208601359350604086013560ff8116811462002254578182fd5b94979396509394606081013594506080013592915050565b600080604083850312156200227f578182fd5b82356200228c8162002b1d565b946020939093013593505050565b600080600060608486031215620022af578081fd5b8335620022bc8162002b1d565b9250602084013591506040840135620020958162002b1d565b600060608284031215620022e7578081fd5b82601f830112620022f6578081fd5b62002302606062002a97565b80838560608601111562002314578384fd5b835b6003811015620023435781516200232d8162002b1d565b8452602093840193919091019060010162002316565b509095945050505050565b60006020828403121562002360578081fd5b5051919050565b600080600080608085870312156200237d578182fd5b843593506020808601356001600160401b038111156200239b578384fd5b80870188601f820112620023ad578485fd5b80359150620023c062001f5d8362002abe565b82815283810190828501875b85811015620023f957620023e68d88843588010162001fbc565b84529286019290860190600101620023cc565b505080975050505050506040850135915062002419866060870162001f2e565b905092959194509250565b600080600080600080600080610100898b03121562002441578586fd5b883597506020890135965060408901359550606089013594506080890135935060a0890135925060c08901356001600160401b0381111562002481578283fd5b6200248f8b828c0162001fbc565b92505060e0890135620024a28162002b1d565b809150509295985092959890939650565b60008060408385031215620024c6578182fd5b8235915060208301356001600160401b03811115620024e3578182fd5b620024f18582860162001fbc565b9150509250929050565b6000806000806080858703121562002511578182fd5b843593506020850135925060408501356200252c8162002b1d565b915060608501356200253e8162002b1d565b939692955090935050565b6000602082840312156200255b578081fd5b81356001600160401b0381111562002571578182fd5b6200257f8482850162001fbc565b949350505050565b60006020828403121562002599578081fd5b5035919050565b6000815180845260208085019450808401835b83811015620025da5781516001600160a01b031687529582019590820190600101620025b3565b509495945050505050565b6000815180845260208085018081965082840281019150828601855b858110156200262f5782840389526200261c8483516200263c565b9885019893509084019060010162002601565b5091979650505050505050565b600081518084526200265681602086016020860162002aea565b601f01601f19169290920160200192915050565b60609190911b6001600160601b03191681526c1058d8d95cdcd4995c5d595cdd609a1b601482015260210190565b60609290921b6001600160601b0319168252601482015260340190565b60008251620026c981846020870162002aea565b9190910192915050565b6001600160a01b0391909116815260200190565b6001600160a01b0396871681529486166020860152604085019390935260608401919091528316608083015290911660a082015260c00190565b6001600160a01b0392831681529116602082015260400190565b6001600160a01b03948516815292841660208401529083166040830152909116606082015260800190565b6001600160a01b0384811682528316602082015260606040820181905260009062002794908301846200263c565b95945050505050565b600060018060a01b038716825285602083015260a06040830152620027c660a0830186620025a0565b8460608401528281036080840152620027e08185620025a0565b98975050505050505050565b600060208252620020486020830184620025a0565b600060208252620020486020830184620025e5565b901515815260200190565b90815260200190565b60006101008a83528960208401528860408401528760608401528660808401528560a08401528060c084015262002864818401866200263c565b91505060018060a01b03831660e08301529998505050505050505050565b83815260608101620028948462002ade565b60208301526001600160a01b039290921660409091015292915050565b93845260ff9290921660208401526040830152606082015260800190565b6000602082526200204860208301846200263c565b60208082526043908201527f4f6e6c79204469737472696275746f72206f722063757272656e74206f776e6560408201527f72206f66207061636b6167652063616e2063616c6c20746869732066756e637460608201526234b7b760e91b608082015260a00190565b60208082526026908201527f4f6e6c792057686f6c6573616c65722063616e2063616c6c20746869732066756040820152653731ba34b7b760d11b606082015260800190565b602080825260139082015272556e617574686f72697a65642061636365737360681b604082015260600190565b60208082526027908201527f4f6e6c79205472616e73706f727465722063616e2063616c6c207468697320666040820152663ab731ba34b7b760c91b606082015260800190565b6020808252601d908201527f5472616e73706f72746572205479706520697320696e636f7272656374000000604082015260600190565b6000602082528251602083015260208301516080604084015262002a6660a0840182620025e5565b62002a75604086015162002ade565b606085015260018060a01b036060860151166080850152809250505092915050565b6040518181016001600160401b038111828210171562002ab657600080fd5b604052919050565b60006001600160401b0382111562002ad4578081fd5b5060209081020190565b806007811062000f3957fe5b60005b8381101562002b0757818101518382015260200162002aed565b8381111562002b17576000848401525b50505050565b6001600160a01b038116811462001f2b57600080fdfe60806040523480156200001157600080fd5b5060405162001bde38038062001bde833981810160405260a08110156200003757600080fd5b815160208301516040808501805191519395929483019291846401000000008211156200006357600080fd5b9083019060208201858111156200007957600080fd5b82518660208202830111640100000000821117156200009757600080fd5b82525081516020918201928201910280838360005b83811015620000c6578181015183820152602001620000ac565b505050509050016040526020018051906020019092919080516040519392919084640100000000821115620000fa57600080fd5b9083019060208201858111156200011057600080fd5b82518660208202830111640100000000821117156200012e57600080fd5b82525081516020918201928201910280838360005b838110156200015d57818101518382015260200162000143565b50505050919091016040525050600080546001600160a01b0389166001600160a01b03199182168117909255600480549091169091179055505060018490558251620001b190600290602086019062000268565b5060088290558051620001cc90600390602084019062000268565b50600580546001600160a01b03199081169091556006805490911690556009805460ff1916905560405160009086906200020690620002d2565b6001600160a01b03909116815260405190819003602001906000f08015801562000234573d6000803e3d6000fd5b50600980546001600160a01b0390921661010002610100600160a81b0319909216919091179055506200030a945050505050565b828054828255906000526020600020908101928215620002c0579160200282015b82811115620002c057825182546001600160a01b0319166001600160a01b0390911617825560209092019160019091019062000289565b50620002ce929150620002e0565b5090565b610b74806200106a83390190565b6200030791905b80821115620002ce5780546001600160a01b0319168155600101620002e7565b90565b610d50806200031a6000396000f3fe608060405234801561001057600080fd5b50600436106100ca5760003560e01c8063ac42a4151161007c578063ac42a41514610278578063c50fb2031461029e578063c8f5f189146102a6578063d2f3fcc7146102cc578063e002c8a5146102d4578063e138d4ce146103ee578063f5c0e38314610414576100ca565b80631fedd36c146100cf5780632f1d75881461010757806393a668b71461013757806396991e791461015d57806397bcb41014610183578063aab3a9d614610212578063abb428a614610238575b600080fd5b6100f5600480360360208110156100e557600080fd5b50356001600160a01b0316610442565b60408051918252519081900360200190f35b6101356004803603604081101561011d57600080fd5b506001600160a01b038135811691602001351661066d565b005b6101356004803603602081101561014d57600080fd5b50356001600160a01b03166106f6565b6101356004803603602081101561017357600080fd5b50356001600160a01b0316610763565b6101a06004803603602081101561019957600080fd5b5035610785565b604080518981526001600160a01b03808a166020830152888116928201929092528682166060820152908516608082015260a0810184905260c081018360068111156101e857fe5b60ff1681526001600160a01b03909216602083015250604080519182900301975095505050505050f35b6101356004803603602081101561022857600080fd5b50356001600160a01b03166107df565b610240610831565b6040518082606080838360005b8381101561026557818101518382015260200161024d565b5050505090500191505060405180910390f35b6101356004803603602081101561028e57600080fd5b50356001600160a01b031661086c565b6100f56109ed565b610135600480360360208110156102bc57600080fd5b50356001600160a01b03166109f3565b6100f5610a5c565b6102dc610a75565b604051808a6001600160a01b03166001600160a01b031681526020018981526020018060200188815260200180602001876001600160a01b03166001600160a01b03168152602001868152602001856001600160a01b03166001600160a01b03168152602001846001600160a01b03166001600160a01b0316815260200183810383528a818151815260200191508051906020019060200280838360005b8381101561039257818101518382015260200161037a565b50505050905001838103825288818151815260200191508051906020019060200280838360005b838110156103d15781810151838201526020016103b9565b505050509050019b50505050505050505050505060405180910390f35b6101356004803603602081101561040457600080fd5b50356001600160a01b0316610bab565b6101356004803603604081101561042a57600080fd5b506001600160a01b0381358116916020013516610bcd565b6005546000906001600160a01b038381169116148061046e57506006546001600160a01b038381169116145b6104a95760405162461bcd60e51b8152600401808060200182810382526035815260200180610c7a6035913960400191505060405180910390fd5b60095460019060ff1660068111156104bd57fe5b101561050c576040805162461bcd60e51b8152602060048201526019602482015278141c9bd91d58dd081b9bdd081c1a58dad959081d5c081e595d603a1b604482015290519081900360640190fd5b6005546001600160a01b0383811691161480156105395750600160095460ff16600681111561053757fe5b145b156105bd576009805460ff1916600390811790915560055481546001600160a01b039091169190600019810190811061056e57fe5b60009182526020918290200154604080516002815260039381019390935280516001600160a01b03909216923092600080516020610c5a833981519152929181900390910190a4506001610668565b6006546001600160a01b0383811691161480156105ea5750600260095460ff1660068111156105e857fe5b145b15610668576009805460ff19166004179055600654600380546001600160a01b0390921691600019810190811061061d57fe5b60009182526020918290200154604080516003815260049381019390935280516001600160a01b03909216923092600080516020610c5a833981519152929181900390910190a45060025b919050565b6006546001600160a01b038281169116146106b95760405162461bcd60e51b8152600401808060200182810382526023815260200180610cd16023913960400191505060405180910390fd5b600780546001600160a01b0319166001600160a01b03841617905560055b6009805460ff191660018360068111156106ed57fe5b02179055505050565b6006546001600160a01b038281169116146107425760405162461bcd60e51b8152600401808060200182810382526023815260200180610cd16023913960400191505060405180910390fd5b60045b6009805460ff1916600183600681111561075b57fe5b021790555050565b600680546001600160a01b0319166001600160a01b0392909216919091179055565b600b60205260009081526040902080546003820154600483015460058401546006850154600786015460089096015494956001600160a01b0394851695938516949283169391831692909160ff8116916101009091041688565b600380546001810182556000919091527fc2575a0e9e593c00f959f8c92f12db2869c3395a3b0502d05e2516446f71f85b0180546001600160a01b0319166001600160a01b0392909216919091179055565b610839610c3b565b50604080516060810182526005546001600160a01b03908116825260065481166020830152600754169181019190915290565b60038054600019810190811061087e57fe5b6000918252602090912001546001600160a01b038281169116146108d35760405162461bcd60e51b8152600401808060200182810382526027815260200180610cf46027913960400191505060405180910390fd5b600060095460ff1660068111156108e657fe5b14610938576040805162461bcd60e51b815260206004820181905260248201527f5061636b616765206d757374206265206174204d616e7566616374757265722e604482015290519081900360640190fd5b6005546001600160a01b03161561099b576009805460ff1916600190811790915560055460408051838152602081019390935280516001600160a01b0392831693928516923092600080516020610c5a83398151915292918290030190a46109ea565b6009805460ff191660029081179091556006546040805160018152602081019390935280516001600160a01b0392831693928516923092600080516020610c5a83398151915292918290030190a45b50565b600a5481565b6007546001600160a01b03828116911614610a55576040805162461bcd60e51b815260206004820181905260248201527f5468697320437573746f6d6572206973206e6f74204173736f6369617465642e604482015290519081900360640190fd5b6006610745565b60095460009060ff166006811115610a7057fe5b905090565b6004546001546008546006805460095460009586956060958795879587958695869586956001600160a01b03928316959194600294919360039391169160ff1690811115610abf57fe5b6009546005548654604080516020808402820181019092528281526101009094046001600160a01b0390811694931692918991830182828015610b2b57602002820191906000526020600020905b81546001600160a01b03168152600190910190602001808311610b0d575b5050505050965084805480602002602001604051908101604052809291908181526020018280548015610b8757602002820191906000526020600020905b81546001600160a01b03168152600190910190602001808311610b69575b50505050509450985098509850985098509850985098509850909192939495969798565b600580546001600160a01b0319166001600160a01b0392909216919091179055565b6005546001600160a01b03828116911614610c195760405162461bcd60e51b8152600401808060200182810382526022815260200180610caf6022913960400191505060405180910390fd5b600680546001600160a01b0319166001600160a01b03841617905560026106d7565b6040518060600160405280600390602082028036833750919291505056fe7e89c4b1a4e2b51aae84eb1f90e8a34cb792ece5ac5cb63db4830c891220b28d4f6e6c792057686f6c6573616c6572206f72204469737472696275746f722063616e2063616c6c20746869732066756e6374696f6e746869732057686f6c6573616c6572206973206e6f74204173736f6369617465642e54686973204469737472696275746f72206973206e6f74204173736f6369617465642e4f6e6c79205472616e73706f727465722063616e2063616c6c20746869732066756e6374696f6ea2646970667358221220dba45bda14878750b2efe8143003cb62d0e922091f37efcf142583ec6ea9142364736f6c634300060600336080604052600060025534801561001557600080fd5b50604051610b74380380610b7483398101604081905261003491610059565b600080546001600160a01b0319166001600160a01b0392909216919091179055610087565b60006020828403121561006a578081fd5b81516001600160a01b0381168114610080578182fd5b9392505050565b610ade806100966000396000f3fe608060405234801561001057600080fd5b506004361061004c5760003560e01c806327506f53146100515780633626a3681461006f57806378ce1365146100845780639ace38c214610099575b600080fd5b6100596100bf565b60405161006691906108c3565b60405180910390f35b61008261007d3660046107bb565b6102c7565b005b61008c61050b565b6040516100669190610a87565b6100ac6100a7366004610853565b610511565b6040516100669796959493929190610990565b600254606090818167ffffffffffffffff811180156100dd57600080fd5b5060405190808252806020026020018201604052801561011757816020015b61010461066a565b8152602001906001900390816100fc5790505b50905060005b828110156102bf57600081815260016020818152604092839020835160e08101855281548152818401546001600160a01b0390811682850152600280840154909116828701526003830154606083015260048301805487516101009782161597909702600019011691909104601f81018590048502860185019096528585529094919360808601939092908301828280156101f95780601f106101ce576101008083540402835291602001916101f9565b820191906000526020600020905b8154815290600101906020018083116101dc57829003601f168201915b505050918352505060058201805460408051602060026001851615610100026000190190941693909304601f810184900484028201840190925281815293820193929183018282801561028d5780601f106102625761010080835404028352916020019161028d565b820191906000526020600020905b81548152906001019060200180831161027057829003601f168201915b505050505081526020016006820154815250508282815181106102ac57fe5b602090810291909101015260010161011d565b509150505b90565b60025442906103a6576040805160e0810182528881526001600160a01b038089166020808401918252898316848601908152606085018a8152608086018a815260a087018a905260c08701899052600280546000908152600180875299902088518155955198860180549988166001600160a01b03199a8b1617905592519285018054939096169290971691909117909355915160038201559251805192939261037792600485019201906106a5565b5060a082015180516103939160058401916020909101906106a5565b5060c082015181600601559050506104b5565b6002546000190160009081526001602052604090205484146103e35760405162461bcd60e51b81526004016103da90610a50565b60405180910390fd5b6040805160e0810182528881526001600160a01b038089166020808401918252898316848601908152606085018a8152608086018a815260a087018a905260c08701899052600280546000908152600180875299902088518155955198860180549988166001600160a01b03199a8b1617905592519285018054939096169290971691909117909355915160038201559251805192939261048a92600485019201906106a5565b5060a082015180516104a69160058401916020909101906106a5565b5060c082015181600601559050505b6002805460010190556040517f30d01d358fb0899fe4d50947b2e9301c952d9eed09b14c7ecdcbeed4434557c4906104fa90899089908990899087908a908a906109f0565b60405180910390a150505050505050565b60025481565b60016020818152600092835260409283902080548184015460028084015460038501546004860180548a516101009a8216159a909a02600019011693909304601f810188900488028901880190995288885293976001600160a01b039384169793909116959394938301828280156105ca5780601f1061059f576101008083540402835291602001916105ca565b820191906000526020600020905b8154815290600101906020018083116105ad57829003601f168201915b5050505060058301805460408051602060026001851615610100026000190190941693909304601f810184900484028201840190925281815294959493509083018282801561065a5780601f1061062f5761010080835404028352916020019161065a565b820191906000526020600020905b81548152906001019060200180831161063d57829003601f168201915b5050505050908060060154905087565b6040805160e08101825260008082526020820181905291810182905260608082018390526080820181905260a082015260c081019190915290565b828054600181600116156101000203166002900490600052602060002090601f016020900481019282601f106106e657805160ff1916838001178555610713565b82800160010185558215610713579182015b828111156107135782518255916020019190600101906106f8565b5061071f929150610723565b5090565b6102c491905b8082111561071f5760008155600101610729565b600082601f83011261074d578081fd5b813567ffffffffffffffff80821115610764578283fd5b604051601f8301601f191681016020018281118282101715610784578485fd5b60405282815292508284830160200186101561079f57600080fd5b8260208601602083013760006020848301015250505092915050565b60008060008060008060c087890312156107d3578182fd5b8635955060208701356107e581610a90565b945060408701356107f581610a90565b935060608701359250608087013567ffffffffffffffff80821115610818578384fd5b6108248a838b0161073d565b935060a0890135915080821115610839578283fd5b5061084689828a0161073d565b9150509295509295509295565b600060208284031215610864578081fd5b5035919050565b6001600160a01b03169052565b60008151808452815b8181101561089d57602081850181015186830182015201610881565b818111156108ae5782602083870101525b50601f01601f19169290920160200192915050565b60208082528251828201819052600091906040908185019080840286018301878501865b8381101561098257603f19898403018552815160e081518552888201516109108a87018261086b565b50878201516109218987018261086b565b506060808301518187015250608080830151828288015261094483880182610878565b91505060a0915081830151868203838801526109608282610878565b60c09485015197909401969096525050948701949250908601906001016108e7565b509098975050505050505050565b8781526001600160a01b038781166020830152861660408201526060810185905260e0608082018190526000906109c990830186610878565b82810360a08401526109db8186610878565b9150508260c083015298975050505050505050565b8781526001600160a01b03878116602083015286166040820152606081018590526080810184905260e060a08201819052600090610a3090830185610878565b82810360c0840152610a428185610878565b9a9950505050505050505050565b6020808252601b908201527f5472616e73616374696f6e206572726f72206f63637572726564210000000000604082015260600190565b90815260200190565b6001600160a01b0381168114610aa557600080fd5b5056fea2646970667358221220c6c2c5de3ad14cf38cf88b4f614921580977e7335ab6d4e2461cd9ff38b5fa8264736f6c63430006060033608060405234801561001057600080fd5b506040516103b83803806103b88339818101604052608081101561003357600080fd5b50805160208201516040830151606090930151600080546001600160a01b03199081166001600160a01b03948516908117835560018054831696861696909617909555600280548216909517909455600380548516958416959095179094556004805490931691161760ff60a01b191690556103039081906100b590396000f3fe608060405234801561001057600080fd5b50600436106100415760003560e01c8063443c28d814610046578063d2f3fcc714610076578063d7dcbe3b14610090575b600080fd5b6100746004803603604081101561005c57600080fd5b506001600160a01b03813581169160200135166100be565b005b61007e610190565b60408051918252519081900360200190f35b610074600480360360408110156100a657600080fd5b506001600160a01b03813581169160200135166101b0565b6003546001600160a01b0382811691161461010a5760405162461bcd60e51b815260040180806020018281038252602f81526020018061029f602f913960400191505060405180910390fd5b6004805460ff60a01b1916600160a01b178082556002546040805163f5c0e38360e01b81526001600160a01b03938416948101949094529082166024840152519084169163f5c0e38391604480830192600092919082900301818387803b15801561017457600080fd5b505af1158015610188573d6000803e3d6000fd5b505050505050565b600454600090600160a01b900460ff1660028111156101ab57fe5b905090565b6004546001600160a01b038281169116146101fc5760405162461bcd60e51b815260040180806020018281038252603081526020018061026f6030913960400191505060405180910390fd5b600480546002919060ff60a01b1916600160a01b830217905550816001600160a01b03166393a668b7826040518263ffffffff1660e01b815260040180826001600160a01b03166001600160a01b03168152602001915050600060405180830381600087803b15801561017457600080fdfe4f6e6c79204173736f6369617465642072656365697665722063616e2063616c6c20746869732066756e6374696f6e2e4f6e6c79204173736f63696174656420736869707065722063616e2063616c6c20746869732066756e6374696f6e2ea2646970667358221220e231d56883b46389d5f4df87d3cc0bd140a7d3e11c6fa87eed5bee575b38ef4264736f6c63430006060033608060405234801561001057600080fd5b506040516111d93803806111d983398101604081905261002f91610100565b600080546001600160a01b03199081166001600160a01b0389811691821784556001805484168a831617905560028890556003879055600480548416878316179055600580548416918616919091179055600680549092161760ff60a01b19169055604051829061009f906100f3565b6100a99190610173565b604051809103906000f0801580156100c5573d6000803e3d6000fd5b50600880546001600160a01b0319166001600160a01b03929092169190911790555061019f95505050505050565b610b748061066583390190565b60008060008060008060c08789031215610118578182fd5b865161012381610187565b602088015190965061013481610187565b809550506040870151935060608701519250608087015161015481610187565b60a088015190925061016581610187565b809150509295509295509295565b6001600160a01b0391909116815260200190565b6001600160a01b038116811461019c57600080fd5b50565b6104b7806101ae6000396000f3fe608060405234801561001057600080fd5b50600436106100575760003560e01c806350e073bc1461005c57806352b9996814610071578063638e9a3d146100845780636b099dca1461009757806380723520146100b5575b600080fd5b61006f61006a3660046102e8565b6100d0565b005b61006f61007f3660046102e8565b6100f2565b61006f6100923660046102e8565b6101cd565b61009f610293565b6040516100ac9190610478565b60405180910390f35b6100bd6102b3565b6040516100ac9796959493929190610316565b600580546001600160a01b0319166001600160a01b0392909216919091179055565b6005546001600160a01b038281169116146101285760405162461bcd60e51b815260040161011f90610398565b60405180910390fd5b6001600654600160a01b900460ff16600281111561014257fe5b1461015f5760405162461bcd60e51b815260040161011f90610365565b6006805460ff60a01b1916600160a11b179055600554600454600180546040516001600160a01b039485169493841693909116917f7e89c4b1a4e2b51aae84eb1f90e8a34cb792ece5ac5cb63db4830c891220b28d916101c29190600290610357565b60405180910390a450565b6004546001600160a01b038281169116146101fa5760405162461bcd60e51b815260040161011f90610428565b6000600654600160a01b900460ff16600281111561021457fe5b146102315760405162461bcd60e51b815260040161011f906103f1565b6006805460ff60a01b1916600160a01b179055600554600454600180546040516001600160a01b039485169493841693909116917f7e89c4b1a4e2b51aae84eb1f90e8a34cb792ece5ac5cb63db4830c891220b28d916101c291908190610357565b600654600090600160a01b900460ff1660028111156102ae57fe5b905090565b6001546002546003546006546004546005546008546001600160a01b0396871697959694959385169492831693918316921690565b6000602082840312156102f9578081fd5b81356001600160a01b038116811461030f578182fd5b9392505050565b6001600160a01b03978816815260208101969096526040860194909452918516606085015284166080840152831660a083015290911660c082015260e00190565b918252602082015260400190565b602080825260199082015278141c9bd91d58dd081b9bdd081c1a58dad959081d5c081e595d603a1b604082015260600190565b60208082526039908201527f4f6e6c79204d616e756661637475726572206f6620746865207061636b6167656040820152782063616e20726563656965766520746865207061636b61676560381b606082015260800190565b6020808252601c908201527f5061636b616765206d75737420626520617420537570706c6965722e00000000604082015260600190565b60208082526030908201527f4f6e6c79207472616e73706f72746572206f6620746865207061636b6167652060408201526f63616e207069636b207061636b61676560801b606082015260800190565b9081526020019056fea264697066735822122013cad4dc0656dc075b5641cb18ae87efe7d7f216e4c11365c0a4d07279fc183564736f6c634300060600336080604052600060025534801561001557600080fd5b50604051610b74380380610b7483398101604081905261003491610059565b600080546001600160a01b0319166001600160a01b0392909216919091179055610087565b60006020828403121561006a578081fd5b81516001600160a01b0381168114610080578182fd5b9392505050565b610ade806100966000396000f3fe608060405234801561001057600080fd5b506004361061004c5760003560e01c806327506f53146100515780633626a3681461006f57806378ce1365146100845780639ace38c214610099575b600080fd5b6100596100bf565b60405161006691906108c3565b60405180910390f35b61008261007d3660046107bb565b6102c7565b005b61008c61050b565b6040516100669190610a87565b6100ac6100a7366004610853565b610511565b6040516100669796959493929190610990565b600254606090818167ffffffffffffffff811180156100dd57600080fd5b5060405190808252806020026020018201604052801561011757816020015b61010461066a565b8152602001906001900390816100fc5790505b50905060005b828110156102bf57600081815260016020818152604092839020835160e08101855281548152818401546001600160a01b0390811682850152600280840154909116828701526003830154606083015260048301805487516101009782161597909702600019011691909104601f81018590048502860185019096528585529094919360808601939092908301828280156101f95780601f106101ce576101008083540402835291602001916101f9565b820191906000526020600020905b8154815290600101906020018083116101dc57829003601f168201915b505050918352505060058201805460408051602060026001851615610100026000190190941693909304601f810184900484028201840190925281815293820193929183018282801561028d5780601f106102625761010080835404028352916020019161028d565b820191906000526020600020905b81548152906001019060200180831161027057829003601f168201915b505050505081526020016006820154815250508282815181106102ac57fe5b602090810291909101015260010161011d565b509150505b90565b60025442906103a6576040805160e0810182528881526001600160a01b038089166020808401918252898316848601908152606085018a8152608086018a815260a087018a905260c08701899052600280546000908152600180875299902088518155955198860180549988166001600160a01b03199a8b1617905592519285018054939096169290971691909117909355915160038201559251805192939261037792600485019201906106a5565b5060a082015180516103939160058401916020909101906106a5565b5060c082015181600601559050506104b5565b6002546000190160009081526001602052604090205484146103e35760405162461bcd60e51b81526004016103da90610a50565b60405180910390fd5b6040805160e0810182528881526001600160a01b038089166020808401918252898316848601908152606085018a8152608086018a815260a087018a905260c08701899052600280546000908152600180875299902088518155955198860180549988166001600160a01b03199a8b1617905592519285018054939096169290971691909117909355915160038201559251805192939261048a92600485019201906106a5565b5060a082015180516104a69160058401916020909101906106a5565b5060c082015181600601559050505b6002805460010190556040517f30d01d358fb0899fe4d50947b2e9301c952d9eed09b14c7ecdcbeed4434557c4906104fa90899089908990899087908a908a906109f0565b60405180910390a150505050505050565b60025481565b60016020818152600092835260409283902080548184015460028084015460038501546004860180548a516101009a8216159a909a02600019011693909304601f810188900488028901880190995288885293976001600160a01b039384169793909116959394938301828280156105ca5780601f1061059f576101008083540402835291602001916105ca565b820191906000526020600020905b8154815290600101906020018083116105ad57829003601f168201915b5050505060058301805460408051602060026001851615610100026000190190941693909304601f810184900484028201840190925281815294959493509083018282801561065a5780601f1061062f5761010080835404028352916020019161065a565b820191906000526020600020905b81548152906001019060200180831161063d57829003601f168201915b5050505050908060060154905087565b6040805160e08101825260008082526020820181905291810182905260608082018390526080820181905260a082015260c081019190915290565b828054600181600116156101000203166002900490600052602060002090601f016020900481019282601f106106e657805160ff1916838001178555610713565b82800160010185558215610713579182015b828111156107135782518255916020019190600101906106f8565b5061071f929150610723565b5090565b6102c491905b8082111561071f5760008155600101610729565b600082601f83011261074d578081fd5b813567ffffffffffffffff80821115610764578283fd5b604051601f8301601f191681016020018281118282101715610784578485fd5b60405282815292508284830160200186101561079f57600080fd5b8260208601602083013760006020848301015250505092915050565b60008060008060008060c087890312156107d3578182fd5b8635955060208701356107e581610a90565b945060408701356107f581610a90565b935060608701359250608087013567ffffffffffffffff80821115610818578384fd5b6108248a838b0161073d565b935060a0890135915080821115610839578283fd5b5061084689828a0161073d565b9150509295509295509295565b600060208284031215610864578081fd5b5035919050565b6001600160a01b03169052565b60008151808452815b8181101561089d57602081850181015186830182015201610881565b818111156108ae5782602083870101525b50601f01601f19169290920160200192915050565b60208082528251828201819052600091906040908185019080840286018301878501865b8381101561098257603f19898403018552815160e081518552888201516109108a87018261086b565b50878201516109218987018261086b565b506060808301518187015250608080830151828288015261094483880182610878565b91505060a0915081830151868203838801526109608282610878565b60c09485015197909401969096525050948701949250908601906001016108e7565b509098975050505050505050565b8781526001600160a01b038781166020830152861660408201526060810185905260e0608082018190526000906109c990830186610878565b82810360a08401526109db8186610878565b9150508260c083015298975050505050505050565b8781526001600160a01b03878116602083015286166040820152606081018590526080810184905260e060a08201819052600090610a3090830185610878565b82810360c0840152610a428185610878565b9a9950505050505050505050565b6020808252601b908201527f5472616e73616374696f6e206572726f72206f63637572726564210000000000604082015260600190565b90815260200190565b6001600160a01b0381168114610aa557600080fd5b5056fea2646970667358221220c6c2c5de3ad14cf38cf88b4f614921580977e7335ab6d4e2461cd9ff38b5fa8264736f6c63430006060033cfbd3a658e0a38877312e3f5767ddb0c6541620d7bd0368d43e0b94a55d9876ea26469706673582212208bf0345584289dedae4b6bb9bae96a54824e1ac851377f8ee273b2f1dcdea89d64736f6c63430006060033",
  "immutableReferences": {},
  "source": "pragma solidity >=0.4.21 <0.7.0;\r\n// pragma solidity >=0.6.0 < 0.8.0;\r\npragma experimental ABIEncoderV2;\r\n\r\nimport \"./RawMaterial.sol\";\r\nimport \"./Medicine.sol\";\r\n\r\nimport \"./MedicineW_D.sol\";\r\n\r\nimport \"./MedicineD_C.sol\";\r\n\r\n//// New supply chain : supplier -> transporter -> manufacturer -> transporter -> whole-saler -> transporter -> distributor -> transporter -> customer/hospital/pharmacy\r\n\r\ncontract SupplyChain {\r\n    address Owner;\r\n    mapping(address => bool) isResearcher;\r\n\r\n    constructor() public {\r\n        Owner = msg.sender;\r\n    }\r\n\r\n    modifier onlyOwner() {\r\n        require(Owner == msg.sender);\r\n        _;\r\n    }\r\n\r\n    modifier checkUser(address addr) {\r\n        require(addr == msg.sender);\r\n        _;\r\n    }\r\n    modifier onlyResearcher() {\r\n        require(\r\n            isResearcher[msg.sender],\r\n            \"Only authorized researchers can access this function\"\r\n        );\r\n        _;\r\n    }\r\n\r\n    enum roles {\r\n        noRole,\r\n        supplier,\r\n        transporter,\r\n        manufacturer,\r\n        wholesaler,\r\n        distributor,\r\n        customer\r\n    }\r\n\r\n    //////////////// Events ////////////////////\r\n\r\n    event UserRegister(address indexed _address, bytes32 name);\r\n    event buyEvent(\r\n        address buyer,\r\n        address indexed seller,\r\n        address packageAddr,\r\n        bytes signature,\r\n        uint indexed timestamp\r\n    );\r\n    event respondEvent(\r\n        address indexed buyer,\r\n        address seller,\r\n        address packageAddr,\r\n        bytes signature,\r\n        uint indexed timestamp\r\n    );\r\n    event sendEvent(\r\n        address seller,\r\n        address buyer,\r\n        address indexed packageAddr,\r\n        bytes signature,\r\n        uint indexed timestamp\r\n    );\r\n    event receivedEvent(\r\n        address indexed buyer,\r\n        address seller,\r\n        address packageAddr,\r\n        bytes signature,\r\n        uint indexed timestamp\r\n    );\r\n\r\n    //////////////// Event functions (All entities) ////////////////////\r\n\r\n    function requestProduct(\r\n        address buyer,\r\n        address seller,\r\n        address packageAddr,\r\n        bytes memory signature\r\n    ) public {\r\n        emit buyEvent(buyer, seller, packageAddr, signature, now);\r\n    }\r\n\r\n    function respondToEntity(\r\n        address buyer,\r\n        address seller,\r\n        address packageAddr,\r\n        bytes memory signature\r\n    ) public {\r\n        emit respondEvent(buyer, seller, packageAddr, signature, now);\r\n    }\r\n\r\n    function sendPackageToEntity(\r\n        address buyer,\r\n        address seller,\r\n        address packageAddr,\r\n        bytes memory signature\r\n    ) public {\r\n        emit sendEvent(seller, buyer, packageAddr, signature, now);\r\n    }\r\n\r\n    /////// Registering a researcher //////////////////////\r\n    struct researcherData {\r\n        bytes32 name;\r\n        bytes32 institution;\r\n        bytes32 email;\r\n        bytes32 researchArea;\r\n        bytes32 qualifications;\r\n        bytes32 experience;\r\n        string role;\r\n        address walletAddress;\r\n    }\r\n\r\n    mapping(address => researcherData) public researcherInfo;\r\n\r\n    uint counter = 0;\r\n\r\n    function registerResearcher(\r\n        bytes32 name,\r\n        bytes32 institution,\r\n        bytes32 email,\r\n        bytes32 researchArea,\r\n        bytes32 qualifications,\r\n        bytes32 experience,\r\n        string memory role,\r\n        address walletAddress\r\n    ) public onlyOwner {\r\n        researcherData memory researcher = researcherInfo[msg.sender];\r\n        researcher.name = name;\r\n        researcher.institution = institution;\r\n        researcher.email = email;\r\n        researcher.researchArea = researchArea;\r\n        researcher.qualifications = qualifications;\r\n        researcher.experience = experience;\r\n        researcher.role = role;\r\n        researcher.walletAddress = walletAddress;\r\n\r\n        researcherInfo[msg.sender] = researcher;\r\n        isResearcher[walletAddress] = true;\r\n\r\n        emit UserRegister(msg.sender, researcher.name);\r\n    }\r\n\r\n    //  modifier onlyResearcher() {\r\n    //         require(researcherInfo[msg.sender].role == Researcher, \"Only authorized researchers can access this function\");\r\n    //         _;\r\n    //     }\r\n\r\n    /////////////// Users (Only Owner Executable) //////////////////////\r\n\r\n    struct userData {\r\n        bytes32 name;\r\n        string[] userLoc;\r\n        roles role;\r\n        address userAddr;\r\n    }\r\n\r\n    mapping(address => userData) public userInfo;\r\n\r\n    // Modifier to check if the caller is a registered researcher\r\n\r\n    function registerUser(\r\n        bytes32 name,\r\n        string[] memory loc,\r\n        uint role,\r\n        address _userAddr\r\n    ) public onlyOwner {\r\n        userInfo[_userAddr].name = name;\r\n        userInfo[_userAddr].userLoc = loc;\r\n        userInfo[_userAddr].role = roles(role);\r\n        userInfo[_userAddr].userAddr = _userAddr;\r\n\r\n        emit UserRegister(_userAddr, name);\r\n    }\r\n\r\n    //// signer function to verify the researcher ////////\r\n    function recoverSigner(\r\n        bytes32 _hash,\r\n        bytes memory _signature\r\n    ) public pure returns (address) {\r\n        bytes32 r;\r\n        bytes32 s;\r\n        uint8 v;\r\n\r\n        // Extracting the values from the signature\r\n        assembly {\r\n            r := mload(add(_signature, 0x20))\r\n            s := mload(add(_signature, 0x40))\r\n            v := byte(0, mload(add(_signature, 0x60)))\r\n        }\r\n\r\n        // Recovering the signer's address\r\n        return ecrecover(_hash, v, r, s);\r\n    }\r\n\r\n    ///////////////// Storing all the side effects in the ipfs and the generated ipfs  hashes are stored on the blockchain\r\n\r\n    string[] public ipfsHashes; // Array to store IPFS hashes\r\n\r\n    // Event to log IPFS hash storage\r\n    event IPFSHashStored(string ipfsHash);\r\n\r\n    // Function to store IPFS hash\r\n    function storeIPFSHash(string memory hash) public {\r\n        ipfsHashes.push(hash); // Push the hash to the array\r\n        emit IPFSHashStored(hash); // Emit event to log the stored hash\r\n    }\r\n\r\n    /// Function to get all the ipfs hashes only by the authorized researcher\r\n    // function getAllIPFSHashes()\r\n    //     public\r\n    //     onlyResearcher\r\n    //     returns (string[] memory)\r\n    // {\r\n    //     counter = counter + 1;\r\n    //     return ipfsHashes; // Return the array of IPFS hashes\r\n    // }\r\n\r\n    function getAllIPFSHashes(\r\n        bytes memory _signature\r\n    ) public returns (string[] memory) {\r\n        bytes32 messageHash = keccak256(\r\n            abi.encodePacked(msg.sender, \"AccessRequest\")\r\n        );\r\n        address signer = recoverSigner(messageHash, _signature);\r\n\r\n        // Verify that the signer is an authorized researcher\r\n        require(isResearcher[signer], \"Unauthorized access\");\r\n\r\n        counter = counter + 1;\r\n        return ipfsHashes; // Return the array of IPFS hashes\r\n    }\r\n\r\n    //     function getAllIPFSHashes() public view returns (string[] memory) {\r\n    //     require(\r\n    //         keccak256(abi.encodePacked(researcherInfo[msg.sender].role)) == keccak256(abi.encodePacked(Researcher)),\r\n    //         \"Only authorized researchers can access this function\"\r\n    //     );\r\n    //     return ipfsHashes; // Return the array of IPFS hashes\r\n    // }\r\n\r\n    ///////////////// Storing all the  Manufacturer logs  in the ipfs and the generated ipfs  hashes are stored on the blockchain\r\n\r\n    string[] public mLogs; // Array to store IPFS hashes\r\n\r\n    // Event to log IPFS hash storage\r\n    event mLogStored(string mLog);\r\n\r\n    // Function to store IPFS hash\r\n    function storeMLogs(string memory hash) public {\r\n        mLogs.push(hash); // Push the hash to the array\r\n        emit mLogStored(hash); // Emit event to log the stored hash\r\n    }\r\n\r\n    // Function to retrieve all stored IPFS hashes\r\n    function getAllMLogs() public view returns (string[] memory) {\r\n        return mLogs; // Return the array of IPFS hashes\r\n    }\r\n\r\n    // function changeUserRole(uint _role, address _addr) public onlyOwner returns(string memory) {\r\n    //     userInfo[_addr].role = roles(_role);\r\n    //    return \"Role Updated!\";\r\n    // }\r\n\r\n    function getUserInfo(\r\n        address _address\r\n    ) public view returns (userData memory) {\r\n        return userInfo[_address];\r\n    }\r\n\r\n    /////////////// Supplier //////////////////////\r\n\r\n    mapping(address => address[]) public supplierRawMaterials;\r\n\r\n    function createRawMaterialPackage(\r\n        bytes32 _description,\r\n        uint _quantity,\r\n        address _transporterAddr,\r\n        address _manufacturerAddr\r\n    ) public returns (address) {\r\n        RawMaterial rawMaterial = new RawMaterial(\r\n            msg.sender,\r\n            address(bytes20(sha256(abi.encodePacked(msg.sender, now)))),\r\n            _description,\r\n            _quantity,\r\n            _transporterAddr,\r\n            _manufacturerAddr\r\n        );\r\n\r\n        supplierRawMaterials[msg.sender].push(address(rawMaterial));\r\n        return address(rawMaterial);\r\n    }\r\n\r\n    function getNoOfPackagesOfSupplier() public view returns (uint) {\r\n        return supplierRawMaterials[msg.sender].length;\r\n    }\r\n\r\n    function getAllPackages() public view returns (address[] memory) {\r\n        uint len = supplierRawMaterials[msg.sender].length;\r\n        address[] memory ret = new address[](len);\r\n        for (uint i = 0; i < len; i++) {\r\n            ret[i] = supplierRawMaterials[msg.sender][i];\r\n        }\r\n        return ret;\r\n    }\r\n\r\n    ///////////////  Transporter ///////////////\r\n\r\n    function transporterHandlePackage(\r\n        address _addr,\r\n        uint transportertype,\r\n        address cid\r\n    ) public {\r\n        require(\r\n            userInfo[msg.sender].role == roles.transporter,\r\n            \"Only Transporter can call this function\"\r\n        );\r\n        require(transportertype > 0, \"Transporter Type is incorrect\");\r\n\r\n        if (transportertype == 1) {\r\n            /// Supplier -> Manufacturer\r\n            RawMaterial(_addr).pickPackage(msg.sender);\r\n        } else if (transportertype == 2) {\r\n            /// Manufacturer -> Wholesaler\r\n            Medicine(_addr).pickMedicine(msg.sender);\r\n        } else if (transportertype == 3) {\r\n            // Wholesaler to Distributor\r\n            MedicineW_D(cid).pickWD(_addr, msg.sender);\r\n        } else if (transportertype == 4) {\r\n            // Distrubutor to Customer\r\n            MedicineD_C(cid).pickDC(_addr, msg.sender);\r\n        }\r\n    }\r\n\r\n    mapping(address => address[]) public manufacturerRawMaterials;\r\n    mapping(address => address[]) public manufacturerMedicines;\r\n\r\n    //\r\n    function manufacturerReceivedPackage(\r\n        address _addr,\r\n        address _manufacturerAddress,\r\n        address _sellerAddr,\r\n        bytes memory signature\r\n    ) public {\r\n        RawMaterial(_addr).receivedPackage(_manufacturerAddress);\r\n        manufacturerRawMaterials[_manufacturerAddress].push(_addr);\r\n        emit receivedEvent(msg.sender, _sellerAddr, _addr, signature, now);\r\n    }\r\n\r\n    function getAllRawMaterials() public view returns (address[] memory) {\r\n        uint len = manufacturerRawMaterials[msg.sender].length;\r\n        address[] memory ret = new address[](len);\r\n        for (uint i = 0; i < len; i++) {\r\n            ret[i] = manufacturerRawMaterials[msg.sender][i];\r\n        }\r\n        return ret;\r\n    }\r\n\r\n    function manufacturerCreatesMedicine(\r\n        address _manufacturerAddr,\r\n        bytes32 _description,\r\n        address[] memory _rawAddr,\r\n        uint _quantity,\r\n        address[] memory _transporterAddr\r\n    ) public {\r\n        Medicine _medicine = new Medicine(\r\n            _manufacturerAddr,\r\n            _description,\r\n            _rawAddr,\r\n            _quantity,\r\n            _transporterAddr\r\n        );\r\n\r\n        manufacturerMedicines[_manufacturerAddr].push(address(_medicine));\r\n    }\r\n\r\n    function getAllCreatedMedicines() public view returns (address[] memory) {\r\n        uint len = manufacturerMedicines[msg.sender].length;\r\n        address[] memory ret = new address[](len);\r\n        for (uint i = 0; i < len; i++) {\r\n            ret[i] = manufacturerMedicines[msg.sender][i];\r\n        }\r\n        return ret;\r\n    }\r\n\r\n    //\r\n\r\n    ///////////////  Wholesaler  ///////////////\r\n\r\n    mapping(address => address[]) public MedicinesAtWholesaler;\r\n    mapping(address => address[]) public MedicineWtoD;\r\n    mapping(address => address) public MedicineWtoDTxContract;\r\n\r\n    function wholesalerReceivedMedicine(\r\n        address _address,\r\n        address _sellerAddr,\r\n        bytes memory signature\r\n    ) public {\r\n        require(\r\n            userInfo[msg.sender].role == roles.wholesaler,\r\n            \"Only Wholesaler can call this function\"\r\n        );\r\n\r\n        uint rtype = Medicine(_address).receivedMedicine(msg.sender);\r\n        MedicinesAtWholesaler[msg.sender].push(_address);\r\n        emit receivedEvent(msg.sender, _sellerAddr, _address, signature, now);\r\n    }\r\n\r\n    function transferMedicineWtoD(\r\n        address _address,\r\n        address transporter,\r\n        address receiver\r\n    ) public {\r\n        MedicineW_D wd = new MedicineW_D(\r\n            _address,\r\n            msg.sender,\r\n            transporter,\r\n            receiver\r\n        );\r\n        MedicineWtoD[msg.sender].push(address(wd));\r\n        MedicineWtoDTxContract[_address] = address(wd);\r\n    }\r\n\r\n    // function getSubContractWD(address _address) public view returns (address SubContractWD) {\r\n    //     return MedicineWtoDTxContract[_address];\r\n    // }\r\n\r\n    // function getAllMedicinesAtWholesaler() public view returns(address[] memory) {\r\n    //     uint len = MedicinesAtWholesaler[msg.sender].length;\r\n    //     address[] memory ret = new address[](len);\r\n    //     for (uint i = 0; i < len; i++) {\r\n    //         ret[i] = MedicinesAtWholesaler[msg.sender][i];\r\n    //     }\r\n    //     return ret;\r\n    // }\r\n\r\n    //     ///////////////  Distributor  ///////////////\r\n\r\n    mapping(address => address[]) public MedicinesAtDistributor;\r\n    mapping(address => address[]) public MedicineDtoC;\r\n    mapping(address => address) public MedicineDtoCTxContract;\r\n\r\n    function distributorReceivedMedicine(\r\n        address _address,\r\n        address cid,\r\n        address _sellerAddr,\r\n        bytes memory signature\r\n    ) public {\r\n        require(\r\n            userInfo[msg.sender].role == roles.distributor &&\r\n                msg.sender == Medicine(_address).getWDC()[1],\r\n            \"Only Distributor or current owner of package can call this function\"\r\n        );\r\n\r\n        uint rtype = Medicine(_address).receivedMedicine(msg.sender);\r\n        if (rtype == 2) {\r\n            MedicinesAtDistributor[msg.sender].push(_address);\r\n            if (Medicine(_address).getWDC()[0] != address(0)) {\r\n                MedicineW_D(cid).receiveWD(_address, msg.sender);\r\n            }\r\n        }\r\n        emit receivedEvent(msg.sender, _sellerAddr, _address, signature, now);\r\n    }\r\n\r\n    // function distributorTransferMedicinetoCustomer(\r\n    //     address _address,\r\n    //     address transporter,\r\n    //     address receiver\r\n    // ) public {\r\n    //     require(\r\n    //         userInfo[msg.sender].role == roles.distributor &&\r\n    //         msg.sender == Medicine(_address).getWDC()[1],\r\n    //         \"Only Distributor or current owner of package can call this function\"\r\n    //     );\r\n    //     MedicineD_C dp = new MedicineD_C(\r\n    //         _address,\r\n    //         msg.sender,\r\n    //         transporter,\r\n    //         receiver\r\n    //     );\r\n    //     MedicineDtoC[msg.sender].push(address(dp));\r\n    //     MedicineDtoCTxContract[_address] = address(dp);\r\n    // }\r\n\r\n    // function getBatchesCountDC() public view returns (uint count){\r\n    //     require(\r\n    //         userInfo[msg.sender].role == roles.distributor,\r\n    //         \"Only Distributor Can call this function.\"\r\n    //     );\r\n    //     return MedicineDtoC[msg.sender].length;\r\n    // }\r\n\r\n    // function getBatchIdByIndexDC(uint index) public view returns(address packageID) {\r\n    //     require(\r\n    //         userInfo[msg.sender].role == roles.distributor,\r\n    //         \"Only Distributor Can call this function.\"\r\n    //     );\r\n    //     return MedicineDtoC[msg.sender][index];\r\n    // }\r\n\r\n    // function getSubContractDC(address _address) public view returns (address SubContractDP) {\r\n    //     return MedicineDtoCTxContract[_address];\r\n    // }\r\n\r\n    // function getAllMedicinesAtDistributor() public view returns(address[] memory) {\r\n    //     uint len = MedicinesAtDistributor[msg.sender].length;\r\n    //     address[] memory ret = new address[](len);\r\n    //     for (uint i = 0; i < len; i++) {\r\n    //         ret[i] = MedicinesAtDistributor[msg.sender][i];\r\n    //     }\r\n    //     return ret;\r\n    // }\r\n\r\n    //     ///////////////  Customer  ///////////////\r\n\r\n    //     function customerReceivedMedicine(\r\n    //         address _address,\r\n    //         address cid\r\n    //     ) public {\r\n    //         require(\r\n    //             userInfo[msg.sender].role == roles.customer,\r\n    //             \"Only Customer Can call this function.\"\r\n    //         );\r\n    //         medicineRecievedAtCustomer(_address, cid);\r\n    //     }\r\n\r\n    //     function updateStatus(\r\n    //         address _address,\r\n    //         uint Status\r\n    //     ) public {\r\n    //         require(\r\n    //             userInfo[msg.sender].role == roles.customer &&\r\n    //             msg.sender == Medicine(_address).getWDC()[2],\r\n    //             \"Only Customer or current owner of package can call this function\"\r\n    //         );\r\n    //         require(sale[_address] == salestatus(1), \"Medicine Must be at Customer\");\r\n\r\n    //         updateSaleStatus(_address, Status);\r\n    //     }\r\n\r\n    //     function getSalesInfo(\r\n    //         address _address\r\n    //     ) public\r\n    //     view\r\n    //     returns(\r\n    //         uint Status\r\n    //     ){\r\n    //         return salesInfo(_address);\r\n    //     }\r\n\r\n    //     function getBatchesCountC() public view returns(uint count) {\r\n    //         require(\r\n    //             userInfo[msg.sender].role == roles.customer,\r\n    //             \"Only Wholesaler or current owner of package can call this function\"\r\n    //         );\r\n    //         return  MedicineBatchAtCustomer[msg.sender].length;\r\n    //     }\r\n\r\n    //     function getBatchIdByIndexC(uint index) public view returns(address _address) {\r\n    //         require(\r\n    //             userInfo[msg.sender].role == roles.customer,\r\n    //             \"Only Wholesaler or current owner of package can call this function\"\r\n    //         );\r\n    //         return MedicineBatchAtCustomer[msg.sender][index];\r\n    //     }\r\n\r\n    function verify(\r\n        address p,\r\n        bytes32 hash,\r\n        uint8 v,\r\n        bytes32 r,\r\n        bytes32 s\r\n    ) public pure returns (bool) {\r\n        return ecrecover(hash, v, r, s) == p;\r\n    }\r\n}\r\n",
  "sourcePath": "D:\\Researcher-Integration-Drug-Traceability-Blockchain\\testing\\Testing.sol",
  "compiler": {
    "name": "solc",
    "version": "0.6.6+commit.6c089d02.Emscripten.clang"
  },
  "schemaVersion": "3.4.16",
  "updatedAt": "2024-05-02T22:20:12.124Z",
  "networkType": "ethereum",
  "devdoc": {
    "methods": {}
  },
  "userdoc": {
    "methods": {
      "getAllIPFSHashes(bytes)": {
        "notice": "Function to get all the ipfs hashes only by the authorized researcher"
      },
      "recoverSigner(bytes32,bytes)": {
        "notice": "/ signer function to verify the researcher ////////"
      },
      "requestProduct(address,address,address,bytes)": {
        "notice": "///////////// Event functions (All entities) ////////////////////"
      },
      "transporterHandlePackage(address,uint256,address)": {
        "notice": "////////////  Transporter ///////////////"
      }
    },
    "notice": "/ New supply chain : supplier -> transporter -> manufacturer -> transporter -> whole-saler -> transporter -> distributor -> transporter -> customer/hospital/pharmacy"
  }
}